:060000000A128A11F02F24
:100EE2003F3406345B344F3466346D347D3407341A
:100EF2007F346F3477347C3439345E3479347134EE
:100F02007E088A007F08820081270A128A118000E7
:100F1200840A04087D0603190034FF0A0319FE0A35
:100F2200852FF201F30171087302031D9A2F7008D5
:100F3200720203180800F401F501003075026430F2
:100F4200031974020318B22F0130F4070318F50ACB
:100F52000030F50700307502643003197402031C77
:100F6200A52F0130F2070318F30A0030F307942F7C
:100F7200203084003130F6000408F7001030F80009
:100F82007608840083130008F900F60A77088400C3
:100F920079088000F70AF80BC12F83120313B001FE
:100FA2008316031386018312B00110303002031836
:100FB200D42F3008203E8400831300088600E830D6
:100FC200F0000330F1000A128A1192270A128A11E4
:100FD2000130F600760883120313B007D62F83136D
:100FE2004130FD000730FE007130FF0031308400D7
:0E0FF2000A128A11852783010A128A11B92F6B
:00000001FF
