:060000000A128A11FC2F18
:100F6C00F701831603138501860187018801770831
:100F7C0083120313850077088600770887007708AB
:100F8C008800F430F0000130F1000A128A11D527E4
:100F9C000A128A110130F6007608F707BD2FF2010C
:100FAC00F30171087302031DDD2F70087202031820
:100FBC000800F401F5010030750264300319740265
:100FCC000318F52F0130F4070318F50A0030F50764
:100FDC0000307502643003197402031CE82F0130D1
:100FEC00F2070318F30A0030F307D72F83010A1214
:040FFC008A11B62F71
:00000001FF
