:060000000A128A11FC2F18
:100F4200831203139F018030831603139F0008004E
:100F5200FF30F0070318F10AFF30F107700A031D92
:100F6200A92F710A03190800A92FF401F5018316AC
:100F72000313860188010A128A11A1270A128A1113
:100F82000030F200F3000A128A11D5270A128A11E0
:100F92007308F5007208F4007408831203138600C4
:100FA200750803398800C12F7308803AFF0080302A
:100FB2007F02031DDE2F033072020318E22F01307D
:100FC200E32F00300138831203139F00E830F00052
:100FD2000330F1000A128A11A9270A128A11831218
:100FE20003131F151F19F32F1E08F3008316031393
:0E0FF2001E08F200080083010A128A11B62FB1
:00000001FF
