:060000000A128A11D22F42
:10000A00FC008316031355088312031368020318AE
:10001A0012280A307C06031D17280A128A15232281
:10002A000A128A110A307C06031908007C080A128F
:10003A008A15F0220130FB007B0883120313E807BC
:10004A00080083160313D201D30109308312031364
:10005A00DA005A08A0000A30DB005B08A100FF3072
:10006A00DC005C08A200FF30DD005D08A300FF3061
:10007A00DE005E08A400FF30DF005F08A5000C3038
:10008A00E0006008A6000D30E1006108A7000E300C
:10009A00E2006208A8000F30E3006308A9000830F4
:1000AA000A128A1556260A128A111030831203136D
:1000BA00DA005A08FC0002300A128A152E240A12A3
:1000CA008A11003083120313B3000030B2002530C6
:1000DA00B1008030B0000A128A15F6210A128A117C
:1000EA00213083120313A0008030A1000A128A155E
:1000FA003B220A128A11A0300A128A1525230A12F3
:10010A008A1183120313DA00DB015A0883160313D8
:10011A00D200831203135B0883160313D300A030A3
:10012A0083120313DA005A08C30083160313530811
:10013A0083120313C5008316031352088312031391
:10014A00C40001300A128A11A5230A128A110A125E
:10015A008A15AF210A128A11A03083120313DA001A
:10016A005A08C30083160313530883120313C500E6
:10017A0083160313520883120313C40041300A1270
:10018A008A11BA250A128A118028F4007408F1002B
:10019A0003300310F10CFF3E031DCE287108F20054
:1001AA007208F30074080739F1007108F400912904
:1001BA0070080319F0280130F100740AE6280310C8
:1001CA00F10DFF3E031DE4287108F2007208831244
:1001DA000313850408000130F100740AF62803109D
:1001EA00F10DFF3E031DF4287108FF3AF200720870
:1001FA0083120313850508007008031914290130B6
:10020A00F100740A0A290310F10DFF3E031D0829A3
:10021A007108F20072088312031386040800013081
:10022A00F100740A1A290310F10DFF3E031D182963
:10023A007108FF3AF2007208831203138605080058
:10024A007008031938290130F100740A2E290310A5
:10025A00F10DFF3E031D2C297108F200720883126A
:10026A000313870408000130F100740A3E290310C1
:10027A00F10DFF3E031D3C297108FF3AF200720896
:10028A008312031387050800700803195C290130DB
:10029A00F100740A52290310F10DFF3E031D502983
:1002AA007108F200720883120313880408000130EF
:1002BA00F100740A62290310F10DFF3E031D602943
:1002CA007108FF3AF20072088312031388050800C6
:1002DA007008031980290130F100740A7629031085
:1002EA00F10DFF3E031D74297108F2007208831292
:1002FA000313890408000130F100740A86290310E7
:10030A00F10DFF3E031D84297108FF3AF2007208BD
:10031A0083120313890508007308003A0319DD28BC
:10032A00013A03190129033A03192529013A031944
:10033A004929073A03196D29A229080083120313D0
:10034A00C100C201023041060319EA29EE29240834
:10035A00A9002508AA002608AB002708AC0028082F
:10036A00FF3EAD00AD0A0130AE000030AF00C0293B
:10037A000310AE0DAF0DAD0BBD292E08B0002F082E
:10038A00B1000030B11BFF30B200B3003008A9053C
:10039A003108AA053208AB053308AC052C082B0432
:1003AA002A0429040319DB290130DC290030B400AE
:1003BA003408C2004208303E0A128A1105200A1285
:1003CA008A11013083120313A802280803190800AE
:1003DA00AC292708260425042404031D0A2AC2017D
:1003EA0028084202031808000A30420203180800CB
:1003FA0030300A128A1105200A128A11013083123A
:10040A000313A9002908C207F529C20128084202D4
:10041A000318A02A270826042504240403196A2A93
:10042A004108A9002908A0002708F7002608F600B5
:10043A002508F5002408F4004108AA00AB01AC0124
:10044A00AD012D08F3002C08F2002B08F1002A0850
:10045A00F0000A128A157D240A128A1170080A12FB
:10046A008A15BA210A128A11FF3A013E831203132E
:10047A002407AE004208353E84002E08831380000C
:10048A004108A900AA01AB01AC012C08F3002B0812
:10049A00F2002A08F1002908F0002708F7002608C8
:1004AA00F6002508F5002408F4000A128A157D24AE
:1004BA000A128A11730883120313A7007208A6008E
:1004CA007108A5007008A400762A280A0319A02A30
:1004DA000B3028020318A02A4208353E84008313F1
:1004EA0080010130A9002908C2070B2A4208FF3EF1
:1004FA00353E84000A308313000203188B2A42080F
:10050A00FF3E353E84000008303E912A4208FF3EF5
:10051A00353E84000008373EBF0000300318013022
:10052A00C0003F080A128A1105200A128A110130F6
:10053A0083120313C2024208031908007B2A83129A
:10054A000313C100C201023041060319EB2AEF2A44
:10055A002408A9002508AA002608AB002708AC0031
:10056A002808FF3EAD00AD0A0130AE000030AF00F2
:10057A00C12A0310AE0DAF0DAD0BBE2A2E08B00076
:10058A002F08B1000030B11BFF30B200B3003008B1
:10059A00A9053108AA053208AB053308AC052C08B1
:1005AA002B042A0429040319DC2A0130DD2A00302D
:1005BA00B4003408C2004208303E0A128A159B2150
:1005CA000A128A11013083120313A8022808031998
:1005DA000800AD2A2708260425042404031D0B2B32
:1005EA00C20128084202031808000A30420203180E
:1005FA00080030300A128A159B210A128A1101302A
:10060A0083120313A9002908C207F62AC20128087F
:10061A0042020318A12B27082604250424040319DF
:10062A006B2B4108A9002908A0002708F700260813
:10063A00F6002508F5002408F4004108AA00AB01D9
:10064A00AC01AD012D08F3002C08F2002B08F100D3
:10065A002A08F0000A128A157D240A128A117008E3
:10066A000A128A15BA210A128A11FF3A013E831226
:10067A0003132407AE004208353E84002E08831374
:10068A0080004108A900AA01AB01AC012C08F300C3
:10069A002B08F2002A08F1002908F0002708F700C1
:1006AA002608F6002508F5002408F4000A128A151F
:1006BA007D240A128A11730883120313A700720891
:1006CA00A6007108A5007008A400772B280A031950
:1006DA00A12B0B3028020318A12B4208353E8400B7
:1006EA00831380010130A9002908C2070C2B420894
:1006FA00FF3E353E84000A308313000203188C2B18
:10070A004208FF3E353E84000008303E922B4208E4
:10071A00FF3E353E84000008373EBF000030031814
:10072A000130C0003F080A128A159B210A128A1159
:10073A00013083120313C2024208031908007C2BFA
:10074A0083120313C9004330C6004608D90049087A
:10075A00C6004608D600560884000A128A150A20DE
:10076A000A128A11003A03190800560884000A126C
:10077A008A150A200A128A11C6004608D7002530AF
:10078A005706031DAD2D0130C6004608D607560888
:10079A0084000A128A150A200A128A11C60046081B
:1007AA00D70030305702031C072C3A30570203187F
:1007BA00072CD80130305702031C7B2D3A305702E0
:1007CA0003187B2D0A30C6004608A00058080A12F2
:1007DA008A15BA210A128A11831203135707D03EC7
:1007EA00C7004708D8000130C6004608D607560891
:1007FA0084000A128A150A200A128A11C6004608BB
:10080A00D700DF2BFF30C6004608D8007B2D5908D9
:10081A00840083130008C6004608D7000230C600C9
:10082A004608D907AD2D8312031359088400831390
:10083A000008CE00840A0008CF000230C60046082D
:10084A00D907CF1F332CCE09CF09CE0A0319CF0AF5
:10085A002D300A128A159B210A128A118312031358
:10086A004E08A4004F08A5000030A51BFF30A600C3
:10087A00A7005808C6004608A8000A300A128A11BA
:10088A00A4220A128A11B32D831203135908840071
:10089A0083130008CA00840A0008CB00840A0008EF
:1008AA00CC00840A0008CD000430C6004608D907E7
:1008BA00CD1F702CCA09CB09CC09CD09CA0A031964
:1008CA00CB0A0319CC0A0319CD0A2D300A128A154C
:1008DA009B210A128A11831203134D08A7004C08A0
:1008EA00A6004B08A5004A08A4005808C6004608F6
:1008FA00A8000A300A128A11A4220A128A11B32DF8
:10090A00831203135908840083130008D400840A4D
:10091A000008D5000230C6004608D9075408A400CA
:10092A005508A500A601A7015808C6004608A80050
:10093A000A300A128A11A4220A128A11B32D8312CA
:10094A0003135908840083130008D000840A00089E
:10095A00D100840A0008D200840A0008D3000430B7
:10096A00C6004608D9075308A7005208A60051082E
:10097A00A5005008A4005808C6004608A8000A3076
:10098A000A128A11A4220A128A11B32D831203139E
:10099A005908840083130008D400840A0008D5008B
:1009AA000230C6004608D9075408A4005508A50015
:1009BA00A601A7015808C6004608A80010300A1266
:1009CA008A11A4220A128A11B32D83120313590819
:1009DA00840083130008D000840A0008D100840A26
:1009EA000008D200840A0008D3000430C600460872
:1009FA00D9075308A7005208A6005108A5005008B5
:100A0A00A4005808C6004608A80010300A128A1125
:100A1A00A4220A128A11B32D8312031359088400DF
:100A2A0083130008D400840A0008D5000230C600E7
:100A3A004608D907580A031D262D1030C600460855
:100A4A00D8005408A4005508A500A601A701580813
:100A5A00C6004608A80002300A128A11A4220A1205
:100A6A008A11B32D831203135908840083130008D3
:100A7A00D000840A0008D100840A0008D200840A3F
:100A8A000008D3000430C6004608D907580A031DD7
:100A9A00522D2030C6004608D8005308A700520835
:100AAA00A6005108A5005008A4005808C600460828
:100ABA00A80002300A128A11A4220A128A11B32D3E
:100ACA00831203135908840083130008C6004608DA
:100ADA00C8000130C6004608D90748080A128A1514
:100AEA00E1210A128A11B32D2530AE2D8312031388
:100AFA005708253A0319792D673A0319372D013A10
:100B0A0003190C2C073A0319492C023A0319B32D7D
:100B1A00153A0319652D063A0319A42C0D3A03193F
:100B2A00EA2C3A3A0319112D013A03190C2C073A07
:100B3A000319182C023A0319B32D153A0319652D16
:100B4A00063A0319852C0D3A0319CB2CB32DB32D74
:100B5A0057080A128A159B210A128A110130831238
:100B6A000313C6004608D607B02B83120313C90025
:100B7A004330C6004608D9004908C6004608D600D0
:100B8A00560884000A128A150A200A128A11003AA3
:100B9A0003190800560884000A128A150A200A1244
:100BAA008A11C6004608D70025305706031DC52FEF
:100BBA000130C6004608D607560884000A128A156C
:100BCA000A200A128A11C6004608D7003030570296
:100BDA00031C1C2E3A30570203181C2ED801303041
:100BEA005702031C932F3A3057020318932F0A30E7
:100BFA00C6004608A00058080A128A15BA210A1225
:100C0A008A11831203135707D03EC7004708D8003A
:100C1A000130C6004608D607560884000A128A150B
:100C2A000A200A128A11C6004608D700F42DFF309E
:100C3A00C6004608D800932F590884008313000879
:100C4A00C6004608D7000230C6004608D907C52F95
:100C5A00831203135908840083130008CE00840A00
:100C6A000008CF000230C6004608D907CF1F482E19
:100C7A00CE09CF09CE0A0319CF0A2D300A128A11DA
:100C8A0005200A128A11831203134E08A4004F0882
:100C9A00A5000030A51BFF30A600A7005808C60013
:100CAA004608A8000A300A128A11A3210A128A11D8
:100CBA00CB2F831203135908840083130008CA0038
:100CCA00840A0008CB00840A0008CC00840A0008C1
:100CDA00CD000430C6004608D907CD1F852ECA09A3
:100CEA00CB09CC09CD09CA0A0319CB0A0319CC0AC4
:100CFA000319CD0A2D300A128A1105200A128A1107
:100D0A00831203134D08A7004C08A6004B08A50040
:100D1A004A08A4005808C6004608A8000A300A1261
:100D2A008A11A3210A128A11CB2F8312031359089D
:100D3A00840083130008D400840A0008D500023016
:100D4A00C6004608D9075408A4005508A500A601FC
:100D5A00A7015808C6004608A8000A300A128A11D4
:100D6A00A3210A128A11CB2F831203135908840074
:100D7A0083130008D000840A0008D100840A0008FE
:100D8A00D200840A0008D3000430C6004608D907F6
:100D9A005308A7005208A6005108A5005008A4004D
:100DAA005808C6004608A8000A300A128A11A32168
:100DBA000A128A11CB2F8312031359088400831352
:100DCA000008D400840A0008D5000230C60046088C
:100DDA00D9075408A4005508A500A601A701580878
:100DEA00C6004608A80010300A128A11A3210A1266
:100DFA008A11CB2F83120313590884008313000826
:100E0A00D000840A0008D100840A0008D200840AAB
:100E1A000008D3000430C6004608D9075308A700C3
:100E2A005208A6005108A5005008A4005808C60098
:100E3A004608A80010300A128A11A3210A128A1140
:100E4A00CB2F831203135908840083130008D4009C
:100E5A00840A0008D5000230C6004608D907580A95
:100E6A00031D3B2F1030C6004608D8005408A400C2
:100E7A005508A500A601A7015808C6004608A800FB
:100E8A0002300A128A11A3210A128A11CB2F831265
:100E9A0003135908840083130008D000840A000849
:100EAA00D100840A0008D200840A0008D300043062
:100EBA00C6004608D907580A031D672F1030C60016
:100ECA004608D8005308A7005208A6005108A500F2
:100EDA005008A4005808C6004608A80002300A12A2
:100EEA008A11A3210A128A11CB2F831203135908DC
:100EFA00840083130008C6004608C8000130C600F3
:100F0A004608D9074808A0000030A1000A128A152D
:100F1A003B220A128A11CB2F2530C62F83120313C4
:100F2A005708253A0319912F673A03194C2F013AAA
:100F3A000319212E073A03195E2E023A0319CB2F01
:100F4A00153A03197A2F063A0319B92E0D3A0319DD
:100F5A00FF2E3A3A0319262F013A0319212E073A8E
:100F6A0003192D2E023A0319CB2F153A03197A2F9A
:100F7A00063A03199A2E0D3A0319E02ECB2FCB2FDE
:100F8A0057080A128A1105200A128A11013083129F
:100F9A000313C6004608D607C52DE801E9018316E2
:100FAA000313D401D501D601D701D801D901DA0139
:100FBA00DB01DC01DD01DE01DF01E001E101831279
:100FCA0003130A128A1590210A128A11E4000A12DE
:100FDA008A1591210A128A11E5000A128A159221AC
:100FEA000A128A11E6000A128A159321E700830180
:100FFA000A128A112628FF1B0A2883137F188317CF
:10100A000008840A0319FF0A080008308A00040845
:10101A00840A82070034523465346334653469348F
:10102A007634653464342034533474347234693415
:10103A006E3467343A3425347334203420342034FF
:10104A00733469347A3465343D3425343234643443
:10105A000A340D340034733465346E346434203405
:10106A0064346134743461342034663472346F34D5
:10107A006D34203420347334653472346934613405
:10108A006C3420347434653472346D3469346E349B
:10109A0061346C3400347334743472343A34253421
:1010AA0073342034733469347A3465343D342534E6
:0610BA00323464340034FE
:101320008034C0349034D034831203138C1E94293B
:101330008C121A080800F000831203130C1E9C295B
:101340000C12700899000800700871040319080055
:101350000130F0020030031CF103F102A429013036
:101360000A128A15BB220A128A1500300A128A153F
:101370000C22080083120313A300A201231CC4291A
:101380002008A1002108A2070310A00D0310A30C40
:101390002308031DBE2922080800720873040319DC
:1013A00008002C30F0000130F1000A128A15A42147
:1013B0000A128A150130F2020030031CF303F30213
:1013C000CD29F20072088400831300080319080075
:1013D00072088400831300080A128A159B210A12DE
:1013E0008A150130F1007108F207E2298030831676
:1013F0000313870020309800903083120313980065
:101400003308A3003208A2003108A1003008A00070
:101410000A128A1550250800FB008316031354088E
:101420007B020318080083120313E8017B08FA000B
:101430007A08E9007B08643E8400831300080A12DE
:101440008A15BB2208000130FA007A0883120313C0
:10145000E907E80183160313540883120313690292
:101460000318E9016908643E8400831300080A1226
:101470008A15BB220800831203132108FF002008ED
:1014800084000A128A1500200A128A15003A0319EC
:101490000800831203132108FF00200884000A12A9
:1014A0008A1500200A128A150A128A1105200A12CA
:1014B0008A15013083120313A0070318A10A3B2ADF
:1014C000F0018316031357080A128A11CA200A1260
:1014D0008A15F0018316031358080A128A11CA20CC
:1014E0000A128A15F001F00A8316031359080A122A
:1014F0008A11CA200A128A150A30F0000030F10061
:101500000A128A15A4210A128A15F0018316031300
:1015100059080A128A11CA200800F001F00A83163D
:10152000031357080A128A11CA200A128A15F001F9
:101530008316031358080A128A11CA200A128A1540
:10154000F001F00A8316031359080A128A11CA20FF
:101550000A128A150A30F0000030F1000A128A15CA
:10156000A4210A128A15F0018316031359080A12DE
:101570008A11CA200800F9000A128A15CA250A121F
:101580008A150830831603135606031DCE2A7908E0
:101590000A128A159F230A128A15E62A79080A1266
:1015A0008A155F230A128A150A128A1560220A1206
:1015B0008A157908F70003300310F70DFF3E031D6D
:1015C000DC2A0310770DF8007808F90079080A1270
:1015D0008A155F230A128A150A128A1560220800EA
:1015E000F9000A128A15CA250A128A1508308316CC
:1015F00003135606031D032B79080A128A159F232D
:101600000A128A151B2B79080A128A155F230A12FF
:101610008A150A128A158D220A128A157908F7008E
:1016200003300310F70DFF3E031D112B0310770D40
:10163000F8007808F90079080A128A155F230A125F
:101640008A150A128A158D220800F300F401402B36
:1016500008307506031D322B74080319322B013034
:10166000F402402B7508F10074087307F200720849
:1016700084007108831380000130F1007108F407C1
:101680000A128A1594210A128A15F1007108F500D0
:1016900075080A128A159B210A128A150D307506E3
:1016A0000319562B0A307506031D282B740873077F
:1016B000F100710884008313800174080800F600AB
:1016C000761E642B0130652B0030F5007508F000A4
:1016D000831603135E080A128A11CA200A128A1599
:1016E000F61E742B0130752B0030F5007508F000E4
:1016F000831603135F080A128A11CA200A128A1578
:10170000761F842B0130852B0030F5007508F00022
:101710008316031360080A128A11CA200A128A1556
:10172000F61F942B0130952B0030F5007508F00062
:101730008316031361080A128A11CA200800F600F2
:10174000761CA42B0130A52B0030F5007508F000A5
:10175000831603135A080A128A11CA200A128A151C
:10176000F61CB42B0130B52B0030F5007508F000E5
:10177000831603135B080A128A11CA200A128A15FB
:10178000761DC42B0130C52B0030F5007508F00024
:10179000831603135C080A128A11CA200A128A15DA
:1017A000F61DD42B0130D52B0030F5007508F00064
:1017B000831603135D080A128A11CA20080030300C
:1017C0000A128A155F230A128A150A128A156022E4
:1017D0000A128A156430F2000030F3000A128A15EA
:1017E000CD210A128A1530300A128A155F230A1297
:1017F0008A150A128A1560220A128A15C830F0006A
:101800000030F1000A128A15A4210A128A1530301C
:101810000A128A155F230A128A150A128A15602293
:101820000A128A15C830F0000030F1000A128A1539
:10183000A4210A128A1520300A128A155F230A127F
:101840008A150A128A1560220A128A15C830F00019
:101850000030F1000A128A15A42108008312031334
:10186000A0007C08FD007D0883160313D5008312B9
:1018700003132008FD007D0883160313D4000330F2
:10188000831203132002031C512C7C080F39903E55
:10189000FD007D08E6007C080F39D03EFD007D0884
:1018A000E7006430F2000030F3000A128A15CD21FF
:1018B0000A128A150830831603135606031D622C7C
:1018C00038306E2C0430831603135606031D732C18
:1018D0000A128A15DF230A128A1528300A128A157D
:1018E000BB220A128A150E300A128A15BB220A126E
:1018F0008A150A128A15AF2108000030FC0000305A
:10190000FB000030FA000030F90073087204710423
:1019100070040319D22CFD01FD0AF31B9D2C01302C
:10192000F8000310F00DF10DF20DF30DF80B912CF2
:101930000130F8007808FD078D2C0130F800031005
:10194000F90DFA0DFB0DFC0DF80B9F2C73087702B7
:10195000031DB42C72087602031DB42C71087502A5
:10196000031DB42C70087402031CC52C7008F4020B
:101970007108031C710FF5027208031C720FF60246
:101980007308031C730FF702791401300310F30C72
:10199000F20CF10CF00CFF3E031DC62C0130FD02D1
:1019A000031D9D2C7C08F3007B08F2007A08F100EF
:1019B0007908F0000800F400F3017408F000033027
:1019C0000310F00CFF3E031DE02C7008F1007108BD
:1019D000F20074080739F0007008F4003D2D013062
:1019E000F000740AF52C0310F00DFF3E031DF32CDC
:1019F0007008831203130505342D0130F000740ABA
:101A0000032D0310F00DFF3E031D012D70088312FE
:101A100003130605342D0130F000740A112D031054
:101A2000F00DFF3E031D0F2D7008831203130705F1
:101A3000342D0130F000740A1F2D0310F00DFF3E0D
:101A4000031D1D2D7008831203130805342D01306A
:101A5000F000740A2D2D0310F00DFF3E031D2B2DF9
:101A600070088312031309050319382D0130392D2D
:101A70000030F1007108F3004E2D7208003A03198E
:101A8000EF2C013A0319FD2C033A03190B2D013AEF
:101A90000319192D073A0319272D4E2D7308080035
:101AA000831203132308031D622D2208031D622DD8
:101AB00009302102031D602D60302002031D602DBE
:101AC000031CBD2D2308031DBD2D01302202031D63
:101AD000712DC2302102031D712D01302002031D22
:101AE000712D0318BD2DFF30A400FF30A500FF307D
:101AF000A600FF30A7002008A8002108A90022089E
:101B0000AA002308AB0006300310A80DA90DAA0DEA
:101B1000AB0DFF3E031D842D2B08F3002A08F200B5
:101B20002908F1002808F0000130F7003130F600F4
:101B30002D30F5000030F4000A128A157D240A12B7
:101B40008A15700883120313A40771080318710F14
:101B5000AA2DAB2DA50772080318720FB02DB12D59
:101B6000A60773080318730AA7072708AF002608FB
:101B7000AE002508AD002408C42D0030AF000030B1
:101B8000AE000030AD001F30AC002C0883160313EC
:101B90009900080083160313580A031D4E2EF00106
:101BA000F00A61080A128A1527270A128A15F0011D
:101BB0008316031357080A128A11CA200A128A15BB
:101BC000F001F00A8316031358080A128A11CA207A
:101BD0000A128A15F0018316031359080A128A1192
:101BE000CA200A128A150A30F0000030F1000A12E9
:101BF0008A15A4210A128A15F001F00A831603132C
:101C000059080A128A11CA200A128A150A30F000ED
:101C10000030F1000A128A15A4210A128A158316CF
:101C2000031361080A128A15DB240A128A15F500CB
:101C30007508F6000430831603135606031D432E61
:101C4000F00159080A128A11CA200A128A150A30AC
:101C5000F0000030F1000A128A15A4210A128A1538
:101C6000F001F00A8316031359080A128A11CA20D8
:101C70000A128A150A30F0000030F1000A128A15A3
:101C8000A4210A128A157608031DEA2DF001831695
:101C9000031361080A128A15272708000130F20091
:101CA0000030F3000A128A15CD210800F6007608EC
:101CB000F500750883160313D70083120313200859
:101CC000F500750883160313D80083120313210847
:101CD000F500750883160313D90083120313220835
:101CE000F500750883160313DA0083120313230823
:101CF000F500750883160313DB0083120313240811
:101D0000F500750883160313DC00831203132508FE
:101D1000F500750883160313DD00831203132608EC
:101D2000F500750883160313DE00831203132708DA
:101D3000F500750883160313DF00831203132808C8
:101D4000F500750883160313E000831203132908B6
:101D5000F500750883160313E10083120313220AAA
:101D60000319BA2E230A0319BA2E240A031D250AC1
:101D7000031DC12E0430F500750883160313D60029
:101D8000EB2E0830F500750883160313D600F0011A
:101D90008312031322080A128A1527270A128A15AA
:101DA000F0018312031323080A128A1527270A1247
:101DB0008A15F0018312031324080A128A152727B3
:101DC0000A128A15F0018312031325080A128A15D4
:101DD00027270A128A15F00176080A128A15272782
:101DE0000A128A15F0018312031320080A128A15B9
:101DF00027270A128A15F0018312031321080A12F9
:101E00008A1527270A128A15F00183120313260860
:101E10000A128A1527270A128A15F0018312031362
:101E200027080A128A1527270A128A15F001831239
:101E3000031328080A128A1527270A128A15F001A7
:101E40008312031329080A128A1527270800F400B1
:101E50007408F10003300310F10CFF3E031D2B2F1B
:101E60007108F2007208F30074080739F100710874
:101E7000F400EE2F700803194D2F0130F100740AA1
:101E8000432F0310F10DFF3E031D412F7108F20097
:101E9000720883160313850408000130F100740AE8
:101EA000532F0310F10DFF3E031D512F7108FF3A10
:101EB000F2007208831603138505080070080319E1
:101EC000712F0130F100740A672F0310F10DFF3EEE
:101ED000031D652F7108F200720883160313860430
:101EE00008000130F100740A772F0310F10DFF3E56
:101EF000031D752F7108FF3AF20072088316031351
:101F00008605080070080319952F0130F100740A46
:101F10008B2F0310F10DFF3E031D892F7108F20076
:101F2000720883160313870408000130F100740A55
:101F30009B2F0310F10DFF3E031D992F7108FF3AEF
:101F4000F20072088316031387050800700803194E
:101F5000B92F0130F100740AAF2F0310F10DFF3ECD
:101F6000031DAD2F7108F200720883160313880455
:101F700008000130F100740ABF2F0310F10DFF3E7D
:101F8000031DBD2F7108FF3AF20072088316031378
:101F90008805080070080319DD2F0130F100740A6C
:101FA000D32F0310F10DFF3E031DD12F7108F20056
:101FB000720883160313890408000130F100740AC3
:101FC000E32F0310F10DFF3E031DE12F7108FF3ACF
:101FD000F200720883160313890508007308003A9B
:101FE00003193A2F013A03195E2F033A0319822F7E
:101FF000013A0319A62F073A0319CA2FFF2F080029
:02400E00BA3FB7
:00000001FF
