:060000000A128A11F02F24
:100CFC0047346F346F34643420346D346F34723451
:100D0C006E3469346E346734213400347E088A00C2
:100D1C007F0882008C260A128A118000840A04083B
:100D2C007D0603190034FF0A0319FE0A902EF30105
:100D3C00F4017408803AF2007108803A7202031DC3
:100D4C00A92E70087302031808000130F30703186A
:100D5C00F40A0030F4079F2EF6007608F03983125F
:100D6C00031386000614FD30F5007508860506157C
:100D7C00E830F0000330F1000A128A119D260A12A5
:100D8C008A11FB30F50075088312031386051030A9
:100D9C00F0002730F1000A128A119D260A128A11DE
:100DAC007608F50003300310F50DFF3E031DD92E18
:100DBC000310750DF0398312031386000614FD30F1
:100DCC00F500750886050615E830F0000330F100D3
:100DDC000A128A119D260A128A11FB30F500750839
:100DEC008312031386051030F0002730F1000A122D
:100DFC008A119D260800F6007608F0398312031339
:100E0C008600FE30F50075088605FD30F500750886
:100E1C0086050615E830F0000330F1000A128A113D
:100E2C009D260A128A11FB30F500750883120313F4
:100E3C0086051030F0002730F1000A128A119D2629
:100E4C000A128A117608F50003300310F50DFF3EE7
:100E5C00031D2B2F0310750DF0398312031386001D
:100E6C00FE30F50075088605FD30F5007508860521
:100E7C000615E830F0000330F1000A128A119D26A5
:100E8C000A128A11FB30F5007508831203138605CC
:100E9C001030F0002730F1000A128A119D2608004C
:100EAC00203084002F30F7000408F8000E30F900D1
:100EBC007708840083130008FA00F70A7808840086
:100ECC007A088000F80AF90B5E2F8316031386014B
:100EDC0002300A128A1101270A128A1128300A12CA
:100EEC008A1101270A128A110E300A128A1101275F
:100EFC000A128A1101300A128A1101270A128A1168
:100F0C0080300A128A1101270A128A1148300A12FB
:100F1C008A11B2260A128A1165300A128A11B22677
:100F2C000A128A116C300A128A11B2260A128A111C
:100F3C006C300A128A11B2260A128A116F300A1208
:100F4C008A11B2260A128A1120300A128A11B2268C
:100F5C000A128A1177300A128A11B2260A128A11E1
:100F6C006F300A128A11B2260A128A1172300A12D2
:100F7C008A11B2260A128A116C300A128A11B22610
:100F8C000A128A1164300A128A11B2260A128A11C4
:100F9C00C0300A128A1101270A128A118312031314
:100FAC00AE012E08203E8400831300080319EF2F96
:100FBC002E08203E8400831300080A128A11B226E0
:100FCC000A128A110130F700770883120313AE0757
:100FDC00D72FEF2F83133D30FD000630FE007E30FF
:100FEC00FF002F3084000A128A11902683010A1206
:040FFC008A11562FD1
:00000001FF
