:100000000A128A11DD2F00308A000408840A820750
:1000100000344534783470346C346F347234653461
:10002000203445346D34623465346434643465346A
:10003000643400344C3463346434203438342D3424
:1000400062346934743420344D346F34643465342C
:0200500000347A
:10038E008034C0349034D03464008001840A040672
:10039E00031900340406CC297008710403190800EF
:1003AE000130F0020030031CF103F102D3290130B9
:1003BE000A128A11C0220A128A1100300A128A11F8
:1003CE001122080072087304031908002C30F00083
:1003DE000130F1000A128A11D3210A128A1101305A
:1003EE00F2020030031CF303F302E9290130FA0094
:1003FE007A0883120313C307C20134084302031899
:10040E00C3014308443E8400831300080A128A1174
:10041E00C0220800FB008312031334087B0203186A
:10042E000800C2017B08FA007A08C3007B08443E2C
:10043E008400831300080A128A11C0220800FC00EF
:10044E0083120313350842020318312A0A307C0640
:10045E00031D362A0A128A11FD210A128A110A3048
:10046E007C06031908007C080A128A11F522013055
:10047E00FB007B0883120313C207080083120313C9
:10048E00A000200884000A128A1103200A128A1181
:10049E00003A03190800200884000A128A1103206A
:1004AE000A128A110A128A1126220A128A110130A0
:1004BE00FD007D0883120313A007482AF001831262
:1004CE00031337080A128A1104270A128A11F0013F
:1004DE008312031338080A128A1104270A128A118A
:1004EE00F001F00A8312031339080A128A11042745
:1004FE000A128A110A30F0000030F1000A128A1135
:10050E00D3210A128A11F0018312031339080A1239
:10051E008A1104270800F001F00A8312031337082A
:10052E000A128A1104270A128A11F0018312031388
:10053E0038080A128A1104270A128A11F001F00AE9
:10054E008312031339080A128A1104270A128A1118
:10055E000A30F0000030F1000A128A11D3210A127B
:10056E008A11F0018312031339080A128A11042723
:10057E000800F9000A128A11FE240A128A110830A4
:10058E00831203133606031DD32A79080A128A1121
:10059E006A230A128A11EB2A79080A128A112A236F
:1005AE000A128A110A128A1165220A128A11790810
:1005BE00F70003300310F70DFF3E031DE12A031071
:1005CE00770DF8007808F90079080A128A112A23A3
:1005DE000A128A110A128A1165220800F9000A12FB
:1005EE008A11FE240A128A1108308312031336066A
:1005FE00031D082B79080A128A116A230A128A111E
:10060E00202B79080A128A112A230A128A110A1239
:10061E008A1192220A128A117908F7000330031008
:10062E00F70DFF3E031D162B0310770DF80078080B
:10063E00F90079080A128A112A230A128A110A125B
:10064E008A1192220800F600761E2F2B0130302BD5
:10065E000030F5007508F000831203133E080A12ED
:10066E008A1104270A128A11F61E3F2B0130402BE5
:10067E000030F5007508F000831203133F080A12CC
:10068E008A1104270A128A11761F4F2B0130502B24
:10069E000030F5007508F0008312031340080A12AB
:1006AE008A1104270A128A11F61F5F2B0130602B64
:1006BE000030F5007508F0008312031341080A128A
:1006CE008A1104270800F600761C6F2B0130702B60
:1006DE000030F5007508F000831203133A080A1271
:1006EE008A1104270A128A11F61C7F2B0130802BE7
:1006FE000030F5007508F000831203133B080A1250
:10070E008A1104270A128A11761D8F2B0130902B25
:10071E000030F5007508F000831203133C080A122E
:10072E008A1104270A128A11F61D9F2B0130A02B65
:10073E000030F5007508F000831203133D080A120D
:10074E008A110427080083120313A0007C08FD0001
:10075E007D08B5002008FD007D08B400033020029E
:10076E00031CC52B7C080F39903EFD007D08C6008A
:10077E007C080F39D03EFD007D08C7006430F200C2
:10078E000030F3000A128A11E9210A128A11083088
:10079E00831203133606031DD62B3830E22B04309A
:1007AE00831203133606031DE72B0A128A113A240D
:1007BE000A128A1128300A128A11C0220A128A11CC
:1007CE000E300A128A11C0220A128A110A128A11D6
:1007DE00DE210800193083120313AA002A08A00094
:1007EE001A30AB002B08A1000830AC002C08A20078
:1007FE000930AD002D08A3000A30AE002E08A4006B
:10080E000B30AF002F08A5000C30B0003008A6004A
:10081E000D30B1003108A7000E30B2003208A8002A
:10082E000F30B3003308A90018300A128A118A2536
:10083E000A128A11103083120313AA002A08FC0030
:10084E0002300A128A11AA230A128A1101300A12E0
:10085E008A1145220A128A1112300A128A11452271
:10086E000A128A11392C30300A128A112A230A12DE
:10087E008A110A128A1165220A128A116430F20054
:10088E000030F3000A128A11E9210A128A1130305F
:10089E000A128A112A230A128A110A128A11652251
:1008AE000A128A11C830F0000030F1000A128A11C3
:1008BE00D3210A128A1130300A128A112A230A12FF
:1008CE008A110A128A1165220A128A11C830F000A2
:1008DE000030F1000A128A11D3210A128A11203037
:1008EE000A128A112A230A128A110A128A11652201
:1008FE000A128A11C830F0000030F1000A128A1173
:10090E00D3210800F400F3017408F0000330031043
:10091E00F00CFF3E031D8E2C7008F1007108F200E2
:10092E0074080739F0007008F400EB2C0130F00069
:10093E00740AA32C0310F00DFF3E031DA12C7008AA
:10094E00831203130505E22C0130F000740AB12C5A
:10095E000310F00DFF3E031DAF2C7008831203131E
:10096E000605E22C0130F000740ABF2C0310F00DC6
:10097E00FF3E031DBD2C7008831203130705E22CE6
:10098E000130F000740ACD2C0310F00DFF3E031D54
:10099E00CB2C7008831203130805E22C0130F000F3
:1009AE00740ADB2C0310F00DFF3E031DD92C7008CA
:1009BE008312031309050319E62C0130E72C0030CE
:1009CE00F1007108F300FC2C7208003A03199D2CFB
:1009DE00013A0319AB2C033A0319B92C013A031946
:1009EE00C72C073A0319D52CFC2C73080800831268
:1009FE000313380A0319822DF001F00A41080A1276
:100A0E008A112B260A128A11F0018312031337085A
:100A1E000A128A1104270A128A11F001F00A8312AF
:100A2E00031338080A128A1104270A128A11F001D8
:100A3E008312031339080A128A1104270A128A1123
:100A4E000A30F0000030F1000A128A11D3210A1286
:100A5E008A11F001F00A8312031339080A128A115F
:100A6E0004270A128A110A30F0000030F1000A122F
:100A7E008A11D3210A128A118312031341080A1212
:100A8E008A1189240A128A11F5007508F6000430BD
:100A9E00831203133606031D772DF00139080A124F
:100AAE008A1104270A128A110A30F0000030F10070
:100ABE000A128A11D3210A128A11F001F00A831246
:100ACE00031339080A128A1104270A128A110A30EE
:100ADE00F0000030F1000A128A11D3210A128A1195
:100AEE007608031D1E2DF0018312031341080A120E
:100AFE008A112B2608000130F2000030F3000A1292
:100B0E008A11E9210800F6007608F50075088312AF
:100B1E000313B7002008F5007508B8002108F5008A
:100B2E007508B9002208F5007508BA002308F5000B
:100B3E007508BB002408F5007508BC002508F500F3
:100B4E007508BD002608F5007508BE002708F500DB
:100B5E007508BF002808F5007508C0002908F500C3
:100B6E007508C100220A0319C42D230A0319C42DC6
:100B7E00240A031D250A031DC92D0430F50075082E
:100B8E00B600EF2D0830F5007508B600F00122080A
:100B9E000A128A112B260A128A11F00183120313EC
:100BAE0023080A128A112B260A128A11F0018312C7
:100BBE00031324080A128A112B260A128A11F00135
:100BCE008312031325080A128A112B260A128A1180
:100BDE00F00176080A128A112B260A128A11F001E8
:100BEE008312031320080A128A112B260A128A1165
:100BFE00F0018312031321080A128A112B260A12FE
:100C0E008A11F0018312031326080A128A112B2669
:100C1E000A128A11F0018312031327080A128A118D
:100C2E002B260A128A11F0018312031328080A12C6
:100C3E008A112B260A128A11F00183120313290836
:100C4E000A128A112B260800F4007408F1000330F2
:100C5E000310F10CFF3E031D2F2E7108F2007208D7
:100C6E00F30074080739F1007108F400F22E7008D1
:100C7E000319512E0130F100740A472E0310F10DA5
:100C8E00FF3E031D452E7108F200720883160313F2
:100C9E00850408000130F100740A572E0310F10D7F
:100CAE00FF3E031D552E7108FF3AF200720883169F
:100CBE0003138505080070080319752E0130F10025
:100CCE00740A6B2E0310F10DFF3E031D692E710881
:100CDE00F200720883160313860408000130F10037
:100CEE00740A7B2E0310F10DFF3E031D792E710841
:100CFE00FF3AF20072088316031386050800700887
:100D0E000319992E0130F100740A8F2E0310F10D84
:100D1E00FF3E031D8D2E7108F20072088316031319
:100D2E00870408000130F100740A9F2E0310F10DA4
:100D3E00FF3E031D9D2E7108FF3AF20072088316C6
:100D4E0003138705080070080319BD2E0130F1004A
:100D5E00740AB32E0310F10DFF3E031DB12E710860
:100D6E00F200720883160313880408000130F100A4
:100D7E00740AC32E0310F10DFF3E031DC12E710820
:100D8E00FF3AF200720883160313880508007008F4
:100D9E000319E12E0130F100740AD72E0310F10D64
:100DAE00FF3E031DD52E7108F20072088316031341
:100DBE00890408000130F100740AE72E0310F10DCA
:100DCE00FF3E031DE52E7108FF3AF20072088316EE
:100DDE000313890508007308003A03193E2E013AE1
:100DEE000319622E033A0319862E013A0319AA2E0D
:100DFE00073A0319CE2E032F0800F4007408F100F1
:100E0E0003300310F10CFF3E031D082F7108F20092
:100E1E007208F30074080739F1007108F400CB2F43
:100E2E00700803192A2F0130F100740A202F0310C5
:100E3E00F10DFF3E031D1E2F7108F2007208831282
:100E4E000313850408000130F100740A302F0310DB
:100E5E00F10DFF3E031D2E2F7108FF3AF2007208AE
:100E6E008312031385050800700803194E2F0130F5
:100E7E00F100740A442F0310F10DFF3E031D422FA3
:100E8E007108F20072088312031386040800013001
:100E9E00F100740A542F0310F10DFF3E031D522F63
:100EAE007108FF3AF20072088312031386050800D8
:100EBE0070080319722F0130F100740A682F0310A5
:100ECE00F10DFF3E031D662F7108F20072088312AA
:100EDE000313870408000130F100740A782F031001
:100EEE00F10DFF3E031D762F7108FF3AF2007208D6
:100EFE00831203138705080070080319962F01301B
:100F0E00F100740A8C2F0310F10DFF3E031D8A2F82
:100F1E007108F2007208831203138804080001306E
:100F2E00F100740A9C2F0310F10DFF3E031D9A2F42
:100F3E007108FF3AF2007208831203138805080045
:100F4E0070080319BA2F0130F100740AB02F031084
:100F5E00F10DFF3E031DAE2F7108F20072088312D1
:100F6E000313890408000130F100740AC02F031026
:100F7E00F10DFF3E031DBE2F7108FF3AF2007208FD
:100F8E0083120313890508007308003A0319172FFB
:100F9E00013A03193B2F033A03195F2F013A031944
:100FAE00832F073A0319A72FDC2F08008313343041
:100FBE00840044300A128A11CB210A128A110A12B5
:100FCE008A11C7210A128A11C4000A128A11C82175
:100FDE000A128A11C5000A128A11C9210A128A112F
:100FEE00C6000A128A11CA21C70083010A128A1189
:020FFE00F12BD5
:02400E00BA3FB7
:00000001FF
