:100000000A128A11FC2F00308A000408840A820731
:100010000034573465346C3463346F346D34653474
:10002000203474346F342034503449344334203411
:10003000533465347234693461346C342034503450
:1000400072346F346734723461346D346D346934B2
:100050006E34673420346234793420344534783453
:1000600070346C346F347234653445346D346234BA
:10007000653464346434653464340A340D340034D3
:10075800F000831203130C1EAD2B0C1270089900C5
:10076800080083120313A300A201231CBF2B200837
:10077800A1002108A2070310A00D0310A30C230851
:10078800031DB92B22080800F200720884008313A5
:1007980000080319080072088400831300080A126D
:1007A8008A11AC230A128A110130F1007108F2078C
:1007B800C92B8030831603138700203098009030AF
:1007C8008312031398003308A3003208A2003108EB
:1007D800A1003008A0000A128A116724080000301E
:1007E80083120313B3000030B2002530B10080300B
:1007F800B0000A128A11DD230A128A1101300A1286
:100808008A11E2250A128A11022C0030FC000030FD
:10081800FB000030FA000030F9007308720471041C
:10082800700403195E2CFD01FD0AF31B292C01300D
:10083800F8000310F00DF10DF20DF30DF80B1D2C5F
:100848000130F8007808FD07192C0130F800031072
:10085800F90DFA0DFB0DFC0DF80B2B2C7308770224
:10086800031D402C72087602031D402C7108750286
:10087800031D402C70087402031C512C7008F402EC
:100888007108031C710FF5027208031C720FF6023F
:100898007308031C730FF702791401300310F30C6B
:1008A800F20CF10CF00CFF3E031D522C0130FD023E
:1008B800031D292C7C08F3007B08F2007A08F1005C
:1008C8007908F0000800831203132308031D792C0C
:1008D8002208031D792C09302102031D772C603072
:1008E8002002031D772C031CD42C2308031DD42CB1
:1008F80001302202031D882CC2302102031D882CDE
:1009080001302002031D882C0318D42CFF30A400CA
:10091800FF30A500FF30A600FF30A7002008A80080
:100928002108A9002208AA002308AB0006300310FA
:10093800A80DA90DAA0DAB0DFF3E031D9B2C2B087E
:10094800F3002A08F2002908F1002808F000013015
:10095800F7003130F6002D30F5000030F4000A12AF
:100968008A1109240A128A11700883120313A40732
:1009780071080318710FC12CC22CA507720803183F
:10098800720FC72CC82CA60773080318730AA70789
:100998002708AF002608AE002508AD002408DB2C88
:1009A8000030AF000030AE000030AD001F30AC00AA
:1009B8002C08831603139900080083120313C1003F
:1009C800C201023041060319282D2C2D2408A90044
:1009D8002508AA002608AB002708AC002808FF3E17
:1009E800AD00AD0A0130AE000030AF00FE2C0310A0
:1009F800AE0DAF0DAD0BFB2C2E08B0002F08B100CB
:100A08000030B11BFF30B200B3003008A90531082F
:100A1800AA053208AB053308AC052C082B042A04B8
:100A280029040319192D01301A2D0030B400340897
:100A3800C2004208303E0A128A11AC230A128A11F7
:100A4800013083120313A802280803190800EA2CAE
:100A58002708260425042404031D482DC20128085C
:100A68004202031808000A30420203180800303016
:100A78000A128A11AC230A128A1101308312031355
:100A8800A9002908C207332DC20128084202031809
:100A9800DE2D27082604250424040319A82D41085F
:100AA800A9002908A0002708F7002608F60025084D
:100AB800F5002408F4004108AA00AB01AC01AD011F
:100AC8002D08F3002C08F2002B08F1002A08F0008A
:100AD8000A128A1109240A128A1170080A128A1144
:100AE800B5230A128A11FF3A013E83120313240721
:100AF800AE004208353E84002E088313800041086A
:100B0800A900AA01AB01AC012C08F3002B08F200E4
:100B18002A08F1002908F0002708F7002608F6003F
:100B28002508F5002408F4000A128A1109240A127B
:100B38008A11730883120313A7007208A6007108AC
:100B4800A5007008A400B42D280A0319DE2D0B3067
:100B580028020318DE2D4208353E840083138001E5
:100B68000130A9002908C207492D4208FF3E353E39
:100B780084000A30831300020318C92D4208FF3E7F
:100B8800353E84000008303ECF2D4208FF3E353EFA
:100B980084000008373EBF00003003180130C00051
:100BA8003F080A128A11AC230A128A1101308312F3
:100BB8000313C202420803190800B92D8312031354
:100BC800C9007030C3004308D9004908C30043086E
:100BD800D600560884000A128A1103200A128A11C4
:100BE800003A03190800560884000A128A110320E3
:100BF8000A128A11C3004308D70025305706031D7F
:100C0800EF2F0130C3004308D607560884000A12A4
:100C18008A1103200A128A11C3004308D700303012
:100C28005702031C442E3A3057020318442ED801A9
:100C380030305702031CBD2F3A3057020318BD2F1E
:100C48000A30C3004308A00058080A128A11B523C5
:100C58000A128A11831203135707D03EC4004408AE
:100C6800D8000130C3004308D607560884000A128A
:100C78008A1103200A128A11C3004308D7001C2EC8
:100C8800FF30C3004308D800BD2F5908840000086E
:100C9800C3004308D7000230C3004308D907EF2F29
:100CA80083120313590884000008CE00840A000840
:100CB800CF000230C3004308D907CF1F6E2ECE09DC
:100CC800CF09CE0A0319CF0A2D300A128A11AC2394
:100CD8000A128A11831203134E08A4004F08A500B4
:100CE8000030A51BFF30A600A7005808C300430822
:100CF800A8000A300A128A11E1240A128A11F52F73
:100D080083120313590884000008CA00840A0008E3
:100D1800CB00840A0008CC00840A0008CD00043007
:100D2800C3004308D907CD1FAA2ECA09CB09CC098D
:100D3800CD09CA0A0319CB0A0319CC0A0319CD0A2B
:100D48002D300A128A11AC230A128A118312031356
:100D58004D08A7004C08A6004B08A5004A08A400A7
:100D68005808C3004308A8000A300A128A11E1246F
:100D78000A128A11F52F83120313590884000008F8
:100D8800D400840A0008D5000230C3004308D907FC
:100D98005408A4005508A500A601A7015808C300D7
:100DA8004308A8000A300A128A11E1240A128A119B
:100DB800F52F83120313590884000008D000840A11
:100DC8000008D100840A0008D200840A0008D30071
:100DD8000430C3004308D9075308A7005208A600E7
:100DE8005108A5005008A4005808C3004308A800EB
:100DF8000A300A128A11E1240A128A11F52F831285
:100E08000313590884000008D400840A0008D50098
:100E18000230C3004308D9075408A4005508A500A8
:100E2800A601A7015808C3004308A80010300A12F9
:100E38008A11E1240A128A11F52F83120313590823
:100E480084000008D000840A0008D100840A000841
:100E5800D200840A0008D3000430C3004308D9072D
:100E68005308A7005208A6005108A5005008A4007E
:100E78005808C3004308A80010300A128A11E12458
:100E88000A128A11F52F83120313590884000008E7
:100E9800D400840A0008D5000230C3004308D907EB
:100EA800580A031D5B2F1030C3004308D8005408AC
:100EB800A4005508A500A601A7015808C3004308C7
:100EC800A80002300A128A11E1240A128A11F52FA9
:100ED80083120313590884000008D000840A00080C
:100EE800D100840A0008D200840A0008D300043024
:100EF800C3004308D907580A031D862F1030C300C2
:100F08004308D8005308A7005208A6005108A500B6
:100F18005008A4005808C3004308A80002300A1269
:100F28008A11E1240A128A11F52F83120313590832
:100F380084000008C500840A0008C600840A000866
:100F4800C7000330C3004308D907F52F59088400A8
:100F58000008C3004308C8000130C3004308D9078C
:100F680048080A128A11C8230A128A11F52F253057
:100F7800F02F831203135708253A0319BB2F673A3A
:100F880003196C2F013A0319492E073A0319842EC5
:100F9800023A0319992F153A0319AA2F063A031989
:100FA800DD2E0D3A0319212F3A3A0319472F013A3A
:100FB8000319492E073A0319542E023A0319992F97
:100FC800153A0319AA2F063A0319BF2E0D3A031929
:100FD800032FF52FF52F57080A128A11AC230A128E
:100FE8008A11013083120313C3004308D607ED2D7D
:080FF80083010A128A11F32B98
:02400E00BA3FB7
:00000001FF
