:060000000A128A11FC2F18
:100F5800F201F30171087302031DB42F70087202C5
:100F680003180800F401F501003075026430031914
:100F780074020318CC2F0130F4070318F50A003067
:100F8800F50700307502643003197402031CBF2F83
:100F98000130F2070318F30A0030F307AE2F831667
:100FA80003138501860187018801FF30831203132B
:100FB8008500FF308600FF308700FF308800013051
:100FC800F0000030F1000A128A11AC270A128A11C7
:100FD8008312031385018601870188010130F0001F
:100FE8000030F1000A128A11AC270A128A11D92F8F
:080FF80083010A128A11D32FB4
:00000001FF
