:060000000A128A11FC2F18
:100EFA00F201F30171087302031D852F7008720253
:100F0A0003180800F401F50103307502E8300319EB
:100F1A00740203189D2F0130F4070318F50A0030F4
:100F2A00F50703307502E83003197402031C902F89
:100F3A000130F2070318F30A0030F3077F2F8316F4
:100F4A0003138501860187018801FF308312031389
:100F5A008500FF308600FF308700FF30880064304C
:100F6A00F0000030F1000A128A117D270A128A1154
:100F7A008312031385018601870188016430F0001A
:100F8A000030F1000A128A117D270A128A110130F3
:100F9A00F8000030F900F601F7017708803AFF00FF
:100FAA0080307F02031DDB2F083076020318AA2F38
:100FBA00780883120313850078088600780887006A
:100FCA00780888000310780DF800790DF90064306C
:100FDA00F0000030F1000A128A117D270A128A11E4
:100FEA000130F6070318F70A0030F707D22F8301FA
:060FFA000A128A11A42F67
:00000001FF
