:060000000A128A11DB2F39
:10000A008034C0349034D03483120313A0007C08A7
:10001A00FD007D0883160313A10083120313200831
:10002A00FD007D0883160313A00003308312031317
:10003A002002031C2E287C080F39903EFD007D0803
:10004A0083160313B2007C080F39D03EFD007D08E9
:10005A00B3006430F2000030F3000A128A156522F8
:10006A000A128A110830831603132206031D3F2839
:10007A0038304B280430831603132206031D5028F8
:10008A000A128A1551240A128A1128300A128A156C
:10009A0067230A128A110E300A128A1567230A1276
:1000AA008A110A128A154722080078088312031354
:1000BA00A0007908A1007A08A2000310210D220DE0
:1000CA00A3002308A4002408031D72280030F800A6
:1000DA000030F9000030FA0008007B08A0007C0814
:1000EA00A1007D08A2000310210D220DA300230800
:1000FA00A9002908031D88280030F8000030F900FB
:10010A000030FA00080029087B3EA0002008A40756
:10011A007808A0007908A1007A08A200103003101C
:10012A00A20CA10CA00CFF3E031D94282008A300DA
:10013A002308A9007B08A0007C08A1007D08A20072
:10014A0010300310A20CA10CA00CFF3E031DA62820
:10015A002008A3002308A9068030A0002008A905CA
:10016A00F917FC17FF30FB05FF30FC050030FD05D1
:10017A000030A5000030A6000030A7000730A0001C
:10018A002008A800781CD7287B08A5077C0803113B
:10019A0003187C0A031DA6077D08031103187D0AAC
:1001AA00031DA70701300310FA0CF90CF80CFF3EE7
:1001BA00031DD82801300310FB0DFC0DFD0DFF3E79
:1001CA00031DE0280130A802031DC7280930A0003A
:1001DA002008A800781CFF287B08A5077C080311C3
:1001EA0003187C0A031DA6077D08031103187D0A5C
:1001FA00031DA70701300310FA0CF90CF80CFF3E97
:10020A00031D002901300310A70CA60CA50CFF3E04
:10021A00031D08290130A802031DEF282508F00054
:10022A002608F1002708F2002408A0002008F3009D
:10023A002908A1002108F4000A128A156625700807
:10024A00F8007108F9007208FA000800F60076084A
:10025A00F500750883160313A300831203132008FD
:10026A00F500750883160313A400831203132108EB
:10027A00F500750883160313A500831203132208D9
:10028A00F500750883160313A600831203132308C7
:10029A00F500750883160313A700831203132408B5
:1002AA00F500750883160313A800831203132508A3
:1002BA00F500750883160313A90083120313260891
:1002CA00F500750883160313AA008312031327087F
:1002DA00F500750883160313AB008312031328086D
:1002EA00F500750883160313AC008312031329085B
:1002FA00F500750883160313AD0083120313220A4F
:10030A0003198F29230A03198F29240A031D250A91
:10031A00031D96290430F500750883160313A200FD
:10032A00C0290830F500750883160313A200F001EE
:10033A008312031322080A128A11FC210A128A1153
:10034A00F0018312031323080A128A11FC210A12EC
:10035A008A11F0018312031324080A128A11FC215C
:10036A000A128A11F0018312031325080A128A114C
:10037A00FC210A128A11F00176080A128A11FC215C
:10038A000A128A11F0018312031320080A128A1131
:10039A00FC210A128A11F0018312031321080A129E
:1003AA008A11FC210A128A11F0018312031326080A
:1003BA000A128A11FC210A128A11F001831203130C
:1003CA0027080A128A11FC210A128A11F0018312E3
:1003DA00031328080A128A11FC210A128A11F00151
:1003EA008312031329080A128A11FC210800F40057
:1003FA007408F10003300310F10CFF3E031D002ABC
:10040A007108F2007208F30074080739F1007108E4
:10041A00F400C32A70080319222A0130F100740A71
:10042A00182A0310F10DFF3E031D162A7108F20067
:10043A00720883160313850408000130F100740A58
:10044A00282A0310F10DFF3E031D262A7108FF3AE0
:10045A00F200720883160313850508007008031951
:10046A00462A0130F100740A3C2A0310F10DFF3EBE
:10047A00031D3A2A7108F2007208831603138604D0
:10048A0008000130F100740A4C2A0310F10DFF3EF6
:10049A00031D4A2A7108FF3AF200720883160313F1
:1004AA0086050800700803196A2A0130F100740AE7
:1004BA00602A0310F10DFF3E031D5E2A7108F20047
:1004CA00720883160313870408000130F100740AC6
:1004DA00702A0310F10DFF3E031D6E2A7108FF3AC0
:1004EA00F2007208831603138705080070080319BF
:1004FA008E2A0130F100740A842A0310F10DFF3E9E
:10050A00031D822A7108F2007208831603138804F5
:10051A0008000130F100740A942A0310F10DFF3E1D
:10052A00031D922A7108FF3AF20072088316031318
:10053A008805080070080319B22A0130F100740A0C
:10054A00A82A0310F10DFF3E031DA62A7108F20026
:10055A00720883160313890408000130F100740A33
:10056A00B82A0310F10DFF3E031DB62A7108FF3A9F
:10057A00F200720883160313890508007308003A0B
:10058A0003190F2A013A0319332A033A0319572A7E
:10059A00013A03197B2A073A03199F2AD42A080029
:1005AA00F4007408F10003300310F10CFF3E031D40
:1005BA00D92A7108F2007208F30074080739F100A9
:1005CA007108F4009C2B70080319FB2A0130F10012
:1005DA00740AF12A0310F10DFF3E031DEF2A710878
:1005EA00F200720883120313850408000130F10037
:1005FA00740A012B0310F10DFF3E031DFF2A710837
:10060A00FF3AF20072088312031385050800700886
:10061A0003191F2B0130F100740A152B0310F10D79
:10062A00FF3E031D132B7108F20072088312031395
:10063A00860408000130F100740A252B0310F10D1D
:10064A00FF3E031D232B7108FF3AF2007208831242
:10065A0003138605080070080319432B0130F100C3
:10066A00740A392B0310F10DFF3E031D372B710855
:10067A00F200720883120313870408000130F100A4
:10068A00740A492B0310F10DFF3E031D472B710815
:10069A00FF3AF200720883120313870508007008F4
:1006AA000319672B0130F100740A5D2B0310F10D59
:1006BA00FF3E031D5B2B7108F200720883120313BD
:1006CA00880408000130F100740A6D2B0310F10D43
:1006DA00FF3E031D6B2B7108FF3AF200720883126A
:1006EA00031388050800700803198B2B0130F100E9
:1006FA00740A812B0310F10DFF3E031D7F2B710835
:10070A00F200720883120313890408000130F10011
:10071A00740A912B0310F10DFF3E031D8F2B7108F4
:10072A00FF3AF2007208831203138905080073085E
:10073A00003A0319E82A013A03190C2B033A031960
:10074A00302B013A0319542B073A0319782BAD2B96
:10075A00080083120313C100C201023041060319C3
:10076A00F52BF92B2408A9002508AA002608AB00B6
:10077A002708AC002808FF3EAD00AD0A0130AE00E4
:10078A000030AF00CB2B0310AE0DAF0DAD0BC82B55
:10079A002E08B0002F08B1000030B11BFF30B200A4
:1007AA00B3003008A9053108AA053208AB05330899
:1007BA00AC052C082B042A0429040319E62B013062
:1007CA00E72B0030B4003408C2004208303E0A1257
:1007DA008A15A2220A128A11013083120313A8026F
:1007EA00280803190800B72B27082604250424041F
:1007FA00031D042C30300A128A15A2220800831223
:10080A000313C2012808420203189C2C2708260455
:10081A00250424040319662C4108A9002908A0000C
:10082A002708F7002608F6002508F5002408F40032
:10083A004108AA00AB01AC01AD012D08F3002C0858
:10084A00F2002B08F1002A08F0000A128A15A024E7
:10085A000A128A1170080A128A1552220A128A1179
:10086A00FF3A013E831203132407AE004208353EC5
:10087A0084002E08831380004108A900AA01AB0155
:10088A00AC012C08F3002B08F2002A08F100290811
:10089A00F0002708F7002608F6002508F5002408C6
:1008AA00F4000A128A15A0240A128A117308831204
:1008BA000313A7007208A6007108A5007008A40017
:1008CA00722C280A03199C2C0B30280203189C2C22
:1008DA004208353E8400831380010130A9002908AB
:1008EA00C207072C4208FF3E353E84000A308313B4
:1008FA0000020318872C4208FF3E353E8400000898
:10090A00303E8D2C4208FF3E353E84000008373EBB
:10091A00BF00003003180130C0003F080A128A15D0
:10092A00A2220A128A11013083120313C202420858
:10093A0003190800772C831203132308A90024083B
:10094A00AA002508AB0003102A0D2B0DAC002C08B9
:10095A00AF002608A9002708AA002808AB00031040
:10096A002A0D2B0DAC002C08AE002F080319C92C38
:10097A002E082F020318D02C2F03FF3A2E07A900A6
:10098A0019302902031CD02C2608A3002708A4002A
:10099A002808A50008002E08031908002F082E02AF
:1009AA000318DF2C2E03FF3A2F07A900193029025A
:1009BA00031808000630A9002908AD00A51BAD17C9
:1009CA00A81B2D17A417FF30A305FF30A40500307C
:1009DA00A505A717FF30A605FF30A7050030A80513
:1009EA002E082F0203181F2D01300310A60DA70D84
:1009FA00A80DFF3E031DFA2C0130AE022E082F0669
:100A0A0003191A2D0130AD022D08073903191A2DC1
:100A1A00F92C01300310A50CA40CA30CFF3E031DF6
:100A2A000F2D0130A9002908AF072F082E06031938
:100A3A00482D0E2D2F082E020318482D01300310C1
:100A4A00A30DA40DA50DFF3E031D242D0130AF02F9
:100A5A002E082F060319442D0130AD022D0807393F
:100A6A000319442D232D01300310A80CA70CA60C42
:100A7A00FF3E031D392D0130A9002908AE072F08B2
:100A8A002E06031D382DAD1F5A2DFF30A306FF3049
:100A9A00A406FF30A5060130A30700300318013071
:100AAA00A407003003180130A5072D1F6C2DFF3055
:100ABA00A606FF30A706FF30A8060130A6070030B9
:100ACA0003180130A707003003180130A807AD0149
:100ADA002308A607240803110318240A031DA707DD
:100AEA00250803110318250A031DA807A81F8F2D1F
:100AFA00FF30A606FF30A706FF30A8060130A6077A
:100B0A00003003180130A707003003180130A80786
:100B1A00AD01AD0A2608F0002708F1002808F20006
:100B2A002F08A9002908F3002D08AA002A08F400B2
:100B3A000A128A156625700883120313A300710826
:100B4A00A4007208A500080083120313D3004B30D7
:100B5A00CD004D08E3005308CD004D08E0006008C1
:100B6A0084000A128A1500200A128A11003A03190F
:100B7A000800600884000A128A1500200A128A11E5
:100B8A00CD004D08E10025306106031DCE2F01304E
:100B9A00CD004D08E007600884000A128A1500207B
:100BAA000A128A11CD004D08E10030306102031C9F
:100BBA000B2E3A30610203180B2EE201303061022B
:100BCA00031C9C2F3A30610203189C2F0A30CD0077
:100BDA004D08A00062080A128A1552220A128A11C6
:100BEA00831203136107D03ECE004E08E2000130A3
:100BFA00CD004D08E007600884000A128A1500201B
:100C0A000A128A11CD004D08E100E32DFF30CD0014
:100C1A004D08E2009C2F6308840083130008CD006E
:100C2A004D08E1000230CD004D08E307CE2F8312B4
:100C3A0003136308840083130008D800840A000899
:100C4A00D9000230CD004D08E307D91F372ED80945
:100C5A00D909D80A0319D90A2D300A128A15A222EB
:100C6A000A128A11831203135808A4005908A5000E
:100C7A000030A51BFF30A600A7006208CD004D0872
:100C8A00A8000A300A128A11AE230A128A11D42F36
:100C9A00831203136308840083130008D400840AB0
:100CAA000008D500840A0008D600840A0008D70084
:100CBA000430CD004D08E307D71F742ED409D50997
:100CCA00D609D709D40A0319D50A0319D60A03196A
:100CDA00D70A2D300A128A15A2220A128A11831201
:100CEA0003135708A7005608A6005508A50054087C
:100CFA00A4006208CD004D08A8000A300A128A1121
:100D0A00AE230A128A11D42F8312031363088400B4
:100D1A0083130008DE00840A0008DF000230CD00D9
:100D2A004D08E3075E08A4005F08A500A601A70115
:100D3A006208CD004D08A8000A300A128A11AE23B3
:100D4A000A128A11D42F83120313630884008313AF
:100D5A000008DA00840A0008DB00840A0008DC00C4
:100D6A00840A0008DD000430CD004D08E3075D0861
:100D7A00A7005C08A6005B08A5005A08A400620840
:100D8A00CD004D08A8000A300A128A11AE230A12B1
:100D9A008A11D42F83120313630884008313000873
:100DAA00DE00840A0008DF000230CD004D08E307A8
:100DBA005E08A4005F08A500A601A7016208CD008D
:100DCA004D08A80010300A128A11AE230A128A119D
:100DDA00D42F831203136308840083130008DA00F4
:100DEA00840A0008DB00840A0008DC00840A000880
:100DFA00DD000430CD004D08E3075D08A7005C085C
:100E0A00A6005B08A5005A08A4006208CD004D0898
:100E1A00A80010300A128A11AE230A128A11D42F9E
:100E2A00831203136308840083130008DE00840A14
:100E3A000008DF000230CD004D08E307620A031DF7
:100E4A002A2F1030CD004D08E2005E08A4005F088A
:100E5A00A500A601A7016208CD004D08A80002302E
:100E6A000A128A11AE230A128A11D42F831203138B
:100E7A006308840083130008DA00840A0008DB0090
:100E8A00840A0008DC00840A0008DD000430CD0072
:100E9A004D08E307620A031D562F1030CD004D0896
:100EAA00E2005D08A7005C08A6005B08A5005A08D6
:100EBA00A4006208CD004D08A80002300A128A1167
:100ECA00AE230A128A11D42F8312031363088400F3
:100EDA0083130008CF00840A0008D000840A00089F
:100EEA00D1000330CD004D08E3074F08C300500876
:100EFA00C4005108C5000A128A1561270A128A110C
:100F0A00D42F831203136308840083130008CD00CF
:100F1A004D08D2000130CD004D08E30752080A12ED
:100F2A008A15C1220A128A11D42F2530CF2F831293
:100F3A0003136108253A03199A2F673A03193B2FBD
:100F4A00013A0319102E073A03194D2E023A0319D2
:100F5A00692F153A0319862F063A0319A82E0D3A56
:100F6A000319EE2E3A3A0319152F013A0319102ED6
:100F7A00073A03191C2E023A0319692F153A031965
:100F8A00862F063A0319892E0D3A0319CF2ED42F2C
:100F9A00D42F61080A128A15A2220A128A11013074
:100FAA0083120313CD004D08E007B42D8313A0303C
:100FBA008400B0300A128A152A220A128A1183166C
:100FCA0003130A128A1105200A128A11B0000A12A2
:100FDA008A1106200A128A11B1000A128A11072000
:100FEA000A128A11B2000A128A110820B300830178
:100FFA000A128A15FE2C08308A000408840A82071D
:10100A00003443346F3475346E3474343D342534CB
:10101A0034346434003444346534633469346D34AC
:06102A0061346C34003457
:1014540064008001840A04060319003404062B2A5C
:101464008312031322082104200403190800803086
:10147400A206080070087104031908000130F00284
:101484000030031CF103F1023C2A01300A128A15D0
:1014940067230A128A1500300A128A158D22080061
:1014A40083120313A300A201231C5C2A2008A100B9
:1014B4002108A2070310A00D0310A30C2308031D89
:1014C400562A2208080072087304031908002C30F5
:1014D400F0000130F1000A128A153C220A128A1522
:1014E4000130F2020030031CF303F302652A0130D9
:1014F400FA007A0883160313AF07AE0120082F02FF
:101504000318AF012F08B03E8400831300080A12A9
:101514008A1567230800FB008316031320087B0247
:1015240003180800AE017B08FA007A08AF007B08B4
:10153400B03E8400831300080A128A15672308004A
:10154400FC008316031321082E020318AD2A0A3067
:101554007C06031DB22A0A128A1579220A128A15F8
:101564000A307C06031908007C080A128A159C2399
:101574000130FB007B0883160313AE0708008312B7
:101584000313A000200884000A128A1500200A12FE
:101594008A15003A03190800200884000A128A15E3
:1015A40000200A128A150A128A15A2220A128A1522
:1015B4000130FD007D0883120313A007C42A8E3076
:1015C400FC007C08FD00FF307B050319F72A01307D
:1015D4000310FB0CFA0CF90CF80CFF3E031DEA2A6D
:1015E4000130FC007C08FD07E52A7808F000790842
:1015F400F1007A08F2007D08FC007C08F300F40195
:101604000A128A1566257008F8007108F900720834
:10161400FA000800F0018316031323080A128A1142
:10162400D5220A128A15F0018316031324080A121C
:101634008A11D5220A128A15F001F00A83160313BF
:1016440025080A128A11D5220A128A150A30F000D6
:101654000030F1000A128A153C220A128A15F001A0
:101664008316031325080A128A11D5220800F001F3
:10167400F00A8316031323080A128A11D5220A12C8
:101684008A15F0018316031324080A128A11D5223D
:101694000A128A15F001F00A8316031325080A12A8
:1016A4008A11D5220A128A150A30F0000030F1009E
:1016B4000A128A153C220A128A15F00183160313B2
:1016C40025080A128A11D5220800F9000A128A157F
:1016D40047260A128A150830831603132206031DAF
:1016E4007A2B79080A128A1511240A128A15922B68
:1016F40079080A128A15D1230A128A150A128A1540
:101704000C230A128A157908F70003300310F70D29
:10171400FF3E031D882B0310770DF8007808F900AD
:1017240079080A128A15D1230A128A150A128A150F
:101734000C230800F9000A128A1547260A128A1592
:101744000830831603132206031DAF2B79080A12EF
:101754008A1511240A128A15C72B79080A128A15C8
:10176400D1230A128A150A128A1539230A128A15F4
:101774007908F70003300310F70DFF3E031DBD2B5E
:101784000310770DF8007808F90079080A128A1511
:10179400D1230A128A150A128A1539230800F60081
:1017A400761ED62B0130D72B0030F5007508F000DB
:1017B400831603132A080A128A11D5220A128A15DB
:1017C400F61EE62B0130E72B0030F5007508F0001B
:1017D400831603132B080A128A11D5220A128A15BA
:1017E400761FF62B0130F72B0030F5007508F0005A
:1017F400831603132C080A128A11D5220A128A1599
:10180400F61F062C0130072C0030F5007508F00097
:10181400831603132D080A128A11D5220800F60034
:10182400761C162C0130172C0030F5007508F000DA
:101834008316031326080A128A11D5220A128A155E
:10184400F61C262C0130272C0030F5007508F0001A
:101854008316031327080A128A11D5220A128A153D
:10186400761D362C0130372C0030F5007508F00059
:101874008316031328080A128A11D5220A128A151C
:10188400F61D462C0130472C0030F5007508F00099
:101894008316031329080A128A11D522080030304E
:1018A4000A128A15D1230A128A150A128A150C23E0
:1018B4000A128A156430F2000030F3000A128A1505
:1018C40065220A128A1530300A128A15D1230A12A7
:1018D4008A150A128A150C230A128A15C830F000D8
:1018E4000030F1000A128A153C220A128A1530309F
:1018F4000A128A15D1230A128A150A128A150C2390
:101904000A128A15C830F0000030F1000A128A1554
:101914003C220A128A1520300A128A15D1230A128F
:101924008A150A128A150C230A128A15C830F00087
:101934000030F1000A128A153C2208000030FC0035
:101944000030FB000030FA000030F9007308720424
:10195400710470040319F52CFD01FD0AF31BC02C5E
:101964000130F8000310F00DF10DF20DF30DF80B3A
:10197400B42C0130F8007808FD07B02C0130F800D1
:101984000310F90DFA0DFB0DFC0DF80BC22C7308B6
:101994007702031DD72C72087602031DD72C710819
:1019A4007502031DD72C70087402031CE82C700800
:1019B400F4027108031C710FF5027208031C720F04
:1019C400F6027308031C730FF70279140130031035
:1019D400F30CF20CF10CF00CFF3E031DE92C01306A
:1019E400FD02031DC02C7C08F3007B08F2007A087A
:1019F400F1007908F000080083120313EE01EF01EF
:101A04000930E4006408A0000A30E5006508A1007C
:101A1400FF30E6006608A200FF30E7006708A30075
:101A2400FF30E8006808A400FF30E9006908A50059
:101A34000C30EA006A08A6000D30EB006B08A70022
:101A44000E30EC006C08A8000F30ED006D08A90002
:101A540008300A128A112B210A128A1510308312B7
:101A64000313E4006408FC0002300A128A110920FE
:101A74000A128A150B300A128A15C1220A128A1513
:101A840001300A128A158D220A128A158312031351
:101A94006F08CC006E08CB0001300A128A11A92508
:101AA4000A128A15F430F2000130F3000A128A1582
:101AB40065220A128A15013083120313EE070318F4
:101AC400EF0A0030EF07422D730803196E2D7208D8
:101AD40071047004031D812D0030F0000030F1000A
:101AE4000030F20008000130F5007508F3070130FA
:101AF4000310F20CF10CF00CFF3E031D7A2DFE30A6
:101B0400720503199C2D752D0130F5007508F30736
:101B14000130F007003003180130F10700300318DA
:101B24000130F20701300310F20CF10CF00CFF3E0F
:101B3400031D952DFF3072050319AB2D862D013041
:101B4400F30201300310F00DF10DF20DFF3E031D01
:101B5400A42DF11BB12D023073020318A12D7318AB
:101B6400B92DFF30F0057F30F105FF30F205031089
:101B7400F30C7308F500F601F70110300310F50DAE
:101B8400F60DF70DFF3E031DC02D7508F004760811
:101B9400F1047708F204740803190800F217080026
:101BA400F400F3017408F00003300310F00CFF3E5E
:101BB400031DD72D7008F1007108F200740807396D
:101BC400F0007008F400342E0130F000740AEC2D9B
:101BD4000310F00DFF3E031DEA2D7008831203135A
:101BE40005052B2E0130F000740AFA2D0310F00DB8
:101BF400FF3E031DF82D70088312031306052B2ED8
:101C04000130F000740A082E0310F00DFF3E031D8E
:101C1400062E70088312031307052B2E0130F000E3
:101C2400740A162E0310F00DFF3E031D142E7008C7
:101C34008312031308052B2E0130F000740A242E9E
:101C44000310F00DFF3E031D222E700883120313B0
:101C5400090503192F2E0130302E0030F1007108D0
:101C6400F300452E7208003A0319E62D013A0319D0
:101C7400F42D033A0319022E013A0319102E073AE0
:101C840003191E2E452E7308080083160313240A15
:101C94000319CB2EF001F00A2D080A128A11FC2137
:101CA4000A128A15F0018316031323080A128A11F3
:101CB400D5220A128A15F001F00A831603132408A8
:101CC4000A128A11D5220A128A15F0018316031307
:101CD40025080A128A11D5220A128A150A30F00040
:101CE4000030F1000A128A153C220A128A15F0010A
:101CF400F00A8316031325080A128A11D5220A1240
:101D04008A150A30F0000030F1000A128A153C22CC
:101D14000A128A15831603132D080A128A15D2256E
:101D24000A128A15F5007508F600043083160313A9
:101D34002206031DC02EF00125080A128A11D5229D
:101D44000A128A150A30F0000030F1000A128A15CE
:101D54003C220A128A15F001F00A8316031325089F
:101D64000A128A11D5220A128A150A30F0000030AC
:101D7400F1000A128A153C220A128A157608031DFC
:101D8400672EF001831603132D080A128A11FC2111
:101D940008000130F2000030F3000A128A156522AF
:101DA4000800831203132A08AE002B08AF002C0886
:101DB400B00003102F0D300DB1003108B700370803
:101DC400031DED2E0030AD000030AC000030AB0040
:101DD4000030AA0008002A08AE002B08AF002C0827
:101DE400B00017300310B00CAF0CAE0CFF3E031D57
:101DF400F42E2E08B1003108B200AB17FF30AA054B
:101E0400FF30AB050030AC052A08B3002B08B40042
:101E14002C08B500B6018E30B702B71F2F2F370834
:101E2400803A8F3E03181F2F0030AD000030AC0005
:101E34000030AB000030AA00080001300310B60CDB
:101E4400B50CB40CB30CFF3E031D202F0130AE00C3
:101E54002E08B70703194A2F1F2F18303702031C07
:101E6400472F0030AD000030AC000030AB00003034
:101E7400AA0008000130AE000310B30DB40DB50D77
:101E8400B60DAE0B3E2F0130B7023708031D3C2FB1
:101E940032080319582FB309B409B509B609B30AAE
:101EA4000319B40A0319B50A0319B60A3608AD00B2
:101EB4003508AC003408AB003308AA0008008312CC
:101EC40003134308AA004408AB004508AC000A12F7
:101ED4008A15D3260A128A15831203132D08CA0001
:101EE4002C08C9002B08C8002A08C7004A08A70004
:101EF4004908A6004808A5004708A400FF30C6000A
:101F04004608A8000A300A128A11AE230A128A155A
:101F14002E300A128A15A2220A128A15831203137A
:101F24004308A3004408A4004508A5004A08FB0090
:101F34004908FA004808F9004708F8000A128A1507
:101F4400E1220A128A15780883120313A000790883
:101F5400A1007A08A2000A128A1532220A128A15EE
:101F6400831203132008A6002108A7002208A80052
:101F74000A128A11A0240A128A1583120313230851
:101F8400C3002408C4002508C5004308FB00440816
:101F9400FC004508FD002430F8007430F900493095
:101FA400FA000A128A115A200A128A157808831232
:101FB4000313AA007908AB007A08AC000A128A1548
:101FC400D3260A128A15831203132D08CA002C087B
:101FD400C9002B08C8002A08C7004A08A7004908F6
:101FE400A6004808A5004708A400FF30C60046081C
:0C1FF400A8000A300A128A11AE2308006F
:02400E00BA3FB7
:00000001FF
