:060000000A128A11F22F22
:1000140070087104031908000130F0020030031C59
:10002400F103F1020A28831203132A08AE002B08F5
:10003400AF002C08B00003102F0D300DB1003108B3
:10004400B7003708031D2F280030AD000030AC0086
:100054000030AB000030AA0008002A08AE002B08CC
:10006400AF002C08B00017300310B00CAF0CAE0C6E
:10007400FF3E031D36282E08B1003108B200AB172D
:10008400FF30AA05FF30AB050030AC052A08B300E9
:100094002B08B4002C08B500B6018E30B702B71F88
:1000A40071283708803A8F3E031861280030AD006C
:1000B4000030AC000030AB000030AA000800013072
:1000C4000310B60CB50CB40CB30CFF3E031D622830
:1000D4000130AE002E08B70703198C2861281830A8
:1000E4003702031C89280030AD000030AC0000301A
:1000F400AB000030AA0008000130AE000310B30DBD
:10010400B40DB50DB60DAE0B80280130B70237081B
:10011400031D7E28320803199A28B309B409B509C6
:10012400B609B30A0319B40A0319B50A0319B60ABE
:100134003608AD003508AC003408AB003308AA001B
:100144000800831203134308AA004408AB004508BF
:10015400AC000A128A1115200A128A1183120313A1
:100164002D08CA002C08C9002B08C8002A08C7009B
:100174004A08A7004908A6004808A5004708A400A3
:10018400FF30C6004608A8000A300A128A11C523A7
:100194000A128A112E300A128A15DF230A128A11D2
:1001A400831203134308A3004408A4004508A500D0
:1001B4004A08FB004908FA004808F9004708F80013
:1001C4000A128A1530240A128A117808831203133A
:1001D400A0007908A1007A08A2000A128A15E8236F
:1001E4000A128A11831203132008A6002108A7000B
:1001F4002208A8000A128A11B7240A128A1183124B
:1002040003132308C3002408C4002508C5004308B9
:10021400FB004408FC004508FD002430F80074305D
:10022400F9004930FA000A128A1142210A128A118D
:10023400780883120313AA007908AB007A08AC008B
:100244000A128A1115200A128A11831203132D0827
:10025400CA002C08C9002B08C8002A08C7004A088D
:10026400A7004908A6004808A5004708A400FF30D5
:10027400C6004608A8000A300A128A11C5230800DD
:10028400780883120313A0007908A1007A08A20059
:100294000310210D220DA3002308A4002408031D2C
:1002A4005A290030F8000030F9000030FA00080044
:1002B4007B08A0007C08A1007D08A2000310210D8A
:1002C400220DA3002308A9002908031D702900306A
:1002D400F8000030F9000030FA00080029087B3EDD
:1002E400A0002008A4077808A0007908A1007A08D3
:1002F400A20010300310A20CA10CA00CFF3E031DA1
:100304007C292008A3002308A9007B08A0007C08FE
:10031400A1007D08A20010300310A20CA10CA00CB7
:10032400FF3E031D8E292008A3002308A906803060
:10033400A0002008A905F917FC17FF30FB05FF30C2
:10034400FC050030FD050030A5000030A60000309B
:10035400A7000730A0002008A800781CBF297B084C
:10036400A5077C08031103187C0A031DA6077D0852
:10037400031103187D0A031DA70701300310FA0CAB
:10038400F90CF80CFF3E031DC02901300310FB0DCE
:10039400FC0DFD0DFF3E031DC8290130A802031DFD
:1003A400AF290930A0002008A800781CE7297B08A1
:1003B400A5077C08031103187C0A031DA6077D0802
:1003C400031103187D0A031DA70701300310FA0C5B
:1003D400F90CF80CFF3E031DE82901300310A70CAB
:1003E400A60CA50CFF3E031DF0290130A802031D35
:1003F400D7292508F0002608F1002708F200240870
:10040400A0002008F3002908A1002108F4000A1222
:100414008A151D267008F8007108F9007208FA00A0
:100424000800F4007408F10003300310F10CFF3EDF
:10043400031D172A7108F2007208F30074080739C3
:10044400F1007108F400DA2A70080319392A01301E
:10045400F100740A2F2A0310F10DFF3E031D2D2A0B
:100464007108F20072088312031385040800013036
:10047400F100740A3F2A0310F10DFF3E031D3D2ACB
:100484007108FF3AF200720883120313850508000D
:10049400700803195D2A0130F100740A532A03100D
:1004A400F10DFF3E031D512A7108F20072088312F8
:1004B4000313860408000130F100740A632A031050
:1004C400F10DFF3E031D612A7108FF3AF200720824
:1004D400831203138605080070080319812A01306A
:1004E400F100740A772A0310F10DFF3E031D752AEB
:1004F4007108F200720883120313870408000130A4
:10050400F100740A872A0310F10DFF3E031D852AAA
:100514007108FF3AF200720883120313870508007A
:1005240070080319A52A0130F100740A9B2A0310EC
:10053400F10DFF3E031D992A7108F200720883121F
:100544000313880408000130F100740AAB2A031075
:10055400F10DFF3E031DA92A7108FF3AF20072084B
:10056400831203138805080070080319C92A01308F
:10057400F100740ABF2A0310F10DFF3E031DBD2ACA
:100584007108F20072088312031389040800013011
:10059400F100740ACF2A0310F10DFF3E031DCD2A8A
:1005A4007108FF3AF20072088312031389050800E8
:1005B4007308003A0319262A013A03194A2A033A0E
:1005C40003196E2A013A0319922A073A0319B62A23
:1005D400EB2A0800F4007408F10003300310F10C56
:1005E400FF3E031DF02A7108F2007208F30074083C
:1005F4000739F1007108F400B32B70080319122BAA
:100604000130F100740A082B0310F10DFF3E031DA5
:10061400062B7108F2007208831603138504080080
:100624000130F100740A182B0310F10DFF3E031D75
:10063400162B7108FF3AF20072088316031385051E
:10064400080070080319362B0130F100740A2C2BB2
:100654000310F10DFF3E031D2A2B7108F2007208EE
:1006640083160313860408000130F100740A3C2B3E
:100674000310F10DFF3E031D3A2B7108FF3AF200FF
:1006840072088316031386050800700803195A2B91
:100694000130F100740A502B0310F10DFF3E031DCD
:1006A4004E2B7108F20072088316031387040800A6
:1006B4000130F100740A602B0310F10DFF3E031D9D
:1006C4005E2B7108FF3AF200720883160313870544
:1006D4000800700803197E2B0130F100740A742B92
:1006E4000310F10DFF3E031D722B7108F200720816
:1006F40083160313880408000130F100740A842B64
:100704000310F10DFF3E031D822B7108FF3AF20026
:100714007208831603138805080070080319A22BB6
:100724000130F100740A982B0310F10DFF3E031DF4
:10073400962B7108F20072088316031389040800CB
:100744000130F100740AA82B0310F10DFF3E031DC4
:10075400A62B7108FF3AF200720883160313890569
:1007640008007308003A0319FF2A013A0319232BDE
:10077400033A0319472B013A03196B2B073A031960
:100784008F2BC42B080083120313C100C201023053
:10079400410603190C2C102C2408A9002508AA00D2
:1007A4002608AB002708AC002808FF3EAD00AD0AC0
:1007B4000130AE000030AF00E22B0310AE0DAF0DE0
:1007C400AD0BDF2B2E08B0002F08B1000030B11B99
:1007D400FF30B200B3003008A9053108AA05320879
:1007E400AB053308AC052C082B042A04290403198F
:1007F400FD2B0130FE2B0030B4003408C200420847
:10080400303E0A128A15DF230A128A11013083123C
:100814000313A802280803190800CE2B270826046E
:1008240025042404031D1B2C30300A128A15DF23EF
:10083400080083120313C201280842020318B32CD0
:10084400270826042504240403197D2C4108A90043
:100854002908A0002708F7002608F6002508F50057
:100864002408F4004108AA00AB01AC01AD012D0835
:10087400F3002C08F2002B08F1002A08F0000A12F9
:100884008A15FF240A128A1170080A128A15F223A3
:100894000A128A11FF3A013E831203132407AE00A1
:1008A4004208353E84002E08831380004108A900C5
:1008B400AA01AB01AC012C08F3002B08F2002A08B2
:1008C400F1002908F0002708F7002608F60025089B
:1008D400F5002408F4000A128A15FF240A128A116A
:1008E400730883120313A7007208A6007108A500F9
:1008F4007008A400892C280A0319B32C0B30280291
:100904000318B32C4208353E840083138001013060
:10091400A9002908C2071E2C4208FF3E353E840068
:100924000A308313000203189E2C4208FF3E353E12
:1009340084000008303EA42C4208FF3E353E84006B
:100944000008373EBF00003003180130C0003F08E4
:100954000A128A15DF230A128A1101308312031343
:10096400C2024208031908008E2C831203132308C1
:10097400A9002408AA002508AB0003102A0D2B0D9A
:10098400AC002C08AF002608A9002708AA002808F4
:10099400AB0003102A0D2B0DAC002C08AE002F0861
:1009A4000319E02C2E082F020318E72C2F03FF3A1B
:1009B4002E07A90019302902031CE72C2608A300DE
:1009C4002708A4002808A50008002E080319080019
:1009D4002F082E020318F62C2E03FF3A2F07A90026
:1009E40019302902031808000630A9002908AD00AF
:1009F400A51BAD17A81B2D17A417FF30A305FF30A7
:100A0400A4050030A505A717FF30A605FF30A705EC
:100A14000030A8052E082F020318362D01300310CC
:100A2400A60DA70DA80DFF3E031D112D0130AE022A
:100A34002E082F060319312D0130AD022D08073978
:100A44000319312D102D01300310A50CA40CA30C97
:100A5400FF3E031D262D0130A9002908AF072F08EA
:100A64002E0603195F2D252D2F082E0203185F2D46
:100A740001300310A30DA40DA50DFF3E031D3B2D56
:100A84000130AF022E082F0603195B2D0130AD0291
:100A94002D08073903195B2D3A2D01300310A80CDA
:100AA400A70CA60CFF3E031D502D0130A9002908F8
:100AB400AE072F082E06031D4F2DAD1F712DFF30DD
:100AC400A306FF30A406FF30A5060130A3070030BB
:100AD40003180130A407003003180130A5072D1FA7
:100AE400832DFF30A606FF30A706FF30A80601308D
:100AF400A607003003180130A7070030031801309F
:100B0400A807AD012308A607240803110318240A23
:100B1400031DA707250803110318250A031DA807A9
:100B2400A81FA62DFF30A606FF30A706FF30A80693
:100B34000130A607003003180130A707003003185E
:100B44000130A807AD01AD0A2608F0002708F1001E
:100B54002808F2002F08A9002908F3002D08AA008C
:100B64002A08F4000A128A151D267008831203133A
:100B7400A3007108A4007208A500080083120313DF
:100B8400D3004B30CD004D08E3005308CD004D0891
:100B9400E000600884000A128A1500200A128A11F3
:100BA400003A03190800600884000A128A1500201C
:100BB4000A128A11CD004D08E10025306106031D9B
:100BC400E52F0130CD004D08E007600884000A12CB
:100BD4008A1500200A128A11CD004D08E100303038
:100BE4006102031C222E3A3061020318222EE20114
:100BF40030306102031CB32F3A3061020318B32F63
:100C04000A30CD004D08A00062080A128A15F223AA
:100C14000A128A11831203136107D03ECE004E08D4
:100C2400E2000130CD004D08E007600884000A129C
:100C34008A1500200A128A11CD004D08E100FA2D10
:100C4400FF30CD004D08E200B32F63088400831306
:100C54000008CD004D08E1000230CD004D08E30747
:100C6400E52F831203136308840083130008D8005C
:100C7400840A0008D9000230CD004D08E307D91FCB
:100C84004E2ED809D909D80A0319D90A2D300A12C7
:100C94008A15DF230A128A11831203135808A40049
:100CA4005908A5000030A51BFF30A600A700620864
:100CB400CD004D08A8000A300A128A11C5230A1271
:100CC4008A11EB2F83120313630884008313000833
:100CD400D400840A0008D500840A0008D600840AD7
:100CE4000008D7000430CD004D08E307D71F8B2E32
:100CF400D409D509D609D709D40A0319D50A031981
:100D0400D60A0319D70A2D300A128A15DF230A12CC
:100D14008A11831203135708A7005608A600550822
:100D2400A5005408A4006208CD004D08A8000A30AC
:100D34000A128A11C5230A128A11EB2F8312031394
:100D44006308840083130008DE00840A0008DF00BF
:100D54000230CD004D08E3075E08A4005F08A5003B
:100D6400A601A7016208CD004D08A8000A300A12A6
:100D74008A11C5230A128A11EB2F83120313630805
:100D8400840083130008DA00840A0008DB00840A64
:100D94000008DC00840A0008DD000430CD004D08A2
:100DA400E3075D08A7005C08A6005B08A5005A08D5
:100DB400A4006208CD004D08A8000A300A128A1166
:100DC400C5230A128A11EB2F8312031363088400CC
:100DD40083130008DE00840A0008DF000230CD001F
:100DE4004D08E3075E08A4005F08A500A601A7015B
:100DF4006208CD004D08A80010300A128A11C523DC
:100E04000A128A11EB2F83120313630884008313DD
:100E14000008DA00840A0008DB00840A0008DC0009
:100E2400840A0008DD000430CD004D08E3075D08A6
:100E3400A7005C08A6005B08A5005A08A400620885
:100E4400CD004D08A80010300A128A11C5230A12D9
:100E54008A11EB2F831203136308840083130008A1
:100E6400DE00840A0008DF000230CD004D08E307ED
:100E7400620A031D412F1030CD004D08E2005E08C8
:100E8400A4005F08A500A601A7016208CD004D08D3
:100E9400A80002300A128A11C5230A128A11EB2F04
:100EA400831203136308840083130008DA00840A9E
:100EB4000008DB00840A0008DC00840A0008DD0066
:100EC4000430CD004D08E307620A031D6D2F203066
:100ED400CD004D08E2005D08A7005C08A6005B0891
:100EE400A5005A08A4006208CD004D08A8000230ED
:100EF4000A128A11C5230A128A11EB2F83120313D3
:100F04006308840083130008CF00840A0008D0001B
:100F1400840A0008D1000330CD004D08E3074F08D0
:100F2400C3005008C4005108C5000A128A11A32046
:100F34000A128A11EB2F83120313630884008313AC
:100F44000008CD004D08D2000130CD004D08E30764
:100F540052080A128A1505240A128A11EB2F253029
:100F6400E62F831203136108253A0319B12F673A58
:100F74000319522F013A0319272E073A0319642E35
:100F8400023A0319802F153A03199D2F063A0319C3
:100F9400BF2E0D3A0319052F3A3A03192C2F013AA3
:100FA4000319272E073A0319332E023A0319802F07
:100FB400153A03199D2F063A0319A02E0D3A031969
:100FC400E62EEB2FEB2F61080A128A15DF230A1293
:100FD4008A11013083120313CD004D08E007CB2D95
:100FE400EC01ED01EE01EF0183160313A001A10151
:100FF400A201A30183010A128A155B2C08308A001E
:101004000408840A820700343034313432343334EF
:101014003434353436343734383439344134423462
:1010240043344434453446340A340D3420344B3488
:0C103400653479343A34253463340034D8
:1017BE00F000831203130C1EE02B0C12700899001C
:1017CE0008008312031322082104200403190800C1
:1017DE008030A206080083120313A300A201231C6B
:1017EE00FC2B2008A1002108A2070310A00D031056
:1017FE00A30C2308031DF62B22080800F200720822
:10180E0084008313000803190800720884008313F0
:10181E0000080A128A15DF230A128A150130F10018
:10182E007108F207062C80308316031387002030D0
:10183E00980090308312031398003308A3003208E7
:10184E00A2003108A1003008A0000A128A15FE2657
:10185E0008008E30FC007C08FD00FF307B0503196C
:10186E00462C01300310FB0CFA0CF90CF80CFF3E61
:10187E00031D392C0130FC007C08FD07342C780840
:10188E00F0007908F1007A08F2007D08FC007C086F
:10189E00F300F4010A128A151D267008F80071086B
:1018AE00F9007208FA000800003083120313B30027
:1018BE000030B2002530B1008030B0000A128A1517
:1018CE001A240A128A15093083120313E4006408DD
:1018DE00F5000A30E5006508F6000B30E6006608F4
:1018EE00F7000C30E7006708F8000D30E8006808D4
:1018FE00F9000E30E9006908FA000F30EA006A08B4
:10190E00FB0008300A128A15A6240A128A150A123A
:10191E008A1578270A128A1583120313E4006408C5
:10192E00EB006B08E400E5016408CB006508CC0011
:10193E0011300A128A11C0250A128A158E2C8312B2
:10194E000313A0002008FC007C08EC007508FC00C6
:10195E007C08ED007608FC007C08EE007708FC00A1
:10196E007C08EF007808FC007C0883160313A000A7
:10197E007908FC007C08A1007A08FC007C08A20013
:10198E007B08FC007C08A30083120313A101043022
:10199E0021020318E72CF00121086C3E840083130A
:1019AE0000080A128A11EC220A128A150130FC0074
:1019BE007C0883120313A10704302102031CD22CCE
:1019CE00A1010430210203180800F001F00A2108D9
:1019DE00A03E8400831300080A128A11EC220A1218
:1019EE008A150130FC007C0883120313A107E82C32
:1019FE000030FC000030FB000030FA000030F9002F
:101A0E0073087204710470040319542DFD01FD0A4C
:101A1E00F31B1F2D0130F8000310F00DF10DF20D28
:101A2E00F30DF80B132D0130F8007808FD070F2D7C
:101A3E000130F8000310F90DFA0DFB0DFC0DF80B3B
:101A4E00212D73087702031D362D72087602031DB1
:101A5E00362D71087502031D362D70087402031C95
:101A6E00472D7008F4027108031C710FF5027208FD
:101A7E00031C720FF6027308031C730FF70279141E
:101A8E0001300310F30CF20CF10CF00CFF3E031DB1
:101A9E00482D0130FD02031D1F2D7C08F3007B082D
:101AAE00F2007A08F1007908F0000800F70104301E
:101ABE0077020318752DF00177086C3E84008313AE
:101ACE0000080A128A1113220A128A150130F50033
:101ADE007508F70704307702031C622DF601F60A2B
:101AEE00F701043077020318912D7708A03E840089
:101AFE00831300080A128A1589260A128A15F50020
:101B0E007508F6050130F5007508F7070430770201
:101B1E00031C7C2D7608031D752D0A30F000003055
:101B2E00F1000A128A110A200A128A15F601F60A23
:101B3E00F701043077020318B92D7708A03E840010
:101B4E00831300080A128A1589260A128A15F500CF
:101B5E007508F6050130F5007508F70704307702B1
:101B6E00031CA42D760803190800752DF701043007
:101B7E0077020318D52DF00177086C3E840083138D
:101B8E0000080A128A1113220A128A150130F50072
:101B9E007508F70704307702031CC22DF601F60A0A
:101BAE00F701043077020318F12D7708A03E840068
:101BBE00831300080A128A1589260A128A15F5005F
:101BCE007508F6050130F5007508F7070430770241
:101BDE00031CDC2D76080319D52D0A30F0000030D9
:101BEE00F1000A128A110A200A128A15F601F60A63
:101BFE00F701043077020318192E7708A03E8400EF
:101C0E00831300080A128A1589260A128A15F5000E
:101C1E007508F6050130F5007508F70704307702F0
:101C2E00031C042E7608031D0800D52D7308031916
:101C3E00252E720871047004031D382E0030F0003A
:101C4E000030F1000030F20008000130F500750898
:101C5E00F30701300310F20CF10CF00CFF3E031DE4
:101C6E00312EFE3072050319532E2C2E0130F50045
:101C7E007508F3070130F007003003180130F10743
:101C8E00003003180130F20701300310F20CF10C92
:101C9E00F00CFF3E031D4C2EFF3072050319622E11
:101CAE003D2E0130F30201300310F00DF10DF20D57
:101CBE00FF3E031D5B2EF11B682E023073020318CC
:101CCE00582E7318702EFF30F0057F30F105FF305F
:101CDE00F2050310F30C7308F500F601F70110304E
:101CEE000310F50DF60DF70DFF3E031D772E75084B
:101CFE00F0047608F1047708F2047408031908005A
:101D0E00F2170800F400F3017408F000033003101A
:101D1E00F00CFF3E031D8E2E7008F1007108F200CC
:101D2E0074080739F0007008F400EB2E0130F00053
:101D3E00740AA32E0310F00DFF3E031DA12E700892
:101D4E00831203130505E22E0130F000740AB12E42
:101D5E000310F00DFF3E031DAF2E70088312031308
:101D6E000605E22E0130F000740ABF2E0310F00DAE
:101D7E00FF3E031DBD2E7008831203130705E22ECE
:101D8E000130F000740ACD2E0310F00DFF3E031D3E
:101D9E00CB2E7008831203130805E22E0130F000DB
:101DAE00740ADB2E0310F00DFF3E031DD92E7008B2
:101DBE008312031309050319E62E0130E72E0030B6
:101DCE00F1007108F300FC2E7208003A03199D2EE3
:101DDE00013A0319AB2E033A0319B92E013A03192E
:101DEE00C72E073A0319D52EFC2E7308080083124E
:101DFE0003132308031D102F2208031D102F093073
:101E0E002102031D0E2F60302002031D0E2F031C16
:101E1E006B2F2308031D6B2F01302202031D1F2F72
:101E2E00C2302102031D1F2F01302002031D1F2F60
:101E3E0003186B2FFF30A400FF30A500FF30A60063
:101E4E00FF30A7002008A8002108A9002208AA0038
:101E5E002308AB0006300310A80DA90DAA0DAB0D7B
:101E6E00FF3E031D322F2B08F3002A08F20029082B
:101E7E00F1002808F0000130F7003130F6002D3067
:101E8E00F5000030F4000A128A15FF240A128A1592
:101E9E00700883120313A40771080318710F582FCB
:101EAE00592FA50772080318720F5E2F5F2FA60712
:101EBE0073080318730AA7072708AF002608AE0099
:101ECE002508AD002408722F0030AF000030AE00A0
:101EDE000030AD001F30AC002C08831603139900A0
:101EEE000800FB010A128A15BD250A128A150A126C
:101EFE008A155D250A128A15FD0104307D0203182C
:101F0E009C2FF001F00A7D086C3E840083130008BC
:101F1E000A128A1113220A128A150130F800780863
:101F2E00FD0704307D02031C882FFD0104307D0265
:101F3E000318E02FF0017D086C3E84008313000827
:101F4E000A128A1113220A128A15FC0104307C022D
:101F5E000318C92F7C08A03E8400831300080A12C0
:101F6E008A1589260A128A15003A031DC12FFB0114
:101F7E00FB0AC92F0130F8007808FC0704307C02F8
:101F8E00031CB12F7B030319E02FF001F00A7D082B
:101F9E006C3E8400831300080A128A1113220A125F
:101FAE008A150130F8007808FD0704307D02031C05
:101FBE00A12F04307D020318FA2F7D08F80002309D
:101FCE000310F80DFF3E031DE72F01307807F900CF
:101FDE007C08790784000A128A1500200A128A15D5
:101FEE00FA007A08FD2F7830F8007808FB007B089D
:021FFE000800D9
:02400E00BA3FB7
:00000001FF
