:100000000A128A11FC2F00308A000408840A820731
:100010000034413444344334303420345634613471
:100020006C34753465343A342534343464342034D3
:1000300020344534713475346934763461346C3429
:1000400065346E347434203456346F346C34743404
:100050006134673465343A34253466340A340D34F7
:100060000034730803193928720871047004031DE1
:100070004C280030F0000030F1000030F2000800A1
:100080000130F5007508F30701300310F20CF10C94
:10009000F00CFF3E031D4528FE307205031967284A
:1000A00040280130F5007508F3070130F0070030F3
:1000B00003180130F107003003180130F207013056
:1000C0000310F20CF10CF00CFF3E031D6028FF3012
:1000D00072050319762851280130F302013003100C
:1000E000F00DF10DF20DFF3E031D6F28F11B7C2872
:1000F0000230730203186C2873188428FF30F0054F
:100100007F30F105FF30F2050310F30C7308F500A2
:10011000F601F70110300310F50DF60DF70DFF3E57
:10012000031D8B287508F0047608F1047708F204A3
:10013000740803190800F217080083120313230838
:10014000031DAF282208031DAF2809302102031D1B
:10015000AD2860302002031DAD28031C0A292308A6
:10016000031D0A2901302202031DBE28C2302102CC
:10017000031DBE2801302002031DBE2803180A29D2
:10018000FF30A400FF30A500FF30A600FF30A7001D
:100190002008A8002108A9002208AA002308AB0013
:1001A00006300310A80DA90DAA0DAB0DFF3E031DCF
:1001B000D1282B08F3002A08F2002908F1002808AA
:1001C000F0000130F7003130F6002D30F50000303E
:1001D000F4000A128A153A270A128A11700883124B
:1001E0000313A40771080318710FF728F828A5074F
:1001F00072080318720FFD28FE28A607730803185B
:10020000730AA7072708AF002608AE002508AD002F
:10021000240811290030AF000030AE000030AD00DE
:100220001F30AC002C0883160313990008008312BA
:1002300003133008B4003108B5003208B6000310CB
:10024000350D360DB7003708BD003D08031D3129B7
:100250000030B3000030B2000030B1000030B00018
:1002600008003008B4003108B5003208B600173075
:100270000310B60CB50CB40CFF3E031D382934082E
:10028000B7003708B800B117FF30B005FF30B1052F
:100290000030B2053008B9003108BA003208BB009E
:1002A000BC018E30BD02BD1F73293D08803A8F3ED0
:1002B000031863290030B3000030B2000030B100F1
:1002C0000030B000080001300310BC0CBB0CBA0CAD
:1002D000B90CFF3E031D64290130B4003408BD078A
:1002E00003198E29632918303D02031C8B29003025
:1002F000B3000030B2000030B1000030B0000800A0
:100300000130B4000310B90DBA0DBB0DBC0DB40B18
:1003100082290130BD023D08031D802938080319D8
:100320009C29B909BA09BB09BC09B90A0319BA0A57
:100330000319BB0A0319BC0A3C08B3003B08B2000E
:100340003A08B1003908B0000800831203134308CB
:10035000B0004408B1004508B2000A128A11172102
:100360000A128A11831203133308CA003208C90023
:100370003108C8003008C7004A08A7004908A6008D
:100380004808A5004708A400FF30C6004608A8009A
:100390000A300A128A11CF230A128A112E300A1249
:1003A0008A156E260A128A11831203134308A300CA
:1003B0004408A4004508A5004A08FB004908FA00C3
:1003C0004808F9004708F8000A128A150F270A1290
:1003D0008A11780883120313A0007908A1007A0813
:1003E000A2000A128A1577260A128A1183120313B1
:1003F0002008A6002108A7002208A8000A128A11D6
:10040000C1240A128A11831203132308C30024088B
:10041000C4002508C5004308A3004408A4004508FB
:10042000A5002430A0007430A1004930A2000A12B7
:100430008A11FC220A128A11831203132008B000C9
:100440002108B1002208B2000A128A1117210A12EB
:100450008A11831203133308CA003208C900310815
:10046000C8003008C7004A08A7004908A600480885
:10047000A5004708A400FF30C6004608A8000A30BF
:100480000A128A11CF230800831203133308B6001F
:100490003408B7003508B8000310370D380DB9001F
:1004A0003908BE003E08031D5C2A0030B000003051
:1004B000B1000030B20008003008B6003108B700C3
:1004C0003208B8000310370D380DB9003908BF00E5
:1004D0003F08031D722A0030B0000030B100003028
:1004E000B20008000030BB000030BC000030BD008E
:1004F00089303F07B6003608BE023308B60034081C
:10050000B7003508B80010300310B80CB70CB60CA3
:10051000FF3E031D842A3608B9003908BF003008A1
:10052000B6003108B7003208B80010300310B80C1C
:10053000B70CB60CFF3E031D962A3608B9003908E1
:10054000BF068030B6003608BF05B417FF30B305CC
:10055000FF30B4050030B505B117FF30B005FF30EE
:10056000B1050030B2051830B6003608BA000130C7
:100570000310BB0DBC0DBD0DFF3E031DB82A320894
:100580003502031DC92A31083402031DC92A300867
:100590003302031CD62A3008B3023108031C310F82
:1005A000B4023208031C320AB5023B1401300310B6
:1005B000B30DB40DB50DFF3E031DD72A0130BA02AD
:1005C000031DB72A3B08F0003C08F1003D08F2008B
:1005D0003E08B6003608F3003F08B7003708F400BD
:1005E0000A128A113120700883120313B0007108B7
:1005F000B1007208B2000800831203132008A6009D
:100600002108A7002208A8000310270D280DA90023
:100610002908AA002A08031D142B0030A00000306E
:10062000A1000030A20008002308A6002408A700AB
:100630002508A8000310270D280DA9002908AF00E0
:100640002F08031D2A2B0030A0000030A10000302D
:10065000A20008002F087B3EA6002608AA07200853
:10066000A6002108A7002208A80010300310A80C3B
:10067000A70CA60CFF3E031D362B2608A90029084F
:10068000AF002308A6002408A7002508A800103002
:100690000310A80CA70CA60CFF3E031D482B260830
:1006A000A9002908AF068030A6002608AF05A117CB
:1006B000A417FF30A305FF30A4050030A5050030C6
:1006C000AB000030AC000030AD000730A6002608BB
:1006D000AE00201C792B2308AB0724080311031854
:1006E000240A031DAC07250803110318250A031D5E
:1006F000AD0701300310A20CA10CA00CFF3E031D9E
:100700007A2B01300310A30DA40DA50DFF3E031D90
:10071000822B0130AE02031D692B0930A60026088A
:10072000AE00201CA12B2308AB07240803110318DB
:10073000240A031DAC07250803110318250A031D0D
:10074000AD0701300310A20CA10CA00CFF3E031D4D
:10075000A22B01300310AD0CAC0CAB0CFF3E031D03
:10076000AA2B0130AE02031D912B2B08F0002C08A0
:10077000F1002D08F2002A08A6002608F3002F0831
:10078000A7002708F4000A128A113120700883128A
:100790000313A0007108A1007208A20008008312D0
:1007A0000313C100C201023041060319162C1A2C92
:1007B0002408A9002508AA002608AB002708AC00D9
:1007C0002808FF3EAD00AD0A0130AE000030AF009A
:1007D000EC2B0310AE0DAF0DAD0BE92B2E08B000C6
:1007E0002F08B1000030B11BFF30B200B300300859
:1007F000A9053108AA053208AB053308AC052C0859
:100800002B042A0429040319072C0130082C00307A
:10081000B4003408C2004208303E0A128A156E261F
:100820000A128A11013083120313A802280803193F
:100830000800D82B2708260425042404031D252C92
:1008400030300A128A156E26080083120313C20183
:10085000280842020318BD2C270826042504240476
:100860000319872C4108A9002908A0002708F700D0
:100870002608F6002508F5002408F4004108AA001F
:10088000AB01AC01AD012D08F3002C08F2002B08E0
:10089000F1002A08F0000A128A153A270A128A1172
:1008A00070080A128A158C260A128A11FF3A013E34
:1008B000831203132407AE004208353E84002E083D
:1008C000831380004108A900AA01AB01AC012C08E8
:1008D000F3002B08F2002A08F1002908F00027088D
:1008E000F7002608F6002508F5002408F4000A128F
:1008F0008A153A270A128A11730883120313A70074
:100900007208A6007108A5007008A400932C280A9C
:100910000319BD2C0B3028020318BD2C4208353EAC
:100920008400831380010130A9002908C207282C04
:100930004208FF3E353E84000A308313000203184C
:10094000A82C4208FF3E353E84000008303EAE2C05
:100950004208FF3E353E84000008373EBF000030AD
:1009600003180130C0003F080A128A156E260A12C9
:100970008A11013083120313C202420803190800CE
:10098000982C831203132308A9002408AA00250821
:10099000AB0003102A0D2B0DAC002C08AF0026086D
:1009A000A9002708AA002808AB0003102A0D2B0D68
:1009B000AC002C08AE002F080319EA2C2E082F02D9
:1009C0000318F12C2F03FF3A2E07A9001930290232
:1009D000031CF12C2608A3002708A4002808A50062
:1009E00008002E08031908002F082E020318002DF6
:1009F0002E03FF3A2F07A900193029020318080017
:100A00000630A9002908AD00A51BAD17A81B2D179E
:100A1000A417FF30A305FF30A4050030A505A717D4
:100A2000FF30A605FF30A7050030A8052E082F02CD
:100A30000318402D01300310A60DA70DA80DFF3E91
:100A4000031D1B2D0130AE022E082F0603193B2D6E
:100A50000130AD022D08073903193B2D1A2D013045
:100A60000310A50CA40CA30CFF3E031D302D013078
:100A7000A9002908AF072F082E060319692D2F2D6D
:100A80002F082E020318692D01300310A30DA40DA9
:100A9000A50DFF3E031D452D0130AF022E082F0688
:100AA0000319652D0130AD022D0807390319652D95
:100AB000442D01300310A80CA70CA60CFF3E031D0B
:100AC0005A2D0130A9002908AE072F082E06031D54
:100AD000592DAD1F7B2DFF30A306FF30A406FF303C
:100AE000A5060130A307003003180130A407003029
:100AF00003180130A5072D1F8D2DFF30A606FF30EE
:100B0000A706FF30A8060130A60700300318013001
:100B1000A707003003180130A807AD012308A60776
:100B2000240803110318240A031DA707250803112D
:100B30000318250A031DA807A81FB02DFF30A6061D
:100B4000FF30A706FF30A8060130A60700300318C3
:100B50000130A707003003180130A807AD01AD0A26
:100B60002608F0002708F1002808F2002F08A90045
:100B70002908F3002D08AA002A08F4000A128A1195
:100B80003120700883120313A3007108A4007208B7
:100B9000A500080083120313D6004B30D000500884
:100BA000E6005608D0005008E300630884000A12EB
:100BB0008A1103200A128A11003A031908006308F7
:100BC00084000A128A1103200A128A11D0005008E8
:100BD000E40025306406031DEF2F0130D0005008DB
:100BE000E307630884000A128A1103200A128A119B
:100BF000D0005008E40030306402031C2C2E3A3040
:100C0000640203182C2EE50130306402031CBD2F52
:100C10003A3064020318BD2F0A30D0005008A000FB
:100C200065080A128A158C260A128A118312031388
:100C30006407D03ED1005108E5000130D0005008D3
:100C4000E307630884000A128A1103200A128A113A
:100C5000D0005008E400042EFF30D0005008E5001A
:100C6000BD2F6608840083130008D0005008E400FC
:100C70000230D0005008E607EF2F831203136608F6
:100C8000840083130008DB00840A0008DC000230C3
:100C9000D0005008E607DC1F582EDB09DC09DB0A10
:100CA0000319DC0A2D300A128A156E260A128A11DF
:100CB000831203135B08A4005C08A5000030A51B89
:100CC000FF30A600A7006508D0005008A8000A3031
:100CD0000A128A11CF230A128A11F52F83120313E5
:100CE0006608840083130008D700840A0008D8002F
:100CF000840A0008D900840A0008DA000430D00011
:100D00005008E607DA1F952ED709D809D909DA095C
:100D1000D70A0319D80A0319D90A0319DA0A2D3098
:100D20000A128A156E260A128A11831203135A08B0
:100D3000A7005908A6005808A5005708A400650890
:100D4000D0005008A8000A300A128A11CF230A12D4
:100D50008A11F52F83120313660884008313000899
:100D6000E100840A0008E2000230D0005008E607E3
:100D70006108A4006208A500A601A7016508D000CB
:100D80005008A8000A300A128A11CF230A128A11C9
:100D9000F52F831203136608840083130008DD0017
:100DA000840A0008DE00840A0008DF00840A0008C4
:100DB000E0000430D0005008E6076008A7005F0894
:100DC000A6005E08A5005D08A4006508D0005008D4
:100DD000A8000A300A128A11CF230A128A11F52FAD
:100DE000831203136608840083130008E100840A59
:100DF0000008E2000230D0005008E6076108A400B5
:100E00006208A500A601A7016508D0005008A80047
:100E100010300A128A11CF230A128A11F52F831279
:100E200003136608840083130008DD00840A0008A9
:100E3000DE00840A0008DF00840A0008E0000430B5
:100E4000D0005008E6076008A7005F08A6005E080B
:100E5000A5005D08A4006508D0005008A800103067
:100E60000A128A11CF230A128A11F52F8312031353
:100E70006608840083130008E100840A0008E20089
:100E80000230D0005008E607650A031D4B2F1030D2
:100E9000D0005008E5006108A4006208A500A60182
:100EA000A7016508D0005008A80002300A128A1174
:100EB000CF230A128A11F52F8312031366088400C8
:100EC00083130008DD00840A0008DE00840A00089D
:100ED000DF00840A0008E0000430D0005008E60774
:100EE000650A031D772F2030D0005008E500600808
:100EF000A7005F08A6005E08A5005D08A4006508BD
:100F0000D0005008A80002300A128A11CF230A121A
:100F10008A11F52F831203136608840083130008D7
:100F2000D200840A0008D300840A0008D4000330E9
:100F3000D0005008E6075208C3005308C400540804
:100F4000C5000A128A11A5210A128A11F52F8312EF
:100F500003136608840083130008D0005008D500EE
:100F60000130D0005008E60755080A128A159F265E
:100F70000A128A11F52F2530F02F8312031364080B
:100F8000253A0319BB2F673A03195C2F013A03195D
:100F9000312E073A03196E2E023A03198A2F153A99
:100FA0000319A72F063A0319C92E0D3A03190F2F5B
:100FB0003A3A0319362F013A0319312E073A031929
:100FC0003D2E023A03198A2F153A0319A72F063A24
:100FD0000319AA2E0D3A0319F02EF52FF52F6408E8
:100FE0000A128A156E260A128A110130831203131F
:100FF000D0005008E307D52D83010A128A15982FD7
:101CCC00831203139F018030831603139F000800B7
:101CDC00F000831203130C1E6F2E0C127008990067
:101CEC00080083120313220821042004031908009E
:101CFC008030A20608007008710403190800013036
:101D0C00F0020030031CF103F102812E8312031345
:101D1C00A300A201231C962E2008A1002108A207D3
:101D2C000310A00D0310A30C2308031D902E2208F2
:101D3C000800F200720884008313000803190800DD
:101D4C0072088400831300080A128A156E260A1280
:101D5C008A150130F1007108F207A02E803083162D
:101D6C0003138700203098009030831203139800DF
:101D7C003308A3003208A2003108A1003008A000EB
:101D8C000A128A119D200800FD01F91FD42EF809B2
:101D9C00F909F80A0319F90AFD01FD0A7808F0009F
:101DAC007908F100F2018E30FB007B08F3007D080E
:101DBC00FC007C08F4000A128A1131207008F8002B
:101DCC007108F9007208FA000800F5007508F400B3
:101DDC0002300310F40DFF3E031DEF2E0310740DA3
:101DEC00831203139F001F143230F0000030F100F7
:101DFC000A128A1581260A128A15831203131F15DB
:101E0C001F19062F1E08F300831603131E08F20079
:101E1C0008008E30FC007C08FD00FF307B050319A8
:101E2C00252F01300310FB0CFA0CF90CF80CFF3EBB
:101E3C00031D182F0130FC007C08FD07132F7808B8
:101E4C00F0007908F1007A08F2007D08FC007C08AB
:101E5C00F300F4010A128A1131207008F80071089D
:101E6C00F9007208FA0008000030FC000030FB009A
:101E7C000030FA000030F900730872047104700429
:101E8C0003198F2FFD01FD0AF31B5A2F0130F800A7
:101E9C000310F00DF10DF20DF30DF80B4E2F013078
:101EAC00F8007808FD074A2F0130F8000310F90DEF
:101EBC00FA0DFB0DFC0DF80B5C2F73087702031D5C
:101ECC00712F72087602031D712F71087502031DA4
:101EDC00712F70087402031C822F7008F4027108B1
:101EEC00031C710FF5027208031C720FF6027308C3
:101EFC00031C730FF702791401300310F30CF20C6E
:101F0C00F10CF00CFF3E031D832F0130FD02031D6D
:101F1C005A2F7C08F3007B08F2007A08F10079084C
:101F2C00F00008000A128A1566260A128A1500307B
:101F3C0083120313B3000030B2002530B10080309F
:101F4C00B0000A128A15B4260A128A1500300A1239
:101F5C008A15EB260A128A15730883120313EB00F9
:101F6C007208EA00C030B0007F30B1004430B200DB
:101F7C000030A000A030A1004030A2006B08F90096
:101F8C006A08F8000A128A15CA260A128A157808F5
:101F9C0083120313A3007908A4007A08A5000A127F
:101FAC008A11FC220A128A15831203132008B3002B
:101FBC002108B4002208B5000A128A1144220A1220
:101FCC008A15831203133008E7003108E800320841
:101FDC00E9006B08CC006A08CB006708CD006808E4
:101FEC00CE006908CF0001300A128A11CA250A12E4
:041FFC008A15AC2F67
:02400E00BA3FB7
:00000001FF
