:100000000A128A11DD2F00308A000408840A820750
:100010000034203420342034203420342034203460
:100020002034573465346C3463346F346D34653444
:10003000203474346F342034503449344334203401
:10004000703472346F346734723461346D346D34AB
:1000500069346E3467342034623479342034453462
:10006000783470346C346F347234653420344534F1
:100070006D346234653464346434653464342034FB
:0200800000344A
:1002EE008034C0349034D03464008001840A040613
:1002FE000319003404067C297008710403190800E0
:10030E000130F0020030031CF103F10283290130A9
:10031E000A128A1150220A128A1100300A128A1108
:10032E00C121080072087304031908002C30F00074
:10033E000130F1000A128A1183210A128A1101304A
:10034E00F2020030031CF303F30299290130FA0084
:10035E007A0883120313C507C40136084502031831
:10036E00C5014508463E8400831300080A128A110F
:10037E0050220800FB008312031336087B02031879
:10038E000800C4017B08FA007A08C5007B08463EC7
:10039E008400831300080A128A1150220800FC0000
:1003AE0083120313370844020318E1290A307C062E
:1003BE00031DE6290A128A11AD210A128A110A308A
:1003CE007C06031908007C080A128A118522013066
:1003DE00FB007B0883120313C4070800F00183128D
:1003EE00031339080A128A1104270A128A11F0011E
:1003FE00831203133A080A128A1104270A128A1169
:10040E00F001F00A831203133B080A128A11042723
:10041E000A128A110A30F0000030F1000A128A1115
:10042E0083210A128A11F001831203133B080A1268
:10043E008A1104270800F001F00A83120313390809
:10044E000A128A1104270A128A11F0018312031369
:10045E003A080A128A1104270A128A11F001F00AC8
:10046E00831203133B080A128A1104270A128A11F7
:10047E000A30F0000030F1000A128A1183210A12AC
:10048E008A11F001831203133B080A128A11042702
:10049E000800F9000A128A11FE240A128A11083085
:1004AE00831203133806031D632A79080A128A1170
:1004BE00FA220A128A117B2A79080A128A11BA22A2
:1004CE000A128A110A128A11F5210A128A11790862
:1004DE00F70003300310F70DFF3E031D712A0310C2
:1004EE00770DF8007808F90079080A128A11BA22F5
:1004FE000A128A110A128A11F5210800F9000A124D
:10050E008A11FE240A128A11083083120313380648
:10051E00031D982A79080A128A11FA220A128A11E0
:10052E00B02A79080A128A11BA220A128A110A12FC
:10053E008A1122220A128A117908F7000330031059
:10054E00F70DFF3E031DA62A0310770DF80078085D
:10055E00F90079080A128A11BA220A128A110A12AD
:10056E008A1122220800F600761EBF2A0130C02A08
:10057E000030F5007508F0008312031340080A12CC
:10058E008A1104270A128A11F61ECF2A0130D02AA8
:10059E000030F5007508F0008312031341080A12AB
:1005AE008A1104270A128A11761FDF2A0130E02AE7
:1005BE000030F5007508F0008312031342080A128A
:1005CE008A1104270A128A11F61FEF2A0130F02A27
:1005DE000030F5007508F0008312031343080A1269
:1005EE008A1104270800F600761CFF2A0130002B22
:1005FE000030F5007508F000831203133C080A1250
:10060E008A1104270A128A11F61C0F2B0130102BA7
:10061E000030F5007508F000831203133D080A122E
:10062E008A1104270A128A11761D1F2B0130202BE6
:10063E000030F5007508F000831203133E080A120D
:10064E008A1104270A128A11F61D2F2B0130302B26
:10065E000030F5007508F000831203133F080A12EC
:10066E008A110427080083120313A0007C08FD00E2
:10067E007D08B7002008FD007D08B600033020027B
:10068E00031C552B7C080F39903EFD007D08C800D9
:10069E007C080F39D03EFD007D08C9006430F200A1
:1006AE000030F3000A128A1199210A128A110830B9
:1006BE00831203133806031D662B3830722B043059
:1006CE00831203133806031D772B0A128A11CC23CB
:1006DE000A128A1128300A128A1150220A128A111D
:1006EE000E300A128A1150220A128A110A128A1127
:1006FE008E21080083120313B401B5010930AA003C
:10070E002A08A0000A30AB002B08A100FF30AC0075
:10071E002C08A200FF30AD002D08A300FF30AE0064
:10072E002E08A400FF30AF002F08A5000C30B0003B
:10073E003008A6000D30B1003108A7000E30B2000F
:10074E003208A8000F30B3003308A90008300A128F
:10075E008A118A250A128A11103083120313AA00F5
:10076E002A08FC0002300A128A113A230A128A1150
:10077E00013083120313AA002A08FD0000300A126A
:10078E008A111B240A128A11BF2B30300A128A11C9
:10079E00BA220A128A110A128A11F5210A128A1134
:1007AE006430F2000030F3000A128A1199210A1205
:1007BE008A1130300A128A11BA220A128A110A12CA
:1007CE008A11F5210A128A11C830F0000030F100AA
:1007DE000A128A1183210A128A1130300A128A11E2
:1007EE00BA220A128A110A128A11F5210A128A11E4
:1007FE00C830F0000030F1000A128A1183210A126B
:10080E008A1120300A128A11BA220A128A110A1289
:10081E008A11F5210A128A11C830F0000030F10059
:10082E000A128A118321080083120313A1003608CD
:10083E0021020318A1010C300A128A1150220A1249
:10084E008A1183120313A20122087D0784000A1263
:10085E008A1103200A128A11003A0319842C2108E6
:10086E000A128A11C1210A128A1183120313A301DB
:10087E00370823020318702C230822077D078400F3
:10088E000A128A1103200A128A11003A0319702CD7
:10089E00230822077D0784000A128A1103200A12F8
:1008AE008A110A128A11D6210A128A110130831274
:1008BE000313A0002008A3073F2C20300A128A1130
:1008CE00D6210A128A11013083120313A0002008C8
:1008DE00A30737082302031C642CC830F200003033
:1008EE00F3000A128A1199210A128A110130831219
:1008FE000313A0002008A2072B2C0E300A128A1117
:10090E0050220800F400F3017408F00003300310C5
:10091E00F00CFF3E031D8E2C7008F1007108F200E2
:10092E0074080739F0007008F400EB2C0130F00069
:10093E00740AA32C0310F00DFF3E031DA12C7008AA
:10094E00831203130505E22C0130F000740AB12C5A
:10095E000310F00DFF3E031DAF2C7008831203131E
:10096E000605E22C0130F000740ABF2C0310F00DC6
:10097E00FF3E031DBD2C7008831203130705E22CE6
:10098E000130F000740ACD2C0310F00DFF3E031D54
:10099E00CB2C7008831203130805E22C0130F000F3
:1009AE00740ADB2C0310F00DFF3E031DD92C7008CA
:1009BE008312031309050319E62C0130E72C0030CE
:1009CE00F1007108F300FC2C7208003A03199D2CFB
:1009DE00013A0319AB2C033A0319B92C013A031946
:1009EE00C72C073A0319D52CFC2C73080800831268
:1009FE0003133A0A031D822DF001F00A43080A126E
:100A0E008A112B260A128A11F00183120313390858
:100A1E000A128A1104270A128A11F001F00A8312AF
:100A2E0003133A080A128A1104270A128A11F001D6
:100A3E00831203133B080A128A1104270A128A1121
:100A4E000A30F0000030F1000A128A1183210A12D6
:100A5E008A11F001F00A831203133B080A128A115D
:100A6E0004270A128A110A30F0000030F1000A122F
:100A7E008A1183210A128A118312031343080A1260
:100A8E008A1189240A128A11F5007508F6000430BD
:100A9E00831203133806031D772DF0013B080A124B
:100AAE008A1104270A128A110A30F0000030F10070
:100ABE000A128A1183210A128A11F001F00A831296
:100ACE0003133B080A128A1104270A128A110A30EC
:100ADE00F0000030F1000A128A1183210A128A11E5
:100AEE007608031D1E2DF0018312031343080A120C
:100AFE008A112B2608000130F2000030F3000A1292
:100B0E008A1199210800F6007608F50075088312FF
:100B1E000313B9002008F5007508BA002108F50086
:100B2E007508BB002208F5007508BC002308F50007
:100B3E007508BD002408F5007508BE002508F500EF
:100B4E007508BF002608F5007508C0002708F500D7
:100B5E007508C1002808F5007508C2002908F500BF
:100B6E007508C300220A0319C42D230A0319C42DC4
:100B7E00240A031D250A031DC92D0430F50075082E
:100B8E00B800EF2D0830F5007508B800F001220806
:100B9E000A128A112B260A128A11F00183120313EC
:100BAE0023080A128A112B260A128A11F0018312C7
:100BBE00031324080A128A112B260A128A11F00135
:100BCE008312031325080A128A112B260A128A1180
:100BDE00F00176080A128A112B260A128A11F001E8
:100BEE008312031320080A128A112B260A128A1165
:100BFE00F0018312031321080A128A112B260A12FE
:100C0E008A11F0018312031326080A128A112B2669
:100C1E000A128A11F0018312031327080A128A118D
:100C2E002B260A128A11F0018312031328080A12C6
:100C3E008A112B260A128A11F00183120313290836
:100C4E000A128A112B260800F4007408F1000330F2
:100C5E000310F10CFF3E031D2F2E7108F2007208D7
:100C6E00F30074080739F1007108F400F22E7008D1
:100C7E000319512E0130F100740A472E0310F10DA5
:100C8E00FF3E031D452E7108F200720883160313F2
:100C9E00850408000130F100740A572E0310F10D7F
:100CAE00FF3E031D552E7108FF3AF200720883169F
:100CBE0003138505080070080319752E0130F10025
:100CCE00740A6B2E0310F10DFF3E031D692E710881
:100CDE00F200720883160313860408000130F10037
:100CEE00740A7B2E0310F10DFF3E031D792E710841
:100CFE00FF3AF20072088316031386050800700887
:100D0E000319992E0130F100740A8F2E0310F10D84
:100D1E00FF3E031D8D2E7108F20072088316031319
:100D2E00870408000130F100740A9F2E0310F10DA4
:100D3E00FF3E031D9D2E7108FF3AF20072088316C6
:100D4E0003138705080070080319BD2E0130F1004A
:100D5E00740AB32E0310F10DFF3E031DB12E710860
:100D6E00F200720883160313880408000130F100A4
:100D7E00740AC32E0310F10DFF3E031DC12E710820
:100D8E00FF3AF200720883160313880508007008F4
:100D9E000319E12E0130F100740AD72E0310F10D64
:100DAE00FF3E031DD52E7108F20072088316031341
:100DBE00890408000130F100740AE72E0310F10DCA
:100DCE00FF3E031DE52E7108FF3AF20072088316EE
:100DDE000313890508007308003A03193E2E013AE1
:100DEE000319622E033A0319862E013A0319AA2E0D
:100DFE00073A0319CE2E032F0800F4007408F100F1
:100E0E0003300310F10CFF3E031D082F7108F20092
:100E1E007208F30074080739F1007108F400CB2F43
:100E2E00700803192A2F0130F100740A202F0310C5
:100E3E00F10DFF3E031D1E2F7108F2007208831282
:100E4E000313850408000130F100740A302F0310DB
:100E5E00F10DFF3E031D2E2F7108FF3AF2007208AE
:100E6E008312031385050800700803194E2F0130F5
:100E7E00F100740A442F0310F10DFF3E031D422FA3
:100E8E007108F20072088312031386040800013001
:100E9E00F100740A542F0310F10DFF3E031D522F63
:100EAE007108FF3AF20072088312031386050800D8
:100EBE0070080319722F0130F100740A682F0310A5
:100ECE00F10DFF3E031D662F7108F20072088312AA
:100EDE000313870408000130F100740A782F031001
:100EEE00F10DFF3E031D762F7108FF3AF2007208D6
:100EFE00831203138705080070080319962F01301B
:100F0E00F100740A8C2F0310F10DFF3E031D8A2F82
:100F1E007108F2007208831203138804080001306E
:100F2E00F100740A9C2F0310F10DFF3E031D9A2F42
:100F3E007108FF3AF2007208831203138805080045
:100F4E0070080319BA2F0130F100740AB02F031084
:100F5E00F10DFF3E031DAE2F7108F20072088312D1
:100F6E000313890408000130F100740AC02F031026
:100F7E00F10DFF3E031DBE2F7108FF3AF2007208FD
:100F8E0083120313890508007308003A0319172FFB
:100F9E00013A03193B2F033A03195F2F013A031944
:100FAE00832F073A0319A72FDC2F0800831336303F
:100FBE00840046300A128A117B210A128A110A1203
:100FCE008A1177210A128A11C6000A128A11782113
:100FDE000A128A11C7000A128A1179210A128A117D
:100FEE00C8000A128A117A21C90083010A128A11D5
:020FFE00812B45
:02400E00BA3FB7
:00000001FF
