:060000000A128A11FC2F18
:100DDE00F000831203130C1EF02E0C1270089900F3
:100DEE00080080308316031387002030980090305F
:100DFE008312031398003308A3003208A2003108AF
:100E0E00A1003008A0000A128A11822708000030C3
:100E1E0083120313B3000030B2002530B1008030CE
:100E2E00B0000A128A11F8260A128A1165300A12C7
:100E3E008A11EF260A128A111D2F0030FC00003095
:100E4E00FB000030FA000030F900730872047104E0
:100E5E0070040319792FFD01FD0AF31B442F013095
:100E6E00F8000310F00DF10DF20DF30DF80B382F05
:100E7E000130F8007808FD07342F0130F800031018
:100E8E00F90DFA0DFB0DFC0DF80B462F73087702CA
:100E9E00031D5B2F72087602031D5B2F710875020E
:100EAE00031D5B2F70087402031C6C2F7008F40274
:100EBE007108031C710FF5027208031C720FF60203
:100ECE007308031C730FF702791401300310F30C2F
:100EDE00F20CF10CF00CFF3E031D6D2F0130FD02E4
:100EEE00031D442F7C08F3007B08F2007A08F10002
:100EFE007908F0000800831203132308031D942FB2
:100F0E002208031D942F09302102031D922F6030F9
:100F1E002002031D922F031CEF2F2308031DEF2F1A
:100F2E0001302202031DA32FC2302102031DA32F65
:100F3E0001302002031DA32F0318EF2FFF30A40052
:100F4E00FF30A500FF30A600FF30A7002008A80044
:100F5E002108A9002208AA002308AB0006300310BE
:100F6E00A80DA90DAA0DAB0DFF3E031DB62F2B0824
:100F7E00F3002A08F2002908F1002808F0000130D9
:100F8E00F7003130F6002D30F5000030F4000A1273
:100F9E008A1124270A128A11700883120313A407D8
:100FAE0071080318710FDC2FDD2FA50772080318C7
:100FBE00720FE22FE32FA60773080318730AA70711
:100FCE002708AF002608AE002508AD002408F62F2E
:100FDE000030AF000030AE000030AD001F30AC006E
:100FEE002C08831603139900080083010A128A1134
:020FFE000E2FB4
:02400E00BA3FB7
:00000001FF
