:060000000A128A11D42F40
:10000A00F001F00A8316031336080A128A11DD2159
:10001A000A128A11F0018316031337080A128A1189
:10002A00DD210A128A11F001F00A83160313380837
:10003A000A128A11DD210A128A110A30F0000030F0
:10004A00F1000A128A1570200A128A11F001831629
:10005A00031338080A128A11DD210800F60076080F
:10006A00F500750883160313B600831203132008DC
:10007A00F500750883160313B700831203132108CA
:10008A00F500750883160313B800831203132208B8
:10009A00F500750883160313B900831203132308A6
:1000AA00F500750883160313BA0083120313240894
:1000BA00F500750883160313BB0083120313250882
:1000CA00F500750883160313BC0083120313260870
:1000DA00F500750883160313BD008312031327085E
:1000EA00F500750883160313BE008312031328084C
:1000FA00F500750883160313BF008312031329083A
:10010A00F500750883160313C00083120313220A2D
:10011A0003199728230A03199728240A031D250A75
:10012A00031D9E280430F500750883160313B500D5
:10013A00C8280830F500750883160313B500F001C6
:10014A008312031322080A128A1104210A128A113D
:10015A00F0018312031323080A128A1104210A12D6
:10016A008A11F0018312031324080A128A11042146
:10017A000A128A11F0018312031325080A128A113E
:10018A0004210A128A11F00176080A128A1104213E
:10019A000A128A11F0018312031320080A128A1123
:1001AA0004210A128A11F0018312031321080A1288
:1001BA008A1104210A128A11F001831203132608F4
:1001CA000A128A1104210A128A11F00183120313F6
:1001DA0027080A128A1104210A128A11F0018312CD
:1001EA00031328080A128A1104210A128A11F0013B
:1001FA008312031329080A128A1104210800F40041
:10020A007408F10003300310F10CFF3E031D0829A6
:10021A007108F2007208F30074080739F1007108D6
:10022A00F400CB29700803192A290130F100740A55
:10023A0020290310F10DFF3E031D1E297108F2004B
:10024A00720883160313850408000130F100740A4A
:10025A0030290310F10DFF3E031D2E297108FF3AC4
:10026A00F200720883160313850508007008031943
:10027A004E290130F100740A44290310F10DFF3EA2
:10028A00031D42297108F2007208831603138604BB
:10029A0008000130F100740A54290310F10DFF3EE1
:1002AA00031D52297108FF3AF200720883160313DC
:1002BA00860508007008031972290130F100740AD2
:1002CA0068290310F10DFF3E031D66297108F2002B
:1002DA00720883160313870408000130F100740AB8
:1002EA0078290310F10DFF3E031D76297108FF3AA4
:1002FA00F2007208831603138705080070080319B1
:10030A0096290130F100740A8C290310F10DFF3E81
:10031A00031D8A297108F2007208831603138804E0
:10032A0008000130F100740A9C290310F10DFF3E08
:10033A00031D9A297108FF3AF20072088316031303
:10034A008805080070080319BA290130F100740AF7
:10035A00B0290310F10DFF3E031DAE297108F2000A
:10036A00720883160313890408000130F100740A25
:10037A00C0290310F10DFF3E031DBE297108FF3A83
:10038A00F200720883160313890508007308003AFD
:10039A0003191729013A03193B29033A03195F295B
:1003AA00013A03198329073A0319A729DC29080006
:1003BA00F4007408F10003300310F10CFF3E031D32
:1003CA00E1297108F2007208F30074080739F10094
:1003DA007108F400A42A70080319032A0130F100F5
:1003EA00740AF9290310F10DFF3E031DF72971085C
:1003FA00F200720883120313850408000130F10029
:10040A00740A092A0310F10DFF3E031D072A710819
:10041A00FF3AF20072088312031385050800700878
:10042A000319272A0130F100740A1D2A0310F10D5D
:10043A00FF3E031D1B2A7108F20072088312031380
:10044A00860408000130F100740A2D2A0310F10D08
:10045A00FF3E031D2B2A7108FF3AF200720883122D
:10046A00031386050800700803194B2A0130F100AE
:10047A00740A412A0310F10DFF3E031D3F2A710839
:10048A00F200720883120313870408000130F10096
:10049A00740A512A0310F10DFF3E031D4F2A7108F9
:1004AA00FF3AF200720883120313870508007008E6
:1004BA0003196F2A0130F100740A652A0310F10D3D
:1004CA00FF3E031D632A7108F200720883120313A8
:1004DA00880408000130F100740A752A0310F10D2E
:1004EA00FF3E031D732A7108FF3AF2007208831255
:1004FA0003138805080070080319932A0130F100D4
:10050A00740A892A0310F10DFF3E031D872A710818
:10051A00F200720883120313890408000130F10003
:10052A00740A992A0310F10DFF3E031D972A7108D8
:10053A00FF3AF20072088312031389050800730850
:10054A00003A0319F029013A0319142A033A031944
:10055A00382A013A03195C2A073A0319802AB52A6C
:10056A000800093083160313A0002008831203131E
:10057A00A0000A3083160313A10021088312031373
:10058A00A100FF3083160313A2002208831203136B
:10059A00A200FF3083160313A30023088312031358
:1005AA00A300FF3083160313A40024088312031345
:1005BA00A400FF3083160313A50025088312031332
:1005CA00A5000C3083160313A60026088312031312
:1005DA00A6000D3083160313A700270883120313FE
:1005EA00A7000E3083160313A800280883120313EA
:1005FA00A8000F3083160313A900290883120313D6
:10060A00A90008300A128A1133200A128A111030FE
:10061A0083160313A0002008FC0002300A128A1570
:10062A000D230A128A110A128A153B210A128A110B
:10063A00103083160313A0002008AE004030A0003B
:10064A002008AD00AC01B001B00AB101B10A163000
:10065A00A0002008B2000530A0002008AF00AC308E
:10066A000A128A155E230A128A11AC300A128A15F6
:10067A00F7240A128A1100300A128A15D3200A12A4
:10068A008A11831603132E08A000A10120088312E1
:10069A000313CB0083160313210883120313CC0020
:1006AA00831603132D08A200A30122088312031341
:1006BA00CD0083160313230883120313CE00831677
:1006CA0003132C08A400A501240883120313CF00E6
:1006DA0083160313250883120313D000831603130A
:1006EA003008A600A701260883120313D100831637
:1006FA000313270883120313D20083160313310846
:10070A00A800A901280883120313D3008316031330
:10071A00290883120313D400831603133208AA008C
:10072A00AB012A0883120313D500831603132B087F
:10073A0083120313D60001300A128A11A2250A1263
:10074A008A113A2B83120313C100C20102304106F7
:10075A000319EE2BF22B2408A9002508AA00260863
:10076A00AB002708AC002808FF3EAD00AD0A0130F7
:10077A00AE000030AF00C42B0310AE0DAF0DAD0BB1
:10078A00C12B2E08B0002F08B1000030B11BFF307A
:10079A00B200B3003008A9053108AA053208AB0532
:1007AA003308AC052C082B042A0429040319DF2B6F
:1007BA000130E02B0030B4003408C2004208303E59
:1007CA000A128A155B210A128A1101308312031355
:1007DA00A802280803190800B02B270826042504B4
:1007EA002404031DFD2B30300A128A155B210800F0
:1007FA0083120313C201280842020318952C270802
:10080A0026042504240403195F2C4108A900290899
:10081A00A0002708F7002608F6002508F500240896
:10082A00F4004108AA00AB01AC01AD012D08F300A8
:10083A002C08F2002B08F1002A08F0000A128A1587
:10084A00B8230A128A1170080A128A15AC200A12F1
:10085A008A11FF3A013E831203132407AE004208AD
:10086A00353E84002E08831380004108A900AA019E
:10087A00AB01AC012C08F3002B08F2002A08F100A6
:10088A002908F0002708F7002608F6002508F500D1
:10089A002408F4000A128A15B8230A128A11730866
:1008AA0083120313A7007208A6007108A500700836
:1008BA00A4006B2C280A0319952C0B302802031864
:1008CA00952C4208353E8400831380010130A9002B
:1008DA002908C207002C4208FF3E353E84000A3030
:1008EA00831300020318802C4208FF3E353E840021
:1008FA000008303E862C4208FF3E353E8400000840
:10090A00373EBF00003003180130C0003F080A120A
:10091A008A155B210A128A11013083120313C2025B
:10092A00420803190800702C831203132308A90034
:10093A002408AA002508AB0003102A0D2B0DAC00D1
:10094A002C08AF002608A9002708AA002808AB002F
:10095A0003102A0D2B0DAC002C08AE002F0803192A
:10096A00C22C2E082F020318C92C2F03FF3A2E0778
:10097A00A90019302902031CC92C2608A30027083C
:10098A00A4002808A50008002E08031908002F084B
:10099A002E020318D82C2E03FF3A2F07A90019306C
:1009AA002902031808000630A9002908AD00A51B72
:1009BA00AD17A81B2D17A417FF30A305FF30A405F8
:1009CA000030A505A717FF30A605FF30A7050030A0
:1009DA00A8052E082F020318182D01300310A60DA2
:1009EA00A70DA80DFF3E031DF32C0130AE022E0801
:1009FA002F060319132D0130AD022D0807390319EB
:100A0A00132DF22C01300310A50CA40CA30CFF3EED
:100A1A00031D082D0130A9002908AF072F082E064B
:100A2A000319412D072D2F082E020318412D0130DD
:100A3A000310A30DA40DA50DFF3E031D1D2D0130AE
:100A4A00AF022E082F0603193D2D0130AD022D08E5
:100A5A00073903193D2D1C2D01300310A80CA70CD2
:100A6A00A60CFF3E031D322D0130A9002908AE074E
:100A7A002F082E06031D312DAD1F532DFF30A3065F
:100A8A00FF30A406FF30A5060130A3070030031883
:100A9A000130A407003003180130A5072D1F652D6A
:100AAA00FF30A606FF30A706FF30A8060130A607CA
:100ABA00003003180130A707003003180130A807D7
:100ACA00AD012308A607240803110318240A031DED
:100ADA00A707250803110318250A031DA807A81F3D
:100AEA00882DFF30A606FF30A706FF30A806013082
:100AFA00A607003003180130A70700300318013099
:100B0A00A807AD01AD0A2608F0002708F100280859
:100B1A00F2002F08A9002908F3002D08AA002A08C4
:100B2A00F4000A128A151624700883120313A3000C
:100B3A007108A4007208A500080083120313DD00DF
:100B4A004B30D7005708ED005D08D7005708EA0078
:100B5A006A0884000A128A1500200A128A11003AC9
:100B6A00031908006A0884000A128A1500200A126A
:100B7A008A11D7005708EB0025306B06031DC72FD3
:100B8A000130D7005708EA076A0884000A128A1552
:100B9A0000200A128A11D7005708EB0030306B0286
:100BAA00031C042E3A306B020318042EEC01303079
:100BBA006B02031C952F3A306B020318952F0A30EB
:100BCA00D7005708A0006C080A128A15AC200A122E
:100BDA008A11831203136B07D03ED8005808EC0021
:100BEA000130D7005708EA076A0884000A128A15F2
:100BFA0000200A128A11D7005708EB00DC2DFF30BB
:100C0A00D7005708EC00952F6D088400831300085D
:100C1A00D7005708EB000230D7005708ED07C72F57
:100C2A00831203136D08840083130008E200840A08
:100C3A000008E3000230D7005708ED07E31F302E03
:100C4A00E209E309E20A0319E30A2D300A128A15B6
:100C5A005B210A128A11831203136208A400630833
:100C6A00A5000030A51BFF30A600A7006C08D7001E
:100C7A005708A8000A300A128A11A7230A128A11F1
:100C8A00CD2F831203136D08840083130008DE003E
:100C9A00840A0008DF00840A0008E000840A0008C9
:100CAA00E1000430D7005708ED07E11F6D2EDE0979
:100CBA00DF09E009E109DE0A0319DF0A0319E00A7C
:100CCA000319E10A2D300A128A155B210A128A11C8
:100CDA00831203136108A7006008A6005F08A50035
:100CEA005E08A4006C08D7005708A8000A300A1248
:100CFA008A11A7230A128A11CD2F831203136D08B2
:100D0A00840083130008E800840A0008E90002301E
:100D1A00D7005708ED076808A4006908A500A601CE
:100D2A00A7016C08D7005708A8000A300A128A11CE
:100D3A00A7230A128A11CD2F831203136D08840088
:100D4A0083130008E400840A0008E500840A000806
:100D5A00E600840A0008E7000430D7005708ED07C8
:100D6A006708A7006608A6006508A5006408A4002D
:100D7A006C08D7005708A8000A300A128A11A7235C
:100D8A000A128A11CD2F831203136D08840083136C
:100D9A000008E800840A0008E9000230D700570872
:100DAA00ED076808A4006908A500A601A7016C0858
:100DBA00D7005708A80010300A128A11A7230A126E
:100DCA008A11CD2F831203136D0884008313000840
:100DDA00E400840A0008E500840A0008E600840AA0
:100DEA000008E7000430D7005708ED076708A70096
:100DFA006608A6006508A5006408A4006C08D70068
:100E0A005708A80010300A128A11A7230A128A1159
:100E1A00CD2F831203136D08840083130008E800A2
:100E2A00840A0008E9000230D7005708ED076C0A67
:100E3A00031D232F1030D7005708EC006808A400C0
:100E4A006908A500A601A7016C08D7005708A800E1
:100E5A0002300A128A11A7230A128A11CD2F83128D
:100E6A0003136D08840083130008E400840A000851
:100E7A00E500840A0008E600840A0008E700043056
:100E8A00D7005708ED076C0A031D4F2F1030D70003
:100E9A005708EC006708A7006608A6006508A500C1
:100EAA006408A4006C08D7005708A80002300A1288
:100EBA008A11A7230A128A11CD2F831203136D08F0
:100ECA00840083130008D900840A0008DA00840A1F
:100EDA000008DB000330D7005708ED075908C300A4
:100EEA005A08C4005B08C5000A128A1590260A121D
:100EFA008A11CD2F831203136D088400831300080F
:100F0A00D7005708DC000130D7005708ED075C0806
:100F1A000A128A1502210A128A11CD2F2530C82FEA
:100F2A00831203136B08253A0319932F673A03199F
:100F3A00342F013A0319092E073A0319462E023AA9
:100F4A000319622F153A03197F2F063A0319A12EA6
:100F5A000D3A0319E72E3A3A03190E2F013A0319EB
:100F6A00092E073A0319152E023A0319622F153A68
:100F7A0003197F2F063A0319822E0D3A0319C82E38
:100F8A00CD2FCD2F6B080A128A155B210A128A11FE
:100F9A00013083120313D7005708EA07AD2DEE017B
:100FAA00EF0183160313B301B401B501B601B7010A
:100FBA00B801B901BA01BB01BC01BD01BE01BF0143
:100FCA00C0010A128A1548200A128A11C1000A129F
:100FDA008A1549200A128A11C2000A128A154A2061
:100FEA000A128A11C3000A128A154B20C40083010F
:100FFA000A128A11B62A08308A000408840A82076B
:10100A000034743469346D3465343A3425343234F6
:10101A0078343A342534323478343A342534323414
:10102A007834203420340A344434613474346534D6
:10103A003A342534323478342F34253432347834FF
:0A104A002F3425343234783400349A
:101090008034C0349034D034831603131114111CDF
:1010A00008004F28831603131115111D0800552839
:1010B0008316031391121116111E08005C28831663
:1010C000031391161116111E0800632883120313CF
:1010D000220821042004031908008030A206080019
:1010E00070087104031908000130F0020030031C7D
:1010F000F103F102702801300A128A15D4210A1274
:101100008A1500300A128A15D320080083160313AB
:10111000111C91188628111D91198628141D08008C
:101120008628F000700883120313930083160313BC
:10113000141896280A128A158620080083160313AD
:101140008715071694172830831203139400323042
:10115000831603139300080083120313A300A20154
:10116000231CB6282008A1002108A2070310A00D07
:101170000310A30C2308031DB028220808007208DE
:101180007304031908002C30F0000130F1000A123A
:101190008A1570200A128A150130F2020030031CF1
:1011A000F303F302BF28FB008316031333087B020B
:1011B0000318080083120313EE017B08FA007A0873
:1011C000EF007B08C13E8400831300080A128A15D1
:1011D000D42108000130FA007A0883120313EF07C4
:1011E000EE01831603133308831203136F020318EF
:1011F000EF016F08C13E8400831300080A128A15AC
:10120000D421080083120313A00020088400831354
:1012100000080319080020088400831300080A123C
:101220008A155B210A128A150130FD007D088312A0
:101230000313A0070529F100F2018316031391158A
:10124000141C2029831203131308F0007008F20005
:101250000A128A1586200A128A157103031D36297F
:101260000A128A1558200A128A1539290A128A1573
:101270005F20720808000A128A159E200A128A1539
:101280000A128A154C200A128A15D0300A128A15C1
:1012900091200A128A1507300A128A1591200A1223
:1012A0008A1500300A128A1591200A128A150A122C
:1012B0008A1552200800FC00831603133408831299
:1012C00003136E02031868290A307C06031D6D297A
:1012D0000A128A15EA200A128A150A307C060319B6
:1012E00008007C080A128A1509220130FB007B08DD
:1012F00083120313EE0708008E30FC007C08FD000B
:10130000FF307B050319922901300310FB0CFA0C06
:10131000F90CF80CFF3E031D85290130FC007C0808
:10132000FD0780297808F0007908F1007A08F200BA
:101330007D08FC007C08F300F4010A128A151624CB
:101340007008F8007108F9007208FA000800F0014E
:101350008316031336080A128A11DD210A128A1530
:10136000F0018316031337080A128A11DD210A12CD
:101370008A15F001F00A8316031338080A128A113D
:10138000DD210A128A150A30F0000030F1000A123D
:101390008A1570200A128A15F00183160313380883
:1013A0000A128A11DD210800F9000A128A15762531
:1013B0000A128A150830831603133506031DE72920
:1013C00079080A128A157E220A128A15FF297908DD
:1013D0000A128A153E220A128A150A128A15A721B4
:1013E0000A128A157908F70003300310F70DFF3E43
:1013F000031DF5290310770DF8007808F900790826
:101400000A128A153E220A128A150A128A15A72183
:101410000800F9000A128A1576250A128A15083082
:10142000831603133506031D1C2A79080A128A1530
:101430007E220A128A15342A79080A128A153E2257
:101440000A128A150A128A1105200A128A157908C9
:10145000F70003300310F70DFF3E031D2A2A031087
:10146000770DF8007808F90079080A128A153E22EB
:101470000A128A150A128A1105200800F600761E43
:10148000432A0130442A0030F5007508F000831625
:1014900003133D080A128A11DD210A128A15F61E6D
:1014A000532A0130542A0030F5007508F0008316E5
:1014B00003133E080A128A11DD210A128A15761FCB
:1014C000632A0130642A0030F5007508F0008316A5
:1014D00003133F080A128A11DD210A128A15F61F2A
:1014E000732A0130742A0030F5007508F000831665
:1014F000031340080A128A11DD210800F600761C49
:10150000832A0130842A0030F5007508F000831624
:10151000031339080A128A11DD210A128A15F61CF2
:10152000932A0130942A0030F5007508F0008316E4
:1015300003133A080A128A11DD210A128A15761D50
:10154000A32A0130A42A0030F5007508F0008316A4
:1015500003133B080A128A11DD210A128A15F61DAF
:10156000B32A0130B42A0030F5007508F000831664
:1015700003133C080A128A11DD21080030300A12D8
:101580008A153E220A128A150A128A15A7210A1202
:101590008A156430F2000030F3000A128A15BF2069
:1015A0000A128A1530300A128A153E220A128A154A
:1015B0000A128A15A7210A128A15C830F0000030D5
:1015C000F1000A128A1570200A128A1530300A12A8
:1015D0008A153E220A128A150A128A15A7210A12B2
:1015E0008A15C830F0000030F1000A128A15702008
:1015F0000A128A1520300A128A153E220A128A150A
:101600000A128A15A7210A128A15C830F000003084
:10161000F1000A128A157020080083120313A0003B
:101620007C08FD007D0883160313B40083120313A6
:101630002008FD007D0883160313B30003308312D6
:1016400003132002031C322B7C080F39903EFD004F
:101650007D0883160313C3007C080F39D03EFD00BC
:101660007D08C4006430F2000030F3000A128A15CD
:10167000BF200A128A150830831603133506031D8E
:10168000432B38304F2B0430831603133506031DCC
:10169000542B0A128A15BE220A128A1528300A1201
:1016A0008A15D4210A128A150E300A128A15D421FD
:1016B0000A128A150A128A157B200800F1000A1204
:1016C0008A154C200A128A15D0300A128A159120E8
:1016D0000A128A1500300A128A1591200A128A15F8
:1016E00071088400831300080A128A1591200A12D7
:1016F0008A15710A8400831300080A128A15912042
:101700000A128A157108023E8400831300080A1227
:101710008A1591200A128A157108033E84008313EA
:1017200000080A128A1591200A128A157108043ECF
:101730008400831300080A128A1591200A128A1560
:101740007108053E8400831300080A128A1591204F
:101750000A128A157108063E8400831300080A12D3
:101760008A1591200A128A150A128A155220080039
:101770000030FC000030FB000030FA000030F900BF
:10178000730872047104700403190D2CFD01FD0A25
:10179000F31BD82B0130F8000310F00DF10DF20D02
:1017A000F30DF80BCC2B0130F8007808FD07C82B9F
:1017B0000130F8000310F90DFA0DFB0DFC0DF80BCC
:1017C000DA2B73087702031DEF2B72087602031DD4
:1017D000EF2B71087502031DEF2B70087402031CB8
:1017E000002C7008F4027108031C710FF5027208D6
:1017F000031C720FF6027308031C730FF7027914AF
:1018000001300310F30CF20CF10CF00CFF3E031D41
:10181000012C0130FD02031DD82B7C08F3007B084E
:10182000F2007A08F1007908F00008007308031943
:101830001E2C720871047004031D312C0030F0005E
:101840000030F1000030F20008000130F5007508AA
:10185000F30701300310F20CF10CF00CFF3E031DF6
:101860002A2CFE30720503194C2C252C0130F50072
:101870007508F3070130F007003003180130F10755
:10188000003003180130F20701300310F20CF10CA4
:10189000F00CFF3E031D452CFF30720503195B2C35
:1018A000362C0130F30201300310F00DF10DF20D72
:1018B000FF3E031D542CF11B612C023073020318F0
:1018C000512C7318692CFF30F0057F30F105FF3083
:1018D000F2050310F30C7308F500F601F701103060
:1018E0000310F50DF60DF70DFF3E031D702C750866
:1018F000F0047608F1047708F2047408031908006C
:10190000F2170800F400F3017408F000033003102C
:10191000F00CFF3E031D872C7008F1007108F200E7
:1019200074080739F0007008F400E42C0130F0006E
:10193000740A9C2C0310F00DFF3E031D9A2C7008B6
:10194000831203130505DB2C0130F000740AAA2C66
:101950000310F00DFF3E031DA82C70088312031323
:101960000605DB2C0130F000740AB82C0310F00DD2
:10197000FF3E031DB62C7008831203130705DB2CF2
:101980000130F000740AC62C0310F00DFF3E031D59
:10199000C42C7008831203130805DB2C0130F000FF
:1019A000740AD42C0310F00DFF3E031DD22C7008D6
:1019B0008312031309050319DF2C0130E02C0030DA
:1019C000F1007108F300F52C7208003A0319962C07
:1019D000013A0319A42C033A0319B22C013A031952
:1019E000C02C073A0319CE2CF52C73080800F4001C
:1019F0000A128A154C200A128A15D0300A128A154A
:101A000091200A128A1500300A128A1591200A12B2
:101A10008A150A128A1552200A128A150A128A1584
:101A20004C200A128A15D1300A128A1591200A1206
:101A30008A1501300A128A151B210A128A15F30031
:101A40007408840073088313800001300A128A1519
:101A50001B210A128A15F300740A84007308831389
:101A6000800001300A128A151B210A128A15F30020
:101A70007408023E840073088313800001300A1248
:101A80008A151B210A128A15F3007408033E84008C
:101A900073088313800001300A128A151B210A1271
:101AA0008A15F3007408043E8400730883138000D1
:101AB00001300A128A151B210A128A15F3007408D4
:101AC000053E840073088313800000300A128A15D3
:101AD0001B210A128A15F3007408063E840073085D
:101AE000831380000A128A155220080083160313FC
:101AF000370A031DFA2DF001F00A40080A128A1174
:101B000004210A128A15F0018316031336080A12FB
:101B10008A11DD210A128A15F001F00A83160313D7
:101B200037080A128A11DD210A128A15F00183167C
:101B3000031338080A128A11DD210A128A150A30A5
:101B4000F0000030F1000A128A1570200A128A157E
:101B5000F001F00A8316031338080A128A11DD21F6
:101B60000A128A150A30F0000030F1000A128A15B4
:101B700070200A128A158316031340080A128A1568
:101B800082240A128A15F5007508F60004308316BF
:101B900003133506031DEF2DF00138080A128A11D0
:101BA000DD210A128A150A30F0000030F1000A1215
:101BB0008A1570200A128A15F001F00A83160313A1
:101BC00038080A128A11DD210A128A150A30F0003B
:101BD0000030F1000A128A1570200A128A15760860
:101BE000031D962DF0018316031340080A128A1173
:101BF000042108000130F2000030F3000A128A15B7
:101C0000BF200800831203132A08AE002B08AF0080
:101C10002C08B00003102F0D300DB1003108B700B3
:101C20003708031D1C2E0030AD000030AC00003022
:101C3000AB000030AA0008002A08AE002B08AF0055
:101C40002C08B00017300310B00CAF0CAE0CFF3EE8
:101C5000031D232E2E08B1003108B200AB17FF3050
:101C6000AA05FF30AB050030AC052A08B3002B08ED
:101C7000B4002C08B500B6018E30B702B71F5E2E37
:101C80003708803A8F3E03184E2E0030AD000030EA
:101C9000AC000030AB000030AA0008000130031097
:101CA000B60CB50CB40CB30CFF3E031D4F2E013027
:101CB000AE002E08B7070319792E4E2E18303702C2
:101CC000031C762E0030AD000030AC000030AB00BD
:101CD0000030AA0008000130AE000310B30DB40DAF
:101CE000B50DB60DAE0B6D2E0130B7023708031DD2
:101CF0006B2E32080319872EB309B409B509B6094A
:101D0000B30A0319B40A0319B50A0319B60A360847
:101D1000AD003508AC003408AB003308AA00080059
:101D2000831203134308AA004408AB004508AC0023
:101D30000A128A1502260A128A15831203132D0825
:101D4000CA002C08C9002B08C8002A08C7004A0886
:101D5000A7004908A6004808A5004708A400FF30CE
:101D6000C6004608A8000A300A128A11A7230A12E0
:101D70008A152E300A128A155B210A128A158312DF
:101D800003134308A3004408A4004508A5004A081B
:101D9000FB004908FA004808F9004708F8000A1251
:101DA0008A157C210A128A15780883120313A00071
:101DB0007908A1007A08A2000A128A1566200A1280
:101DC0008A15831203132008A6002108A700220801
:101DD000A8000A128A1199240A128A158312031381
:101DE0002308C3002408C4002508C5004308FB00DD
:101DF0004408FC004508FD002430F8007430F90068
:101E00004930FA000A128A152F270A128A15780813
:101E100083120313AA007908AB007A08AC000A12F7
:101E20008A1502260A128A15831203132D08CA0086
:101E30002C08C9002B08C8002A08C7004A08A700B8
:101E40004908A6004808A5004708A400FF30C600BE
:101E50004608A8000A300A128A11A7230800780849
:101E600083120313A0007908A1007A08A2000310CE
:101E7000210D220DA3002308A4002408031D472FD1
:101E80000030F8000030F9000030FA0008007B084C
:101E9000A0007C08A1007D08A2000310210D220DE6
:101EA000A3002308A9002908031D5D2F0030F800B6
:101EB0000030F9000030FA00080029087B3EA0003D
:101EC0002008A4077808A0007908A1007A08A200D9
:101ED00010300310A20CA10CA00CFF3E031D692FB3
:101EE0002008A3002308A9007B08A0007C08A1000B
:101EF0007D08A20010300310A20CA10CA00CFF3E24
:101F0000031D7B2F2008A3002308A9068030A00012
:101F10002008A905F917FC17FF30FB05FF30FC0569
:101F20000030FD050030A5000030A6000030A700FD
:101F30000730A0002008A800781CAC2F7B08A5075C
:101F40007C08031103187C0A031DA6077D080311F2
:101F500003187D0A031DA70701300310FA0CF90CC2
:101F6000F80CFF3E031DAD2F01300310FB0DFC0DDF
:101F7000FD0DFF3E031DB52F0130A802031D9C2F50
:101F80000930A0002008A800781CD42F7B08A507E2
:101F90007C08031103187C0A031DA6077D080311A2
:101FA00003187D0A031DA70701300310FA0CF90C72
:101FB000F80CFF3E031DD52F01300310A70CA60C13
:101FC000A50CFF3E031DDD2F0130A802031DC42F09
:101FD0002508F0002608F1002708F2002408A000D8
:101FE0002008F3002908A1002108F4000A128A152C
:101FF00016247008F8007108F9007208FA00080049
:02400E00BA3FB7
:00000001FF
