:100000000A128A11DD2F00308A000408840A820750
:100010000034733465346E346434203464346134B1
:10002000743461342034663472346F346D34203467
:100030002034733465347234693461346C34203460
:100040007434653472346D3469346E3461346C34B4
:0200500000347A
:100144008034C0349034D034831203138C1EA62818
:100154008C121A08080064008001840A040603193A
:1001640000340406AE28F000831203130C1EB628D4
:100174000C12700899000800700871040319080033
:100184000130F0020030031CF103F102BE280130FB
:100194000A128A11C1210A128A1100300A128A1124
:1001A400FC20080072087304031908002C30F000C6
:1001B4000130F1000A128A11BE200A128A1101309C
:1001C400F2020030031CF303F302D4280130FA00D6
:1001D4007A0883120313CE07CD013F084E02031899
:1001E400CE014E084F3E8400831300080A128A1180
:1001F400C1210800FB00831203133F087B0203188C
:100204000800CD017B08FA007A08CE007B084F3E37
:100214008400831300080A128A11C1210800803067
:100224008316031387002030980090308312031341
:1002340098003308A3003208A2003108A100300856
:10024400A0000A128A1184240800FC0083120313FC
:1002540040084D02031832290A307C06031D372951
:100264000A128A11E8200A128A110A307C0603193C
:1002740008007C080A128A11F6210130FB007B0871
:1002840083120313CD07080083120313A000200870
:1002940084000A128A1103200A128A11003A0319EF
:1002A4000800200884000A128A1103200A128A1105
:1002B4000A128A1127210A128A110130FD007D08D1
:1002C40083120313A0074929F00183120313420880
:1002D4000A128A1104270A128A11F00183120313E5
:1002E40043080A128A1104270A128A11F001F00A3B
:1002F4008312031344080A128A1104270A128A116A
:100304000A30F0000030F1000A128A11BE200A12ED
:100314008A11F0018312031344080A128A11042774
:100324000800F001F00A8312031342080A128A112A
:1003340004270A128A11F0018312031343080A12D4
:100344008A1104270A128A11F001F00A8312031396
:1003540044080A128A1104270A128A110A30F0008A
:100364000030F1000A128A11BE200A128A11F0012B
:100374008312031344080A128A1104270800F9009F
:100384000A128A11FE240A128A11083083120313F6
:100394004106031DD42979080A128A116B220A1214
:1003A4008A11EC2979080A128A112B220A128A115D
:1003B4000A128A1166210A128A117908F700033099
:1003C4000310F70DFF3E031DE2290310770DF8001B
:1003D4007808F90079080A128A112B220A128A1164
:1003E4000A128A1166210800F9000A128A11FE24F1
:1003F4000A128A110830831203134106031D092AC5
:1004040079080A128A116B220A128A11212A7908A0
:100414000A128A112B220A128A110A128A119321B2
:100424000A128A117908F70003300310F70DFF3E12
:10043400031D172A0310770DF8007808F9007908CE
:100444000A128A112B220A128A110A128A11932182
:100454000800F600761E302A0130312A0030F500FB
:100464007508F0008312031349080A128A1104273D
:100474000A128A11F61E402A0130412A0030F50082
:100484007508F000831203134A080A128A1104271C
:100494000A128A11761F502A0130512A0030F500C1
:1004A4007508F000831203134B080A128A110427FB
:1004B4000A128A11F61F602A0130612A0030F50001
:1004C4007508F000831203134C080A128A110427DA
:1004D4000800F600761C702A0130712A0030F500FD
:1004E4007508F0008312031345080A128A110427C1
:1004F4000A128A11F61C802A0130812A0030F50084
:100504007508F0008312031346080A128A1104279F
:100514000A128A11761D902A0130912A0030F500C2
:100524007508F0008312031347080A128A1104277E
:100534000A128A11F61DA02A0130A12A0030F50002
:100544007508F0008312031348080A128A1104275D
:10055400080083120313A0007C08FD007D08C0007E
:100564002008FD007D08BF0003302002031CC62ABA
:100574007C080F39903EFD007D08D1007C080F39BE
:10058400D03EFD007D08D2006430F2000030F3005C
:100594000A128A11D4200A128A1108308312031312
:1005A4004106031DD72A3830E32A0430831203138B
:1005B4004106031DE82A0A128A11F2220A128A113C
:1005C40028300A128A11C1210A128A110E300A1225
:1005D4008A11C1210A128A110A128A11C92008003B
:1005E40030300A128A112B220A128A110A128A1135
:1005F40066210A128A116430F2000030F3000A12F4
:100604008A11D4200A128A1130300A128A112B223C
:100614000A128A110A128A1166210A128A11C83032
:10062400F0000030F1000A128A11BE200A128A1169
:1006340030300A128A112B220A128A110A128A11E4
:1006440066210A128A11C830F0000030F1000A1243
:100654008A11BE200A128A1120300A128A112B2212
:100664000A128A110A128A1166210A128A11C830E2
:10067400F0000030F1000A128A11BE200800003098
:10068400FC000030FB000030FA000030F900730871
:100694007204710470040319962BFD01FD0AF31B07
:1006A400612B0130F8000310F00DF10DF20DF30D84
:1006B400F80B552B0130F8007808FD07512B013059
:1006C400F8000310F90DFA0DFB0DFC0DF80B632B6C
:1006D40073087702031D782B72087602031D782BAA
:1006E40071087502031D782B70087402031C892B92
:1006F4007008F4027108031C710FF5027208031CE0
:10070400720FF6027308031C730FF7027914013099
:100714000310F30CF20CF10CF00CFF3E031D8A2BBA
:100724000130FD02031D612B7C08F3007B08F200FD
:100734007A08F1007908F0000800093083120313E5
:10074400B4003408A0000A30B5003508A100FF3019
:10075400B6003608A200FF30B7003708A300FF3008
:10076400B8003808A400FF30B9003908A5000C30DF
:10077400BA003A08A6000D30BB003B08A7000E30B3
:10078400BC003C08A8000F30BD003D08A90008309B
:100794000A128A118A250A128A111030831203134D
:1007A400B4003408FC0002300A128A11AB220A1287
:1007B4008A11003083120313B3000030B2002530D5
:1007C400B1008030B0000A128A1111210A128A1174
:1007D40001300A128A1146210A128A1100300A12C3
:1007E4008A11FC200A128A110A128A11A6200A12FE
:1007F4008A1183120313B4003408BE003E080A129F
:100804008A11B5200A128A11831203133E080A12B0
:100814008A1127210A128A11F62BF400F3017408B5
:10082400F00003300310F00CFF3E031D142C70087D
:10083400F1007108F20074080739F0007008F40040
:10084400712C0130F000740A292C0310F00DFF3EC6
:10085400031D272C7008831203130505682C01302F
:10086400F000740A372C0310F00DFF3E031D352CE5
:100874007008831203130605682C0130F000740A13
:10088400452C0310F00DFF3E031D432C700883120A
:1008940003130705682C0130F000740A532C03106D
:1008A400F00DFF3E031D512C70088312031308053D
:1008B400682C0130F000740A612C0310F00DFF3E27
:1008C400031D5F2C700883120313090503196C2C94
:1008D40001306D2C0030F1007108F300822C720895
:1008E400003A0319232C013A0319312C033A031952
:1008F4003F2C013A03194D2C073A03195B2C822C27
:1009040073080800831203132308031D962C22087E
:10091400031D962C09302102031D942C6030200203
:10092400031D942C031CF12C2308031DF12C01300E
:100934002202031DA52CC2302102031DA52C013067
:100944002002031DA52C0318F12CFF30A400FF3056
:10095400A500FF30A600FF30A7002008A80021084A
:10096400A9002208AA002308AB0006300310A80D32
:10097400A90DAA0DAB0DFF3E031DB82C2B08F300E7
:100984002A08F2002908F1002808F0000130F700D5
:100994003130F6002D30F5000030F4000A128A11CF
:1009A40041230A128A11700883120313A4077108E1
:1009B4000318710FDE2CDF2CA50772080318720FC1
:1009C400E42CE52CA60773080318730AA707270865
:1009D400AF002608AE002508AD002408F82C00302E
:1009E400AF000030AE000030AD001F30AC002C086A
:1009F400831603139900080083120313430A031D8B
:100A0400822DF001F00A4C080A128A112B260A12D0
:100A14008A11F0018312031342080A128A1104276F
:100A24000A128A11F001F00A8312031343080A120E
:100A34008A1104270A128A11F0018312031344084D
:100A44000A128A1104270A128A110A30F0000030AF
:100A5400F1000A128A11BE200A128A11F001F00A6A
:100A64008312031344080A128A1104270A128A11F2
:100A74000A30F0000030F1000A128A11BE200A1276
:100A84008A11831203134C080A128A110F240A12C2
:100A94008A11F5007508F600043083120313410629
:100AA400031D772DF00144080A128A1104270A1243
:100AB4008A110A30F0000030F1000A128A11BE20B7
:100AC4000A128A11F001F00A8312031344080A126D
:100AD4008A1104270A128A110A30F0000030F1004A
:100AE4000A128A11BE200A128A117608031D1E2DCD
:100AF400F001831203134C080A128A112B260800F2
:100B04000130F2000030F3000A128A11D4200800E8
:100B1400F6007608F500750883120313C200200856
:100B2400F5007508C3002108F5007508C400220803
:100B3400F5007508C5002308F5007508C6002408EB
:100B4400F5007508C7002508F5007508C8002608D3
:100B5400F5007508C9002708F5007508CA002808BB
:100B6400F5007508CB002908F5007508CC00220AA9
:100B74000319C42D230A0319C42D240A031D250AAD
:100B8400031DC92D0430F5007508C100EF2D083090
:100B9400F5007508C100F00122080A128A112B26FB
:100BA4000A128A11F0018312031323080A128A110C
:100BB4002B260A128A11F0018312031324080A1245
:100BC4008A112B260A128A11F001831203132508B5
:100BD4000A128A112B260A128A11F00176080A12C7
:100BE4008A112B260A128A11F0018312031320089A
:100BF4000A128A112B260A128A11F0018312031396
:100C040021080A128A112B260A128A11F001831272
:100C1400031326080A128A112B260A128A11F001DC
:100C24008312031327080A128A112B260A128A1127
:100C3400F0018312031328080A128A112B260A12C0
:100C44008A11F0018312031329080A128A112B2630
:100C54000800F4007408F10003300310F10CFF3EA7
:100C6400031D2F2E7108F2007208F300740807396F
:100C7400F1007108F400F22E70080319512E0130AE
:100C8400F100740A472E0310F10DFF3E031D452E9B
:100C94007108F200720883160313850408000130FA
:100CA400F100740A572E0310F10DFF3E031D552E5B
:100CB4007108FF3AF20072088316031385050800D1
:100CC40070080319752E0130F100740A6B2E03109D
:100CD400F10DFF3E031D692E7108F20072088316A0
:100CE4000313860408000130F100740A7B2E0310FC
:100CF400F10DFF3E031D792E7108FF3AF2007208D0
:100D0400831603138605080070080319992E013011
:100D1400F100740A8F2E0310F10DFF3E031D8D2E7A
:100D24007108F20072088316031387040800013067
:100D3400F100740A9F2E0310F10DFF3E031D9D2E3A
:100D44007108FF3AF200720883160313870508003E
:100D540070080319BD2E0130F100740AB32E03107C
:100D6400F10DFF3E031DB12E7108F20072088316C7
:100D74000313880408000130F100740AC32E031021
:100D8400F10DFF3E031DC12E7108FF3AF2007208F7
:100D9400831603138805080070080319E12E013037
:100DA400F100740AD72E0310F10DFF3E031DD52E5A
:100DB4007108F200720883160313890408000130D5
:100DC400F100740AE72E0310F10DFF3E031DE52E1A
:100DD4007108FF3AF20072088316031389050800AC
:100DE4007308003A03193E2E013A0319622E033A9E
:100DF4000319862E013A0319AA2E073A0319CE2E97
:100E0400032F0800F4007408F10003300310F10C00
:100E1400FF3E031D082F7108F2007208F3007408E6
:100E24000739F1007108F400CB2F700803192A2F39
:100E34000130F100740A202F0310F10DFF3E031D51
:100E44001E2F7108F2007208831203138504080030
:100E54000130F100740A302F0310F10DFF3E031D21
:100E64002E2F7108FF3AF2007208831203138505CE
:100E74000800700803194E2F0130F100740A442F42
:100E84000310F10DFF3E031D422F7108F20072089A
:100E940083120313860408000130F100740A542FEE
:100EA4000310F10DFF3E031D522F7108FF3AF200AB
:100EB4007208831203138605080070080319722F41
:100EC4000130F100740A682F0310F10DFF3E031D79
:100ED400662F7108F2007208831203138704080056
:100EE4000130F100740A782F0310F10DFF3E031D49
:100EF400762F7108FF3AF2007208831203138705F4
:100F0400080070080319962F0130F100740A8C2F21
:100F14000310F10DFF3E031D8A2F7108F2007208C1
:100F240083120313880408000130F100740A9C2F13
:100F34000310F10DFF3E031D9A2F7108FF3AF200D2
:100F44007208831203138805080070080319BA2F66
:100F54000130F100740AB02F0310F10DFF3E031DA0
:100F6400AE2F7108F200720883120313890408007B
:100F74000130F100740AC02F0310F10DFF3E031D70
:100F8400BE2F7108FF3AF200720883120313890519
:100F940008007308003A0319172F013A03193B2F6D
:100FA400033A03195F2F013A0319832F073A0319F0
:100FB400A72FDC2F080083133F3084004F300A1220
:100FC4008A11AD200A128A110A128A11A2200A1269
:100FD4008A11CF000A128A11A3200A128A11D000A2
:100FE4000A128A11A4200A128A11D1000A128A1143
:0C0FF400A520D20083010A128A119F2B55
:02400E00BA3FB7
:00000001FF
