:100000000A128A11D22F83120313A300A201231C08
:100010000D282008A1002108A2070310A00D03103D
:10002000A30C2308031D07282208080083120313CA
:10003000DF015830DB005B08E0008330C30088300C
:10004000C4000A128A11AD250A128A1141308312A6
:100050000313DB005B08E0005B30600203187F28BD
:100060001630C3008930C4006008DB00DC015B0887
:10007000C5005C08C6000A128A11AD250A128A1151
:10008000831203135F08DB00DC015B08F3005C08EC
:10009000F4006008DD005D08F5000A128A150623E9
:1000A0000A128A11831203135F08DB00DC015B086C
:1000B000F0005C08F1000A128A1525230A128A1141
:1000C00083120313DD005D08DE003F30C30089307A
:1000D000C4005E08DB00DC015B08C5005C08C600EC
:1000E0000A128A11AD250A128A11013083120313F4
:1000F000DB005B08E0075B306002031C30287F28D0
:10010000F400F3017408F00003300310F00CFF3E1C
:10011000031D85287008F1007108F2007408073982
:10012000F0007008F400E2280130F000740A9A2808
:100130000310F00DFF3E031D98287008831203136F
:100140000505D9280130F000740AA8280310F00D25
:10015000FF3E031DA6287008831203130605D92845
:100160000130F000740AB6280310F00DFF3E031DA5
:10017000B4287008831203130705D9280130F00052
:10018000740AC4280310F00DFF3E031DC228700836
:10019000831203130805D9280130F000740AD2280D
:1001A0000310F00DFF3E031DD028700883120313C7
:1001B00009050319DD280130DE280030F10071083F
:1001C000F300F3287208003A03199428013A03193E
:1001D000A228033A0319B028013A0319BE28073AA6
:1001E0000319CC28F3287308080083160313240A84
:1001F00003197929F001F00A2D080A128A1109233E
:100200000A128A11F5018316031323080A128A11B0
:10021000E2230A128A11F501F50A83160313240852
:100220000A128A11E2230A128A11F50183160313B6
:1002300025080A128A11E2230A128A110A30F000F4
:100240000030F1000A128A150F230A128A11F501F3
:10025000F50A8316031325080A128A11E2230A12EB
:100260008A110A30F0000030F1000A128A150F23BB
:100270000A128A11831603132D080A128A1180208C
:100280000A128A11FA007A08FB000430831603135D
:100290002206031D6E29F50125080A128A11E223A0
:1002A0000A128A110A30F0000030F1000A128A1591
:1002B0000F230A128A11F501F50A83160313250884
:1002C0000A128A11E2230A128A110A30F000003061
:1002D000F1000A128A150F230A128A117B08031DE6
:1002E0001529F001831603132D080A128A11092318
:1002F00008000130F2000030F3000A128A1536239C
:100300000800F001F00A1A300A128A1109230A12B1
:100310008A11F001F00A1B300A128A1109230A120D
:100320008A111A300A128A1180200A128A11013A9F
:10033000031DE2291B300A128A1180200A128A1139
:10034000013A031DE229F00118300A128A1109232B
:100350000A128A11F00119300A128A1109230A12AD
:100360008A11F501F50A18300A128A11E2230A12DD
:100370008A11F501F50A19300A128A11E2230A12CC
:100380008A11C830F2000030F3000A128A153623B1
:100390000A128A11F50118300A128A11E2230A1290
:1003A0008A11F50119300A128A11E2230A128A1100
:1003B000C830F2000030F3000A128A1536230A1200
:1003C0008A11B129003083120313AD000030AC0054
:1003D0002530AB008030AA000A128A154A230A127F
:1003E0008A11003083120313C3008830C4000A123C
:1003F0008A11AD250A128A111A2A0A128A15A12712
:100400000A128A111A2A0A128A1504260A128A1155
:100410001A2A0A128A15BE250A128A111A2A0A12E3
:100420008A1591230A128A111A2A0A128A11162091
:100430000A128A110A128A15EE220A128A118312EE
:100440000313E1006108E200831203136208313AEA
:100450000319FD29033A0319032A013A0319092A4A
:10046000073A03190F2A013A0319152A1A2A1A2AD8
:10047000F6007608F500750883160313A3008312AF
:1004800003132008F500750883160313A4008312D4
:1004900003132108F500750883160313A5008312C2
:1004A00003132208F500750883160313A6008312B0
:1004B00003132308F500750883160313A70083129E
:1004C00003132408F500750883160313A80083128C
:1004D00003132508F500750883160313A90083127A
:1004E00003132608F500750883160313AA00831268
:1004F00003132708F500750883160313AB00831256
:1005000003132808F500750883160313AC00831243
:1005100003132908F500750883160313AD00831231
:100520000313220A03199C2A230A03199C2A240A6A
:10053000031D250A031DA32A0430F5007508831640
:100540000313A200CD2A0830F500750883160313A3
:10055000A200F0018312031322080A128A11092350
:100560000A128A11F0018312031323080A128A1156
:1005700009230A128A11F0018312031324080A12B4
:100580008A1109230A128A11F00183120313250824
:100590000A128A1109230A128A11F00176080A1236
:1005A0008A1109230A128A11F00183120313200809
:1005B0000A128A1109230A128A11F0018312031305
:1005C00021080A128A1109230A128A11F0018312E2
:1005D000031326080A128A1109230A128A11F0014C
:1005E0008312031327080A128A1109230A128A1197
:1005F000F0018312031328080A128A1109230A1230
:100600008A11F0018312031329080A128A1109239F
:100610000800F4007408F10003300310F10CFF3EF1
:10062000031D0D2B7108F2007208F30074080739DE
:10063000F1007108F400D02B700803192F2B013042
:10064000F100740A252B0310F10DFF3E031D232B2F
:100650007108F20072088316031385040800013044
:10066000F100740A352B0310F10DFF3E031D332BEF
:100670007108FF3AF200720883160313850508001B
:1006800070080319532B0130F100740A492B031031
:10069000F10DFF3E031D472B7108F200720883160F
:1006A0000313860408000130F100740A592B03106B
:1006B000F10DFF3E031D572B7108FF3AF20072083F
:1006C000831603138605080070080319772B013081
:1006D000F100740A6D2B0310F10DFF3E031D6B2B0F
:1006E0007108F200720883160313870408000130B2
:1006F000F100740A7D2B0310F10DFF3E031D7B2BCF
:100700007108FF3AF2007208831603138705080088
:10071000700803199B2B0130F100740A912B031010
:10072000F10DFF3E031D8F2B7108F2007208831636
:100730000313880408000130F100740AA12B031090
:10074000F10DFF3E031D9F2B7108FF3AF200720866
:10075000831603138805080070080319BF2B0130A6
:10076000F100740AB52B0310F10DFF3E031DB32BEE
:100770007108F2007208831603138904080001301F
:10078000F100740AC52B0310F10DFF3E031DC32BAE
:100790007108FF3AF20072088316031389050800F6
:1007A0007308003A03191C2B013A0319402B033A32
:1007B0000319642B013A0319882B073A0319AC2B50
:1007C000E12B0800F9007908F60003300310F60C5D
:1007D000FF3E031DE62B7608F7007708F80079083E
:1007E0000739F6007608F900A92C75080319082CBA
:1007F0000130F600790AFE2B0310F60DFF3E031DB3
:10080000FC2B7608F7007708831203138504080091
:100810000130F600790A0E2C0310F60DFF3E031D81
:100820000C2C7608FF3AF70077088312031385052E
:100830000800750803192C2C0130F600790A222CC7
:100840000310F60DFF3E031D202C7608F7007708F5
:1008500083120313860408000130F600790A322C53
:100860000310F60DFF3E031D302C7608FF3AF7000B
:100870007708831203138605080075080319502CA6
:100880000130F600790A462C0310F60DFF3E031DD9
:10089000442C7608F70077088312031387040800B6
:1008A0000130F600790A562C0310F60DFF3E031DA9
:1008B000542C7608FF3AF700770883120313870554
:1008C000080075080319742C0130F600790A6A2CA7
:1008D0000310F60DFF3E031D682C7608F70077081D
:1008E00083120313880408000130F600790A7A2C79
:1008F0000310F60DFF3E031D782C7608FF3AF70033
:100900007708831203138805080075080319982CCB
:100910000130F600790A8E2C0310F60DFF3E031D00
:100920008C2C7608F70077088312031389040800DB
:100930000130F600790A9E2C0310F60DFF3E031DD0
:100940009C2C7608FF3AF700770883120313890579
:1009500008007808003A0319F52B013A0319192CFD
:10096000033A03193D2C013A0319612C073A031984
:10097000852CBA2C080083120313C100C201023077
:1009800041060319022D062D2408A9002508AA00F6
:100990002608AB002708AC002808FF3EAD00AD0AD2
:1009A0000130AE000030AF00D82C0310AE0DAF0DFB
:1009B000AD0BD52C2E08B0002F08B1000030B11BB4
:1009C000FF30B200B3003008A9053108AA0532088B
:1009D000AB053308AC052C082B042A0429040319A1
:1009E000F32C0130F42C0030B4003408C20042086B
:1009F000303E0A128A15FD220A128A110130831232
:100A00000313A802280803190800C42C2708260489
:100A100025042404031D112D30300A128A15FD22ED
:100A2000080083120313C201280842020318A92DEB
:100A300027082604250424040319732D4108A9005E
:100A40002908A0002708F7002608F6002508F50069
:100A50002408F4004108AA00AB01AC01AD012D0847
:100A6000F3002C08F2002B08F1002A08F0000A120B
:100A70008A1543270A128A1170080A128A11032064
:100A80000A128A11FF3A013E831203132407AE00B3
:100A90004208353E84002E08831380004108A900D7
:100AA000AA01AB01AC012C08F3002B08F2002A08C4
:100AB000F1002908F0002708F7002608F6002508AD
:100AC000F5002408F4000A128A1543270A128A1135
:100AD000730883120313A7007208A6007108A5000B
:100AE0007008A4007F2D280A0319A92D0B302802B5
:100AF0000318A92D4208353E84008313800101307C
:100B0000A9002908C207142D4208FF3E353E840083
:100B10000A30831300020318942D4208FF3E353E2D
:100B200084000008303E9A2D4208FF3E353E840086
:100B30000008373EBF00003003180130C0003F08F6
:100B40000A128A15FD220A128A1101308312031338
:100B5000C202420803190800842D45308312031392
:100B6000C7004708DA004308D6004408D7005708F2
:100B7000FF00560884000A128A154F210A128A11B2
:100B8000003A031908005708FF00560884000A12AB
:100B90008A154F210A128A11C7004708D80025304C
:100BA0005806031DC32F0130D6070318D70A00309B
:100BB000D7075708FF00560884000A128A154F21EC
:100BC0000A128A11C7004708D80030305802031CA7
:100BD0001A2E3A30580203181A2ED9013030580212
:100BE000031C912F3A3058020318912F0A30C70086
:100BF0004708A00059080A128A1103200A128A1114
:100C0000831203135807D03EC8004808D9000130AA
:100C1000D6070318D70A0030D7075708FF00560831
:100C200084000A128A154F210A128A11C700470848
:100C3000D800EE2DFF30C7004708D900912F5A0881
:100C4000840083130008C7004708D8000230C7009B
:100C50004708DA07C32F831203135A08840083134B
:100C60000008CE00840A0008CF000230C700470801
:100C7000DA07CF1F462ECE09CF09CE0A0319CF0AB5
:100C80002D300A128A15FD220A128A1183120313CB
:100C90004E08A4004F08A5000030A51BFF30A60099
:100CA000A7005908C7004708A8000A300A128A118D
:100CB000BB240A128A11C92F831203135A08840015
:100CC00083130008CA00840A0008CB00840A0008C5
:100CD000CC00840A0008CD000430C7004708DA07BA
:100CE000CD1F832ECA09CB09CC09CD09CA0A031925
:100CF000CB0A0319CC0A0319CD0A2D300A128A1522
:100D0000FD220A128A11831203134D08A7004C0812
:100D1000A6004B08A5004A08A4005908C7004708C8
:100D2000A8000A300A128A11BB240A128A11C92F9C
:100D3000831203135A08840083130008D400840A22
:100D40000008D5000230C7004708DA075408A4009D
:100D50005508A500A601A7015908C7004708A80023
:100D60000A300A128A11BB240A128A11C92F83126F
:100D700003135A08840083130008D000840A000873
:100D8000D100840A0008D200840A0008D30004308D
:100D9000C7004708DA075308A7005208A600510801
:100DA000A5005008A4005908C7004708A8000A3049
:100DB0000A128A11BB240A128A11C92F8312031343
:100DC0005A08840083130008D400840A0008D50060
:100DD0000230C7004708DA075408A4005508A500E8
:100DE000A601A7015908C7004708A80010300A1239
:100DF0008A11BB240A128A11C92F831203135A08BD
:100E0000840083130008D000840A0008D100840AFB
:100E10000008D200840A0008D3000430C700470845
:100E2000DA075308A7005208A6005108A500500889
:100E3000A4005908C7004708A80010300A128A11F8
:100E4000BB240A128A11C92F831203135A08840083
:100E500083130008D400840A0008D5000230C700BC
:100E60004708DA07590A031D392F1030C700470811
:100E7000D9005408A4005508A500A601A7015908E7
:100E8000C7004708A80002300A128A11BB240A12C0
:100E90008A11C92F831203135A0884008313000890
:100EA000D000840A0008D100840A0008D200840A15
:100EB0000008D3000430C7004708DA07590A031DA9
:100EC000652F2030C7004708D9005308A7005208F3
:100ED000A6005108A5005008A4005908C7004708FB
:100EE000A80002300A128A11BB240A128A11C92FE3
:100EF000831203135A08840083130008C7004708AD
:100F0000C9000130C7004708DA074908F10000307E
:100F1000F2000A128A15AE230A128A11C92F25304F
:100F2000C42F831203135808253A03198F2F673AE9
:100F300003194A2F013A03191F2E073A03195C2E91
:100F4000023A0319C92F153A0319782F063A0319E3
:100F5000B72E0D3A0319FD2E3A3A0319242F013A00
:100F600003191F2E073A03192B2E023A0319C92F12
:100F7000153A0319782F063A0319982E0D3A0319DA
:100F8000DE2EC92FC92F58080A128A15FD220A120F
:100F90008A11013083120313D6070318D70A0030D1
:100FA000D707B72DE701E80183160313A001A101BC
:100FB000A201A301A401A501A601A701A801A901FD
:100FC000AA01AB01AC01AD01831203130A128A1509
:100FD000EA220A128A11E3000A128A15EB220A1287
:100FE0008A11E4000A128A15EC220A128A11E5001D
:100FF0000A128A15ED22E60083010A128A1181295C
:101000000A340D340A340D34533474346134723478
:1010100074346534723420345034493443342034C9
:10102000743465347334743420344D3465346E3420
:1010300075340A340D34203431342E344C34653454
:101040006434203474346534733474340A340D34A5
:10105000203432342E344C346334643420347434C9
:101060006534733474340A340D34203433342E34FC
:1010700053347734693474346334683420347434CA
:101080006534733474340A340D34203434342E34DB
:1010900041346434633420345434653473347434E8
:1010A0000A340D34203435342E34453465347034EC
:1010B00072346F346D342034543465347334743482
:1010C00020340A340D34533465346C34653463345D
:1010D000743420344F346E34653420346F346634C5
:1010E00020347434683465342034613462346F34AD
:1010F0007634653420346F347034743469346F342A
:101100006E34733400340A340D340A340D344934E7
:101110006E346234753469346C347434203445343C
:101120006534703472346F346D3420345434653423
:10113000733474342E342034573472346934743434
:1011400069346E346734203461346E34643420344E
:10115000723465346134643469346E3467342034F5
:1011600041342D345A34203474346F342034613493
:101170006E3464342034663472346F346D34203409
:1011800045346534703472346F346D342E34003429
:101190000A340A340A340D345034723465347334EA
:1011A00073342034743468346534203473347734C1
:1011B000693474346334683465347334203461348E
:1011C0006E34643420346F34623473346534723472
:1011D00076346534203474346834653420346F34A4
:1011E0007534743470347534743420346F346E3420
:1011F00020344C34653464347334003445347834EA
:1012000070346C346F34723465340A34203453349F
:10121000743461347234743465347234203450342C
:10122000693463342E342E342E3400340A340D34B1
:1012300045346534703472346F346D34203457342F
:1012400072346934743465343A3420342534633468
:10125000203420342034203400340A340D34413416
:101260004434433430342034763461346C3475344F
:1012700065343D342034253434346434003445340A
:101280006534703472346F346D34203452346534C4
:10129000613464343A342034253463340034FF1B21
:1012A000592983137F1883170008840A0319FF0A3A
:1012B00008007F087F398A000408840A0319FF0A9E
:0212C0008200AA
:1015D4008034C0349034D034831203138C1EEE2A2A
:1015E4008C121A080800831203139F01803083169B
:1015F40003139F000800F000831203130C1EFE2A3D
:101604000C127008990008007508F6007608F000BE
:1016140073080A128A153F2408007008710403191C
:1016240008000130F0020030031CF103F1020F2B1B
:1016340001300A128A15C0240A128A1500300A12CF
:101644008A1578230800831603170C18252B8C1889
:10165400252B7008831203178D00831603170C14AF
:10166400831203170C080800720873040319080096
:101674002C30F0000130F1000A128A150F230A12EF
:101684008A150130F2020030031CF303F302362BF7
:101694008030831603138700203098009030831223
:1016A400031398002D08A3002C08A2002B08A10006
:1016B4002A08A0000A128A15EA26080001308312BB
:1016C4000313A1002108E807E70183160313200888
:1016D4008312031368020318E8016808633E840058
:1016E400831300080A128A15C02408008312031306
:1016F400A200831603132008831203132202031883
:101704000800E7012208A1002108E8002208633E3E
:101714008400831300080A128A15C02408000A12E0
:101724008A15F5220A128A152D3083120313C30079
:101734008930C40000300A128A15D1230A128A158E
:10174400730883120313C6007208C5000A128A11B3
:10175400AD250A128A15962B720883120313FF0013
:10176400710884000A128A154F210A128A15003A58
:1017740003190800720883120313FF007108840020
:101784000A128A154F210A128A150A128A15FD2295
:101794000A128A150130F1070318F20AAE2BF5007C
:1017A4007508F40002300310F40DFF3E031DD52B21
:1017B4000310740D831203139F001F140A30F000EA
:1017C4000030F1000A128A150F230A128A158312B7
:1017D40003131F151F19EC2B1E08F30083160313A4
:1017E4001E08F200080083120313A30083160313D8
:1017F40021088312031367020318042C0A302306FA
:10180400031D092C0A128A1560230A128A150A304C
:101814008312031323060319080023080A128A15E6
:10182400FF24013083120313A2002208E7070800F3
:10183400831203132508FF00240884000A128A1562
:101844004F210A128A15003A031908008312031360
:101854002508FF00240884000A128A154F210A1261
:101864008A150A128A15F5230A128A150130831281
:101874000313A4070318A50A1A2CF20083160317EE
:101884008C18402C7208831203178D0070088C008A
:101894003F30F1007108831603178C05831203137C
:1018A40003108B1B03148B13831603170C1555306D
:1018B4008D00AA308D008C140C1183120313031CA9
:1018C40008008B170800F5018316031323080A1276
:1018D4008A11E2230A128A15F501831603132408D8
:1018E4000A128A11E2230A128A15F501F50A8316EF
:1018F400031325080A128A11E2230A128A150A30F0
:10190400F0000030F1000A128A150F230A128A151A
:10191400F5018316031325080A128A11E22308002D
:10192400F501F50A8316031323080A128A11E22328
:101934000A128A15F5018316031324080A128A1160
:10194400E2230A128A15F501F50A83160313250802
:101954000A128A11E2230A128A150A30F0000030B2
:10196400F1000A128A150F230A128A15F50183164B
:10197400031325080A128A11E223080083120313B1
:10198400A0000A128A11F5200A128A15083083165B
:1019940003132206031DD72C8312031320080A12F3
:1019A4008A157E250A128A15F32C83120313200844
:1019B4000A128A153E250A128A150A128A15652406
:1019C4000A128A15831203132008FC000330031043
:1019D400FC0DFF3E031DE92C03107C0DFD007D086A
:1019E400A0008312031320080A128A153E250A1246
:1019F4008A150A128A156524080083120313A000AD
:101A04000A128A11F5200A128A1508308316031364
:101A14002206031D162D8312031320080A128A15A9
:101A24007E250A128A15322D8312031320080A1206
:101A34008A153E250A128A150A128A1592240A1258
:101A44008A15831203132008FC0003300310FC0DD5
:101A5400FF3E031D282D03107C0DFD007D08A00012
:101A64008312031320080A128A153E250A128A15C6
:101A74000A128A1592240800FB007B1E432D0130B4
:101A8400442D0030FA007A08F500831603132A085F
:101A94000A128A11E2230A128A15FB1E532D013001
:101AA400542D0030FA007A08F500831603132B082E
:101AB4000A128A11E2230A128A157B1F632D013050
:101AC400642D0030FA007A08F500831603132C08FD
:101AD4000A128A11E2230A128A15FB1F732D0130A0
:101AE400742D0030FA007A08F500831603132D08CC
:101AF4000A128A11E2230800FB007B1C832D0130AB
:101B0400842D0030FA007A08F500831603132608A2
:101B14000A128A11E2230A128A15FB1C932D013042
:101B2400942D0030FA007A08F50083160313270871
:101B34000A128A11E2230A128A157B1DA32D013091
:101B4400A42D0030FA007A08F50083160313280840
:101B54000A128A11E2230A128A15FB1DB32D0130E1
:101B6400B42D0030FA007A08F5008316031329080F
:101B74000A128A11E2230800F00118300A128A11AD
:101B840009230A128A15F00119300A128A1109234D
:101B94000A128A15F001F00A1A300A128A1109236E
:101BA4000A128A15F001F00A1B300A128A1109235D
:101BB4000A128A15C830F1008830F2000A128A1518
:101BC400AE230A128A151A300A128A1180200A12C8
:101BD4008A15FA007A08F50018300A128A11E223ED
:101BE4000A128A151B300A128A1180200A128A15D9
:101BF400FA007A08F50019300A128A11E2230A124F
:101C04008A15E52D093083120313AA002A08A000BF
:101C14000A30AB002B08A100FF30AC002C08A20056
:101C2400FF30AD002D08A300FF30AE002E08A40045
:101C3400FF30AF002F08A5000C30B0003008A6001C
:101C44000D30B1003108A7000E30B2003208A800F0
:101C54000F30B3003308A90008300A128A11382261
:101C64000A128A15103083120313AA002A08A3004B
:101C740002300A128A159B260A128A15FE30831234
:101C84000313A4008830A5000A128A151A240A1224
:101C94008A154B2E30300A128A153E250A128A15EF
:101CA4000A128A1565240A128A156430F20000307B
:101CB400F3000A128A1536230A128A1530300A12E2
:101CC4008A153E250A128A150A128A1565240A12F3
:101CD4008A15C830F0000030F1000A128A150F236B
:101CE4000A128A1530300A128A153E250A128A15FC
:101CF4000A128A1565240A128A15C830F0000030C9
:101D0400F1000A128A150F230A128A1520300A12CA
:101D14008A153E250A128A150A128A1565240A12A2
:101D24008A15C830F0000030F1000A128A150F231A
:101D3400080083120313A5002308A40024088316B3
:101D44000313A100831203132508A4002408831697
:101D54000313A0000330831203132502031CBE2EB9
:101D640023080F39903EA4002408E50023080F3906
:101D7400D03EA4002408E6006430F2000030F300F2
:101D84000A128A1536230A128A1508308316031399
:101D94002206031DCF2E3830DB2E043083160313A6
:101DA4002206031DE02E0A128A154C260A128A15F1
:101DB40028300A128A15C0240A128A150E300A1213
:101DC4008A15C0240A128A150A128A151A230800D1
:101DD400831203132308031DFC2E2208031DFC2E6B
:101DE40009302102031DFA2E60302002031DFA2E51
:101DF400031C3A2F2308031D3A2F01302202031D2E
:101E04000B2FC2302102031D0B2F01302002031DB2
:101E14000B2F03183A2F2008A4002108A50022083C
:101E2400A6002308A70006300310A40DA50DA60DD7
:101E3400A70DFF3E031D162F2708F3002608F20006
:101E44002508F1002408F0000130F7003130F600D5
:101E54002D30F5000030F4000A128A1543270A12C7
:101E64008A157008FF3E83120313A80028083D2F2B
:101E74001F30A4002408A90029088316031399001D
:101E840008000030FC000030FB000030FA00003095
:101E9400F90073087204710470040319982FFD018A
:101EA400FD0AF31B632F0130F8000310F00DF10D50
:101EB400F20DF30DF80B572F0130F8007808FD07E9
:101EC400532F0130F8000310F90DFA0DFB0DFC0D32
:101ED400F80B652F73087702031D7A2F72087602B8
:101EE400031D7A2F71087502031D7A2F700874027E
:101EF400031C8B2F7008F4027108031C710FF50288
:101F04007208031C720FF6027308031C730FF702A6
:101F1400791401300310F30CF20CF10CF00CFF3EB9
:101F2400031D8C2F0130FD02031D632F7C08F30079
:101F34007B08F2007A08F1007908F00008008316A3
:101F4400031385018601870188018901FF3083120B
:101F540003138500FF308600FF308700FF308800C0
:101F6400FF308900F430F2000130F3000A128A15C0
:101F740036230A128A158312031385018601870109
:101F84008801FF308900F430F2000130F3000A12B6
:101F94008A1536230A128A150130F6000030F7003C
:101FA400F401F5017508803AFF0080307F02031DBB
:101FB400DD2F083074020318A82F76088312031348
:101FC40085007608860076088700760888007608FB
:101FD40089000310760DF600770DF700C830F20083
:101FE4000030F3000A128A1536230A128A150130CA
:0C1FF400F4070318F50A0030F507D42F9D
:02400E00BA3FB7
:00000001FF
