:100000000A128A11FC2F00308A000408840A820731
:1000100000346834653478343A34303478342534F4
:1000200032347834203420342034623469346E34ED
:100030003A34253438346234203420342034643463
:10004000653463343A342534333464340A340D343B
:0200500000347A
:1006A400F000831203130C1E532B0C1270089900D4
:1006B400080070087104031908000130F0020030CA
:1006C400031CF103F1025B2B83120313A300A201A9
:1006D400231C702B2008A1002108A2070310A00DE1
:1006E4000310A30C2308031D6A2B220808007208B8
:1006F4007304031908002C30F0000130F1000A12D1
:100704008A115B230A128A110130F2020030031CA1
:10071400F303F302792BF2007208840083130008B8
:100724000319080072088400831300080A128A114E
:1007340052230A128A110130F1007108F2078E2B3C
:100744008030831603138700203098009030831282
:10075400031398003308A3003208A2003108A10053
:100764003008A0000A128A115C24080083120313C3
:10077400E001E1010030B3000030B2002530B100E7
:100784008030B0000A128A11A2230A128A1183123D
:1007940003136108C4006008C3006108C600600850
:1007A400C5006108C8006008C70001300A128A1138
:1007B400D7250A128A116430F2000030F3000A12BD
:1007C4008A1179230A128A11013083120313E00774
:1007D4000318E10A0030E1076108803AFF00813024
:1007E4007F02031DF72B00306002031CC92B831208
:1007F4000313E001E101C92B0030FC000030FB00D1
:100804000030FA000030F9007308720471047004B7
:100814000319532CFD01FD0AF31B1E2C0130F800B3
:100824000310F00DF10DF20DF30DF80B122C013045
:10083400F8007808FD070E2C0130F8000310F90DBC
:10084400FA0DFB0DFC0DF80B202C73087702031D29
:10085400352C72087602031D352C71087502031DB0
:10086400352C70087402031C462C7008F4027108BD
:10087400031C710FF5027208031C720FF602730851
:10088400031C730FF702791401300310F30CF20CFC
:10089400F10CF00CFF3E031D472C0130FD02031D3B
:1008A4001E2C7C08F3007B08F2007A08F10079081A
:1008B400F0000800831203132308031D6E2C220882
:1008C400031D6E2C09302102031D6C2C60302002A4
:1008D400031D6C2C031CC92C2308031DC92C0130D7
:1008E4002202031D7D2CC2302102031D7D2C013008
:1008F4002002031D7D2C0318C92CFF30A400FF30F7
:10090400A500FF30A600FF30A7002008A80021089A
:10091400A9002208AA002308AB0006300310A80D82
:10092400A90DAA0DAB0DFF3E031D902C2B08F3005F
:100934002A08F2002908F1002808F0000130F70025
:100944003130F6002D30F5000030F4000A128A111F
:10095400FE230A128A11700883120313A407710874
:100964000318710FB62CB72CA50772080318720F61
:10097400BC2CBD2CA60773080318730AA707270805
:10098400AF002608AE002508AD002408D02C0030A6
:10099400AF000030AE000030AD001F30AC002C08BA
:1009A400831603139900080083120313C100C201C4
:1009B4000230410603191D2D212D2408A900250804
:1009C400AA002608AB002708AC002808FF3EAD00AB
:1009D400AD0A0130AE000030AF00F32C0310AE0DB1
:1009E400AF0DAD0BF02C2E08B0002F08B100003075
:1009F400B11BFF30B200B3003008A9053108AA05C5
:100A04003208AB053308AC052C082B042A0429044E
:100A140003190E2D01300F2D0030B4003408C2002C
:100A24004208303E0A128A1152230A128A110130F6
:100A340083120313A802280803190800DF2C2708CF
:100A4400260425042404031D3D2DC2012808420266
:100A5400031808000A3042020318080030300A1252
:100A64008A1152230A128A11013083120313A90036
:100A74002908C207282DC201280842020318D32DD1
:100A8400270826042504240403199D2D4108A900E0
:100A94002908A0002708F7002608F6002508F50015
:100AA4002408F4004108AA00AB01AC01AD012D08F3
:100AB400F3002C08F2002B08F1002A08F0000A12B7
:100AC4008A11FE230A128A1170080A128A116623F7
:100AD4000A128A11FF3A013E831203132407AE005F
:100AE4004208353E84002E08831380004108A90083
:100AF400AA01AB01AC012C08F3002B08F2002A0870
:100B0400F1002908F0002708F7002608F600250858
:100B1400F5002408F4000A128A11FE230A128A112D
:100B2400730883120313A7007208A6007108A500B6
:100B34007008A400A92D280A0319D32D0B3028020C
:100B44000318D32D4208353E8400831380010130FD
:100B5400A9002908C2073E2D4208FF3E353E840005
:100B64000A30831300020318BE2D4208FF3E353EAF
:100B740084000008303EC42D4208FF3E353E840008
:100B84000008373EBF00003003180130C0003F08A2
:100B94000A128A1152230A128A1101308312031392
:100BA400C202420803190800AE2D83120313CF00BA
:100BB4004330C9004908DF004F08C9004908DC0078
:100BC4005C0884000A128A1103200A128A11003A6E
:100BD400031908005C0884000A128A1103200A120F
:100BE4008A11C9004908DD0025305D06031DEF2F79
:100BF4000130C9004908DC075C0884000A128A1124
:100C040003200A128A11C9004908DD0030305D0250
:100C1400031C392E3A305D020318392EDE013030C0
:100C24005D02031CBD2F3A305D020318BD2F0A304C
:100C3400C9004908A0005E080A128A1166230A1234
:100C44008A11831203135D07D03ECA004A08DE00EE
:100C54000130C9004908DC075C0884000A128A11C3
:100C640003200A128A11C9004908DD00112EFF3041
:100C7400C9004908DE00BD2F5F0884008313000803
:100C8400C9004908DD000230C9004908DF07EF2F19
:100C9400831203135F08840083130008D400840ABA
:100CA4000008D5000230C9004908DF07D51F652EAA
:100CB400D409D509D40A0319D50A2D300A128A1188
:100CC40052230A128A11831203135408A4005508EC
:100CD400A5000030A51BFF30A600A7005E08C900D0
:100CE4004908A8000A300A128A11D6240A128A1165
:100CF400F52F831203135F08840083130008D000C8
:100D0400840A0008D100840A0008D200840A00087A
:100D1400D3000430C9004908DF07D31FA22ED0092D
:100D2400D109D209D309D00A0319D10A0319D20A65
:100D34000319D30A2D300A128A1152230A128A1176
:100D4400831203135308A7005208A6005108A500F4
:100D54005008A4005E08C9004908A8000A300A1215
:100D64008A11D6240A128A11F52F831203135F08FD
:100D7400840083130008DA00840A0008DB000230D0
:100D8400C9004908DF075A08A4005B08A500A601AA
:100D9400A7015E08C9004908A8000A300A128A118E
:100DA400D6240A128A11F52F831203135F088400D4
:100DB40083130008D600840A0008D700840A0008B8
:100DC400D800840A0008D9000430C9004908DF07A4
:100DD4005908A7005808A6005708A5005608A400FB
:100DE4005E08C9004908A8000A300A128A11D624EC
:100DF4000A128A11F52F831203135F0884008313E8
:100E04000008DA00840A0008DB000230C90049083F
:100E1400DF075A08A4005B08A500A601A7015E0825
:100E2400C9004908A80010300A128A11D6240A12EF
:100E34008A11F52F831203135F08840083130008BB
:100E4400D600840A0008D700840A0008D800840A5F
:100E54000008D9000430C9004908DF075908A70071
:100E64005808A6005708A5005608A4005E08C90043
:100E74004908A80010300A128A11D6240A128A11CD
:100E8400F52F831203135F08840083130008DA002C
:100E9400840A0008DB000230C9004908DF075E0A43
:100EA400031D582F1030C9004908DE005A08A40059
:100EB4005B08A500A601A7015E08C9004908A800AF
:100EC40002300A128A11D6240A128A11F52F8312CB
:100ED40003135F08840083130008D600840A000803
:100EE400D700840A0008D800840A0008D900043016
:100EF400C9004908DF075E0A031D842F1030C900AA
:100F04004908DE005908A7005808A6005708A5009C
:100F14005608A4005E08C9004908A80002300A1255
:100F24008A11D6240A128A11F52F831203135F083B
:100F3400840083130008CB00840A0008CC00840AD0
:100F44000008CD000330C9004908DF07F52F5F080A
:100F5400840083130008C9004908CE000130C90089
:100F64004908DF074E080A128A118D230A128A11D2
:100F7400F52F2530F02F831203135D08253A03194A
:100F8400BB2F673A0319692F013A03193E2E073A1A
:100F940003197B2E023A0319972F153A0319A92F27
:100FA400063A0319D62E0D3A03191C2F3A3A03199F
:100FB400432F013A03193E2E073A03194A2E023AE7
:100FC4000319972F153A0319A92F063A0319B72EB7
:100FD4000D3A0319FD2EF52FF52F5D080A128A111B
:100FE40052230A128A11013083120313C9004908DB
:0C0FF400DC07E22D83010A128A11B82BE1
:02400E00BA3FB7
:00000001FF
