:060000000A128A11F82F1C
:10001400FB007B08840083130008031908007B0895
:100024008400831300080A128A11B2220A128A1168
:100034000130FA007A08FB070B28FA0108307A022B
:10004400031867280A128A15AF260A128A1140304B
:100054000A128A1548270A128A117A08B83E0A1227
:100064008A1548270A128A11F90180307902031887
:100074005F2840307906031D51280A128A15B726D5
:100084000A128A1140300A128A1548270A128A1164
:100094007A08B83E0A128A1548270A128A110030D3
:1000A4000A128A1529270A128A110130F8007808E1
:1000B400F90780307902031C3B280130F8007808E6
:1000C400FA0708307A02031C242800300A128A1521
:1000D400CA260800F80108307802031808000A123A
:1000E4008A15AF260A128A1140300A128A15482747
:1000F4000A128A117808B83E0A128A1548270A1289
:100104008A11F701803077020318BC284030770643
:10011400031D9E280A128A15B7260A128A11403036
:100124000A128A1548270A128A117808B83E0A1258
:100134008A1548270A128A11750883120313FF00CF
:10014400740884000A128A1500200A128A110A12FD
:100154008A1529270A128A110130F4070318F50AAF
:100164000030F5070130F6007608F7078030770293
:10017400031C88280130F6007608F8076D288316DA
:1001840003138601E030FB007B0888050A128A15F8
:10019400AF260A128A113F300A128A1548270A121A
:1001A4008A110A128A15B7260A128A113F300A12D6
:1001B4008A1548270A128A110A30F2000030F30027
:1001C4000A128A1501270A128A110A128A15AF2601
:1001D4000A128A11C0300A128A1548270A128A1193
:1001E4000A128A15B7260A128A11C0300A128A1511
:1001F40048270A128A1100300A128A158A270A121D
:100204008A110A128A111F200A128A1183120313F7
:10021400EA01B830FB007B08EB004030FB007B08B0
:10022400EC0000300A128A158A270800F601F11F33
:100234002229F009F109F00A0319F10AF601F60A74
:10024400F31F2D29F209F309F20A0319F30A013005
:10025400F4007408F606F701F80170087104031934
:100264006429F501F50AF11B432901300310F00D4F
:10027400F10DFF3E031D38290130F4007408F50721
:10028400352901300310F70DF80DFF3E031D4429F5
:1002940071087302031D502970087202031C592946
:1002A4007008F2027108031CF303F302771401309F
:1002B4000310F10CF00CFF3E031D5A290130F50226
:1002C400031D4329760803196C29F709F809F70A6D
:1002D4000319F80A7808F1007708F00008000030E4
:1002E400FC000030FB000030FA000030F900730815
:1002F4007204710470040319C629FD01FD0AF31B7D
:1003040091290130F8000310F00DF10DF20DF30DF9
:10031400F80B85290130F8007808FD0781290130A0
:10032400F8000310F90DFA0DFB0DFC0DF80B9329E1
:1003340073087702031DA82972087602031DA829F1
:1003440071087502031DA82970087402031CB929D9
:100354007008F4027108031C710FF5027208031C83
:10036400720FF6027308031C730FF702791401303D
:100374000310F30CF20CF10CF00CFF3E031DBA2930
:100384000130FD02031D91297C08F3007B08F20073
:100394007A08F1007908F000080083120313A00022
:1003A400083020020318080081307902031808007D
:1003B4004030F0000030F1007908FA00FB017A08BF
:1003C400F2007B08F3000A128A1118210A128A111A
:1003D4007008FC007C0883120313A1003F30F00076
:1003E4000030F1007908FA00FB017A08F2007B087A
:1003F400F3000A128A15B5270A128A117008FC0044
:100404007C08F900831203132108031D0F2A0A1222
:100414008A15AF260A128A11142A0A128A15B726D7
:100424000A128A11831203132108FA007A08EA00D7
:100434002008B838FA007A08EB0079084038FA0046
:100444007A08EC006C080A128A1548270A128A11E5
:10045400831203136B080A128A15482708008312B3
:100464000313CE0003144E0DC9004908CF00043015
:100474004E020318080065304802031808000030D3
:100484000A128A158A270A128A11F90183120313A0
:100494004F080A128A11CF210A128A1183120313F8
:1004A400D0014808500203186E2A40305006031D3C
:1004B400612A01300A128A158A270A128A11FF302A
:1004C4000A128A1529270A128A110130831203138A
:1004D400C9004908D007532A4808C9004908D00070
:1004E400643050020318902A40305006031D802ABD
:1004F40001300A128A158A270A128A1100300A1258
:100504008A1529270A128A11013083120313C9009C
:100514004908D00764305002031C762A6930C900A8
:100524004908F9004F080A128A11CF210A128A11C8
:10053400831203134808C900CA01CB01CC014C083B
:10054400AC004B08AB004A08AA004908A9000330D4
:10055400CD004D08AD000A300A128A11DB240800D0
:10056400F900F801831203136A03031DCB2A6C08F4
:10057400053EA000003003180130A1002108803A94
:10058400FF0080307F02031DC92A80302002031837
:10059400CF2A0A307906031DD42A0A128A15DB26CB
:1005A4000A128A110A307906031908007908E03E14
:1005B40083120313A0002008F9006A08031DEC2A23
:1005C40080306C06031DEC2A01300A128A158A2732
:1005D4000A128A11780883120313A000A101790872
:1005E400A200A3012208F0002308F1000530F20064
:1005F4000030F3000A128A1569270A128A11123090
:1006040083120313A4008830A50070082407A600F1
:1006140071080318710A2507A7002008260784001B
:1006240021080318210A2707FF000A128A1500204F
:100634000A128A11A8002808F70077080A128A15F6
:1006440029270A128A11013083120313A0002008FB
:10065400EC070130A0002008F80705307806031DD8
:10066400DF2A00300A128A15292701308312031366
:10067400A0002008EC070800D23083120313E8001E
:100684000430E9000A128A11C1200A128A110A12DE
:100694008A111F200A128A11ED30F4008930F50006
:1006A4000A128A116C200A128A110330F4000030F5
:1006B400F5000A128A1515270A128A110A128A11DC
:1006C4001F200A128A11ED3083120313C8008D30E3
:1006D400C9006908CB006808CA006908CD00680829
:1006E400CC006908CF006808CE00BF30D0008E303F
:1006F400D1004530D2000A128A11DC250A128A116F
:100704000330F4000030F5000A128A1515270A1286
:100714008A110A128A111F200A128A112D3083129B
:100724000313E7006708C80000300A128A11312257
:100734000A128A11323083120313E7006708C800D3
:1007440001300A128A1131220A128A11523083129C
:100754000313E7006708C80002300A128A11312225
:100764000A128A114A3083120313E7006708C8008B
:1007740003300A128A1131220A128A110330F4005A
:100784000030F5000A128A1515270A128A110A1276
:100794008A111F200A128A112D3083120313E700D5
:1007A4006708C80000300A128A1108240A128A1144
:1007B400323083120313E7006708C80001300A12BD
:1007C4008A1108240A128A11523083120313E70093
:1007D4006708C80002300A128A1108240A128A1112
:1007E4004A3083120313E7006708C80003300A1273
:1007F4008A1108240A128A110330F4000030F5002B
:100804000A128A1515270A128A11492B8312031317
:10081400CF0004304F020318080065304802031863
:1008240008004F08C90004300310C90DFF3E031D22
:10083400162C0310490DCA004A08D0005008083E7F
:10084400C9004908F90000300A128A11CF210A129E
:100854008A11831203134808C900CA01CB01CC01D1
:100864004C08AC004B08AB004A08AA004908A90090
:100874000330CD004D08AD000A300A128A11DB2482
:100884000A128A110230F0000030F10083120313BF
:100894004808C900CA014908F2004A08F3000A12CC
:1008A4008A1118210A128A11700883120313CB00CB
:1008B4004B08C8004808C90003300310C90CFF3EA8
:1008C400031D5F2C4908CA004A08CE004E03FF3AB4
:1008D400073EC9004908D100D401D40A08305402A3
:1008E4000318080050080C3EC9004908F9005408D0
:1008F4000A128A11CF210A128A1183120313510892
:1009040054020318872CD301C12C54085106031D2B
:10091400BD2C0830F0000030F1004808C900CA01BD
:100924004908F2004A08F3000A128A1118210A122F
:100934008A11700883120313CB0002300310CB0D0D
:10094400FF3E031DA02C03104B0DFF3A013E480748
:10095400CC004C08D300FF30C9005303FF3A083ED3
:10096400013EB62C0310C90DFF3E031DB42C4908EB
:10097400CA004A08C02CFF30C9004908D300D2017C
:100984000C3052020318D62C53080A128A15292750
:100994000A128A11013083120313C9004908D207CD
:1009A4000C305202031CC62C0130C9004908D4077C
:1009B400702C83120313C600C701023046060319C4
:1009C400222D262D2908AE002A08AF002B08B000DE
:1009D4002C08B1002D08FF3EB200B20A0130B3006A
:1009E4000030B400F82C0310B30DB40DB20BF52C89
:1009F4003308B5003408B6000030B61BFF30B7002A
:100A0400B8003508AE053608AF053708B005380814
:100A1400B105310830042F042E040319132D0130BD
:100A2400142D0030B9003908C7004708303E0A12B7
:100A34008A11B2220A128A11013083120313AD0201
:100A44002D0803190800E42C2C082B042A0429047B
:100A5400031D422DC7012D084702031808000A3060
:100A640047020318080030300A128A11B2220A120F
:100A74008A11013083120313AE002E08C7072D2DEF
:100A8400C7012D0847020318D82D2C082B042A046B
:100A940029040319A22D4608AE002E08A0002C0834
:100AA400F7002B08F6002A08F5002908F400460888
:100AB400AF00B001B101B2013208F3003108F20015
:100AC4003008F1002F08F0000A128A1171210A126D
:100AD4008A1170080A128A15EE260A128A11FF3A40
:100AE400013E831203132907B30047083A3E8400EA
:100AF4003308831380004608AE00AF01B001B10192
:100B04003108F3003008F2002F08F1002E08F0003D
:100B14002C08F7002B08F6002A08F5002908F40031
:100B24000A128A1171210A128A117308831203139B
:100B3400AC007208AB007108AA007008A900AE2DC1
:100B44002D0A0319D82D0B302D020318D82D470870
:100B54003A3E8400831380010130AE002E08C7079B
:100B6400432D4708FF3E3A3E84000A3083130002B7
:100B74000318C32D4708FF3E3A3E84000008303E68
:100B8400C92D4708FF3E3A3E84000008373EC400A2
:100B9400003003180130C50044080A128A11B22239
:100BA4000A128A11013083120313C702470803197A
:100BB4000800B32D4A3083120313D3005308E60010
:100BC4004808E2004908E3006308FF006208840063
:100BD4000A128A1500200A128A11003A0319080021
:100BE4006308FF00620884000A128A1500200A12B2
:100BF4008A11D3005308E40025306406031DEB2F4B
:100C04000130E2070318E30A6308FF006208840066
:100C14000A128A1500200A128A11D3005308E4002C
:100C240030306402031C452E3A3064020318452E0A
:100C3400E50130306402031CB92F3A306402031812
:100C4400B92F0A30D3005308A00065080A128A1588
:100C5400EE260A128A11831203136407D03ED400CD
:100C64005408E5000130E2070318E30A6308FF00B3
:100C7400620884000A128A1500200A128A11D3001D
:100C84005308E4001B2EFF30D3005308E500B92FAE
:100C94006608840083130008D3005308E40002307C
:100CA400D3005308E607EB2F83120313660884006E
:100CB40083130008DA00840A0008DB000230D30042
:100CC4005308E607DB1F712EDA09DB09DA0A031978
:100CD400DB0A2D300A128A11B2220A128A118312F7
:100CE40003135A08A9005B08AA000030AA1BFF30AE
:100CF400AB00AC006508D3005308AD000A300A12FB
:100D04008A11DB240A128A11F12F83120313660855
:100D1400840083130008D600840A0008D700840ADC
:100D24000008D800840A0008D9000430D30053080E
:100D3400E607D91FAE2ED609D709D809D909D60A8C
:100D44000319D70A0319D80A0319D90A2D300A122C
:100D54008A11B2220A128A11831203135908AC00B1
:100D64005808AB005708AA005608A9006508D30024
:100D74005308AD000A300A128A11DB240A128A11C0
:100D8400F12F831203136608840083130008E00024
:100D9400840A0008E1000230D3005308E607600823
:100DA400A9006108AA00AB01AC016508D30053088F
:100DB400AD000A300A128A11DB240A128A11F12FBB
:100DC400831203136608840083130008DC00840A7A
:100DD4000008DD00840A0008DE00840A0008DF0041
:100DE4000430D3005308E6075F08AC005E08AB008C
:100DF4005D08AA005C08A9006508D3005308AD008B
:100E04000A300A128A11DB240A128A11F12F831282
:100E140003136608840083130008E000840A0008B2
:100E2400E1000230D3005308E6076008A900610816
:100E3400AA00AB01AC016508D3005308AD00103023
:100E44000A128A11DB240A128A11F12F8312031366
:100E54006608840083130008DC00840A0008DD00AF
:100E6400840A0008DE00840A0008DF000430D3008E
:100E74005308E6075F08AC005E08AB005D08AA00F3
:100E84005C08A9006508D3005308AD0010300A12AD
:100E94008A11DB240A128A11F12F831203136608C4
:100EA400840083130008E000840A0008E100023093
:100EB400D3005308E607650A031D642F1030D300DE
:100EC4005308E5006008A9006108AA00AB01AC0161
:100ED4006508D3005308AD0002300A128A11DB24DE
:100EE4000A128A11F12F83120313660884008313F4
:100EF4000008DC00840A0008DD00840A0008DE0023
:100F0400840A0008DF000430D3005308E607650AAA
:100F1400031D902F1030D3005308E5005F08AC0088
:100F24005E08AB005D08AA005C08A9006508D30050
:100F34005308AD0002300A128A11DB240A128A1106
:100F4400F12F831203136608840083130008D3006F
:100F54005308D5000130D3005308E60755080A1298
:100F64008A110A200A128A11F12F2530EC2F8312DC
:100F740003136408253A0319B72F673A0319752F29
:100F8400013A03194A2E073A0319872E023A031924
:100F9400F12F153A0319A32F063A0319E22E0D3A3D
:100FA4000319282F3A3A03194F2F013A03194A2EED
:100FB400073A0319562E023A0319F12F153A031969
:100FC400A32F063A0319C32E0D3A0319092FF12F43
:100FD400F12F64080A128A11B2220A128A1101300E
:100FE40083120313E2070318E30AE62DEA01EB0177
:100FF400EC01ED0183010A128A113E2BFF1B0A2822
:1010040083137F1883170008840A0319FF0A080052
:101014007F087F398A000408840A0319FF0A8200C2
:1010240000340034003400340034003400342F34ED
:1010340000340034003407340034073400341434EA
:101044007F3414347F34143424342A347F342A34DF
:101054001234233413340834643462343634493457
:10106400553422345034003405340334003400340D
:1010740000341C34223441340034003441342234EA
:101084001C340034143408343E3408341434083422
:1010940008343E340834083400340034A034603456
:1010A4000034083408340834083408340034603414
:1010B40060340034003420341034083404340234EE
:1010C4003E345134493445343E34003442347F3460
:1010D4004034003442346134513449344634213488
:1010E400413445344B3431341834143412347F349D
:1010F4001034273445344534453439343C344A3487
:1011040049344934303401347134093405340334F6
:10111400363449344934493436340634493449344C
:1011240029341E3400343634363400340034003468
:101134005634363400340034083414342234413400
:101144000034143414341434143414340034413456
:10115400223414340834023401345134093406344A
:1011640032344934593451343E347C3412341134D9
:1011740012347C347F3449344934493436343E346F
:1011840041344134413422347F34413441342234B3
:101194001C347F3449344934493441347F3409346C
:1011A4000934093401343E344134493449347A34FD
:1011B4007F340834083408347F34003441347F34B5
:1011C400413400342034403441343F3401347F34DA
:1011D40008341434223441347F34403440344034AD
:1011E40040347F3402340C3402347F347F3404348A
:1011F400083410347F343E344134413441343E3475
:101204007F3409340934093406343E3441345134CA
:1012140021345E347F340934193429344634463455
:101224004934493449343134013401347F3401348C
:1012340001343F344034403440343F341F3420348C
:10124400403420341F343F344034383440343F3445
:101254006334143408341434633407340834703475
:101264000834073461345134493445344334003448
:101274007F344134413400345534AA345534AA34CB
:1012840055340034413441347F340034043402345E
:101294000134023404344034403440344034403463
:1012A40000340334053400340034203454345434CA
:1012B400543478347F3448344434443438343834FF
:1012C4004434443444342034383444344434483486
:1012D4007F343834543454345434183408347E3419
:1012E4000934013402341834A434A434A4347C34CE
:1012F4007F340834043404347834003444347D3482
:10130400403400344034803484347D3400347F34B9
:101314001034283444340034003441347F344034AD
:1013240000347C3404341834043478347C34083481
:10133400043404347834383444344434443438344D
:10134400FC34243424342434183418342434243419
:101354001834FC347C3408340434043408344834F9
:10136400543454345434203404343F3444344034F6
:1013740020343C344034403420347C341C34203415
:10138400403420341C343C344034303440343C3415
:10139400443428341034283444341C34A034A03465
:1013A400A0347C344434643454344C3444340034F1
:1013B40010347C348234003400340034FF3400347C
:1013C4000034003482347C34103400340034063465
:1013D4000934093406340034003400340034003451
:1013E4000034003400340034003400340034003459
:1013F4000034003400340034003400340034003449
:10140400003400348034C034E034E034F034F03458
:10141400F034F834F834FC34FC34FC34FC34FE345A
:10142400FE34FE34FE34FE34FE34FE34FE34FE3428
:10143400FE347E347E347E347C34FC34FC34FC3420
:10144400F834F834F034F034F034E034C034C034D8
:101454008034003400348034C034E034E034F03478
:10146400F034F834F834FC34FC34FC34FC34FE340A
:10147400FE34FE34FE34FE34FE34FE34FE34FE34D8
:10148400FE34FE34FE34FE34FE34FE34FE34FC34CA
:10149400FC34FC34F834F834F834F034F034E03408
:1014A400E034C03480340034003400340034003478
:1014B4000034003400340034003400340034003488
:1014C4000034003400340034003400340034003478
:1014D4000034003400340034003400340034003468
:1014E4000034003400340034003400340034003458
:1014F400003400340034C034E034F034F834FE34C2
:10150400FF34FF34FF34FF34FF34FF34FF34FF343F
:10151400FF34FF34FF34FF34FF343F341F340F34BF
:10152400073403348134C134E034E034F034F0342B
:10153400F034F834F834F834F034F034F034F0346F
:10154400E034E134C1348334073407340F343F3496
:101554007F34FF34FF34FF34FF34FF34FF34FF346F
:10156400FF34FF34FF34FF340134013401340134D7
:101574008134FF34FF3401340134013401348334C1
:10158400FF34FF3401340134013401348334FF3433
:10159400FF340134013401340134FF34FF34FF34A7
:1015A400FF34FF34FF34FF34FE34FC34F834F034B9
:1015B400E034803400340034003400340034003427
:1015C4000034003400340034003400340034003477
:1015D4000034003400340034003400340034003467
:1015E4000034003400340034003400340034003457
:1015F400E034FC34FF34FF34FF34FF34FF34FF3471
:10160400FF34FF34FF34FF34FF34FF34FF34FF343E
:10161400FF34FF34FF3487340034003400340034A2
:10162400FC34FF34FF34FF34FF34FF34FF34FF3421
:10163400FF34FF34FF34FF34FF34FF34FF34FF340E
:10164400FF34FF34FF34FF34FE34383400340034C4
:1016540000340334FF34FF34713471347134713421
:10166400713471347134FF34F934F934F934FF349A
:10167400FF34FF34FF34FF34FF34FF34FF34FF34CE
:10168400FF34FF34FF34FF34FF34FF34FF34FF34BE
:10169400FF34FF34FF34FF34FF34FF3471347134CA
:1016A40071347134713471347134FF34FF34FF3464
:1016B400FF34FF34FF34F834C034003400340034D1
:1016C4000034003400340034003400340034003476
:1016D4000034003400340034003400340034003466
:1016E40000340034003400340034003400347C34DA
:1016F400FF34FF34FF34FF34FF34FF34FF34FF344E
:10170400FF34FF34FF34FF34FF34FF34FF34FF343D
:10171400FF34FF34FF34FF34FC347034603400345D
:101724000034033407340F340F341F341F343F3470
:101734003F343F343F343F343F343F343F341F342D
:101744001F340F34073403348134C034E034F034AC
:10175400FC34FF34FF34FF341C3418341834183488
:10176400183418341834FF34FF34FF34FF34FF3492
:10177400FF34FF34FF34FF34FF34FF34FF34FF34CD
:10178400FF34FF34FF34FF34FF34FF34FF34FF34BD
:10179400FF34FF34FF34FF34FF34FF34183418347B
:1017A40018341834183418341834FF34FF34FF3420
:1017B400FF34FF34FF34FF34FF340034003400348A
:1017C4000034003400340034003400340034003475
:1017D4000034003400340034003400340034003465
:1017E4000034003400340034003400340034003455
:1017F4000F347F34FF34FF34FF34FF34FF34FF34BD
:10180400FF34FF34FF34FF34FF347F343F341F345C
:101814000F34073403348134C034E034F034F83402
:10182400FC34FE34FF34FE34FE34FE34FC34FC3429
:10183400FC34FC34FC34FC34FC34FC34FC34FE3422
:10184400FE34FE34FF34FF34FF34FF34FF34FF34FE
:10185400FF34FF34FF34FF348634863486348634D0
:10186400863486348634FF34FF34FF34FF34FF3447
:10187400FF34FF34FF34FF34FF34FF34FF34FF34CC
:10188400FF34FF34FF34FF34FF34FF34FF34FF34BC
:10189400FF34FF34FF34FF34FF34FF34863486349E
:1018A40086348634863486348634FF34FF34FF34F9
:1018B400FF34FF347F341F340334003400340034E5
:1018C4000034003400340034003400340034003474
:1018D4000034003400340034003400340034003464
:1018E4000034003400340034003400340034003454
:1018F40000340034013403340F341F343F347F3454
:10190400EF34C73483348134C034E034F034F834F1
:10191400FC34FE34FF34FF34FF34FF34FF34FF342F
:10192400FF34FF34FF34FF34FF34FF34FF34FF341B
:10193400FF34FF34FF34FF34FF34FF34FF34FF340B
:10194400FF34FF34FF34FF34FF34FF34FF34FF34FB
:10195400FF34FF34FF34FF34FF34FF34FF34FF34EB
:10196400FF34FF34FF34FF34C034C034C034C034D7
:10197400C034FF34FF34C034C034C034C034C03445
:10198400FF34FF34C034C034C034C034C034FF34F6
:10199400FF34C034C034C034C034FF34FF34FF34A7
:1019A400FF34FF34FF34FF347F343F341F340F34AB
:1019B400033401340034003400340034003400347F
:1019C4000034003400340034003400340034003473
:1019D4000034003400340034003400340034003463
:1019E4000034003400340034003400348034803453
:1019F4008034803400340034003400340034003443
:101A04000034013401340334073407340F340F3401
:101A14009F341F343F343F343F347F347F347F342A
:101A24007F347F347F347F347F347F347F347F341A
:101A34007F347F34FF34FF34FF34BF343F343F34CA
:101A44003F341F341F340F340F3407340734033446
:101A5400813401340034013401340334073407344D
:101A64000F340F341F341F341F343F343F34BF341A
:101A74003F347F347F347F347F34FF347F347F348A
:101A84007F347F347F347F347F343F343F343F347A
:101A94003F349F341F341F340F340F34073407345A
:101AA400033401340134003400340034003400348D
:101AB4000034003400340034003400340034003482
:101AC4000034003400340034003400340034003472
:101AD4000034003400340034003400340034003462
:101AE4000034003400340034003400347F3444348F
:101AF4004434443400344234663418341C34663478
:101B040040340034FE34423442347E3400340034F1
:101B14007F3400343C34423442343C3400340034A6
:101B24007E340234023400343C344A344A346E3451
:101B3400003400347F3444344434443400340034B6
:101B44007E34023402347C34023402347C34003473
:101B54007F34423442347E34003400343C344A34DA
:101B64004A346E34003400343C34423442347F34DA
:101B7400003400343C34423442347F340034003482
:101B84003C344A344A346E34003400343C344234F5
:101B940042347F34003400344034003400343C3464
:101BA400423442344234243400343C3442344234E7
:101BB4003C34003400347E34023402347C34023445
:101BC40002347C34003400340034003400340034F3
:101BD4000034003400344434653463343A342534F6
:101BE400643420340A344834653478343A3425343F
:101BF400783420340A34423469346E343A34253427
:101C0400623420340A3446346C346F3461347434AE
:081C14003A3425346634003433
:101D4E000A30F0000030F1000A128A15BF26080092
:101D5E00831203138815EF30F00070088805080011
:101D6E00831203130816F730F00070088805080078
:101D7E0070087104031908000130F0020030031CD2
:101D8E00F103F102BF2EF7000830770203180800A6
:101D9E007708B83EF600760883120313EB00003086
:101DAE000A128A158A2708000130F6007608831277
:101DBE000313EB07C0306B02031CE92EB830F6009C
:101DCE007608EB0000300A128A158A270800831263
:101DDE000313A300A201231CF82E2008A100210842
:101DEE00A2070310A00D0310A30C2308031DF22E4F
:101DFE002208080072087304031908002C30F00042
:101E0E000130F1000A128A15BF260A128A15013016
:101E1E00F2020030031CF303F302012F7408750461
:101E2E0003190800E830F2000330F3000A128A1595
:101E3E0001270A128A150130F4020030031CF50343
:101E4E00F502152FF3000A128A15A7260A128A1513
:101E5E00831203136D08730686000814FD30F2001A
:101E6E007208880508150130F0000030F1000A12E2
:101E7E008A15BF26FB30F200720883120313880501
:101E8E000800F3000A128A15A7260A128A1573088B
:101E9E00831203138600FE30F20072088805FD30AF
:101EAE00F2007208880508150130F0000030F100CC
:101EBE000A128A15BF26FB30F20072088312031332
:101ECE0088050800F401F501701C732F7208F407E1
:101EDE000318F50A7308F50701300310F20DF30D20
:101EEE00FF3E031D742F01300310F10CF00CFF3E6A
:101EFE00031D7B2F70087104031D6B2F7508F100F5
:101F0E007408F0000800F5007508031D7503031D25
:101F1E0008007508031D992F0A128A15AF260A129A
:101F2E008A159E2F0A128A15B7260A128A15750867
:101F3E00F400740883120313EA004030F4007408AE
:101F4E00EC006B080A128A1548270A128A158312AA
:101F5E0003136C080A128A1548270800F601F31FAE
:101F6E00BF2FF209F309F20A0319F30AF601F60A72
:101F7E00F11FC62FF009F109F00A0319F10A7008D2
:101F8E0071040319F32FF501F50AF11BDA2F013055
:101F9E000310F00DF10DFF3E031DCF2F0130F400A5
:101FAE007408F507CC2F71087302031DE02F70081B
:101FBE007202031CE82F7008F2027108031CF3036F
:101FCE00F30201300310F10CF00CFF3E031DE92F5C
:101FDE000130F502031DDA2F76080319FB2FF209E3
:101FEE00F309F20A0319F30A7308F1007208F000FC
:021FFE000800D9
:02400E003A3F37
:00000001FF
