:060000000A128A11F02F24
:1000080080308316031387002030980090308312C5
:10001800031398003308A3003208A2003108A10096
:100028003008A0000A128A11462108000030FC009E
:100038000030FB000030FA000030F9007308720449
:100048007104700403196F28FD01FD0AF31B3A2897
:100058000130F8000310F00DF10DF20DF30DF80B5F
:100068002E280130F8007808FD072A280130F8000A
:100078000310F90DFA0DFB0DFC0DF80B3C28730865
:100088007702031D512872087602031D5128710852
:100098007502031D512870087402031C6228700839
:1000A800F4027108031C710FF5027208031C720F29
:1000B800F6027308031C730FF7027914013003105A
:1000C800F30CF20CF10CF00CFF3E031D6328013019
:1000D800FD02031D3A287C08F3007B08F2007A0829
:1000E800F1007908F000080083120313E901BF301A
:1000F80084009030E5000408E6002F30E70065082A
:10010800840083170008E800E50A66088400680888
:100118008000E60AE70B83280030B3000030B20005
:100128002530B1008030B0000A128A1104200A126A
:100138008A11BF3083120313CB000130CC00013089
:100148000A128A11B9250A128A118312031369083F
:10015800E500E6016508F5006608F600BF30E7002F
:100168006708F7000A128A1584270A128A1183126F
:1001780003136908E500E6016508F4006608F50060
:10018800A030E7006708F6000A128A1563270A12EA
:100198008A11A03083120313CB000030CC001B302F
:1001A8000A128A11B9250A128A11D9287308031963
:1001B800E228720871047004031DF5280030F0006D
:1001C8000030F1000030F20008000130F500750839
:1001D800F30701300310F20CF10CF00CFF3E031D85
:1001E800EE28FE30720503191029E9280130F500C0
:1001F8007508F3070130F007003003180130F107E4
:10020800003003180130F20701300310F20CF10C32
:10021800F00CFF3E031D0929FF30720503191F2941
:10022800FA280130F30201300310F00DF10DF20D40
:10023800FF3E031D1829F11B2529023073020318FC
:10024800152973182D29FF30F0057F30F105FF308F
:10025800F2050310F30C7308F500F601F7011030EE
:100268000310F50DF60DF70DFF3E031D3429750833
:10027800F0047608F1047708F204740803190800FA
:10028800F2170800831203132308031D58292208B4
:10029800031D582909302102031D56296030200208
:1002A800031D5629031CB3292308031DB329013054
:1002B8002202031D6729C2302102031D672901306C
:1002C8002002031D67290318B329FF30A400FF305B
:1002D800A500FF30A600FF30A7002008A8002108CD
:1002E800A9002208AA002308AB0006300310A80DB5
:1002F800A90DAA0DAB0DFF3E031D7A292B08F300AB
:100308002A08F2002908F1002808F0000130F70057
:100318003130F6002D30F5000030F4000A128A1151
:100328001A200A128A11700883120313A40771088D
:100338000318710FA029A129A50772080318720FC5
:10034800A629A729A60773080318730AA707270869
:10035800AF002608AE002508AD002408BA290030F1
:10036800AF000030AE000030AD001F30AC002C08EC
:100378008316031399000800831203132A08AE009A
:100388002B08AF002C08B00003102F0D300DB10062
:100398003108B7003708031DDA290030AD000030F6
:1003A800AC000030AB000030AA0008002A08AE00FC
:1003B8002B08AF002C08B00017300310B00CAF0C9E
:1003C800AE0CFF3E031DE1292E08B1003108B20032
:1003D800AB17FF30AA05FF30AB050030AC052A0883
:1003E800B3002B08B4002C08B500B6018E30B70254
:1003F800B71F1C2A3708803A8F3E03180C2A003092
:10040800AD000030AC000030AB000030AA0008009E
:1004180001300310B60CB50CB40CB30CFF3E031D31
:100428000D2A0130AE002E08B7070319372A0C2A07
:1004380018303702031C342A0030AD000030AC00FD
:100448000030AB000030AA0008000130AE000310F5
:10045800B30DB40DB50DB60DAE0B2B2A0130B70296
:100468003708031D292A32080319452AB309B40994
:10047800B509B609B30A0319B40A0319B50A031969
:10048800B60A3608AD003508AC003408AB003308AE
:10049800AA000800831203134308AA004408AB000B
:1004A8004508AC000A128A11C0210A128A11831267
:1004B80003132D08CA002C08C9002B08C8002A08F5
:1004C800C7004A08A7004908A6004808A500470829
:1004D800A400FF30C6004608A8000A300A128A1194
:1004E800BE230A128A112E300A128A15D2260A123F
:1004F8008A11831203134308A3004408A400450883
:10050800A5004A08FB004908FA004808F90047080E
:10051800F8000A128A15A6270A128A117808831287
:100528000313A0007908A1007A08A2000A128A150C
:10053800DB260A128A11831203132008A600210859
:10054800A7002208A8000A128A11B0240A128A11E8
:10055800831203132308C3002408C4002508C50018
:100568004308FB004408FC004508FD002430F8005F
:100578007430F9004930FA000A128A11ED220A1281
:100588008A11780883120313AA007908AB007A0845
:10059800AC000A128A11C0210A128A1183120313AD
:1005A8002D08CA002C08C9002B08C8002A08C70053
:1005B8004A08A7004908A6004808A5004708A4005B
:1005C800FF30C6004608A8000A300A128A11BE2366
:1005D8000800780883120313A0007908A1007A089C
:1005E800A2000310210D220DA3002308A400240853
:1005F800031D052B0030F8000030F9000030FA0028
:1006080008007B08A0007C08A1007D08A200031058
:10061800210D220DA3002308A9002908031D1B2B67
:100628000030F8000030F9000030FA00080029080E
:100638007B3EA0002008A4077808A0007908A10044
:100648007A08A20010300310A20CA10CA00CFF3EE7
:10065800031D272B2008A3002308A9007B08A0005E
:100668007C08A1007D08A20010300310A20CA10C88
:10067800A00CFF3E031D392B2008A3002308A90660
:100688008030A0002008A905F917FC17FF30FB05EA
:10069800FF30FC050030FD050030A5000030A60045
:1006A8000030A7000730A0002008A800781C6A2B9B
:1006B8007B08A5077C08031103187C0A031DA607FD
:1006C8007D08031103187D0A031DA70701300310D5
:1006D800FA0CF90CF80CFF3E031D6B2B01300310CC
:1006E800FB0DFC0DFD0DFF3E031D732B0130A80211
:1006F800031D5A2B0930A0002008A800781C922B53
:100708007B08A5077C08031103187C0A031DA607AC
:100718007D08031103187D0A031DA7070130031084
:10072800FA0CF90CF80CFF3E031D932B0130031053
:10073800A70CA60CA50CFF3E031D9B2B0130A8029D
:10074800031D822B2508F0002608F1002708F20077
:100758002408A0002008F3002908A1002108F400BB
:100768000A128A11DA207008F8007108F900720874
:10077800FA00080083120313C100C20102304106C7
:100788000319052C092C2408A9002508AA00260805
:10079800AB002708AC002808FF3EAD00AD0A0130C9
:1007A800AE000030AF00DB2B0310AE0DAF0DAD0B6C
:1007B800D82B2E08B0002F08B1000030B11BFF3035
:1007C800B200B3003008A9053108AA053208AB0504
:1007D8003308AC052C082B042A0429040319F62B2A
:1007E8000130F72B0030B4003408C2004208303E14
:1007F8000A128A15D2260A128A11013083120313AB
:10080800A802280803190800C72B2708260425046E
:100818002404031D142C30300A128A15D22608002D
:1008280083120313C201280842020318AC2C2708BC
:100838002604250424040319762C4108A900290854
:10084800A0002708F7002608F6002508F500240868
:10085800F4004108AA00AB01AC01AD012D08F3007A
:100868002C08F2002B08F1002A08F0000A128A115D
:100878001A200A128A1170080A128A1501270A1208
:100888008A11FF3A013E831203132407AE0042087F
:10089800353E84002E08831380004108A900AA0170
:1008A800AB01AC012C08F3002B08F2002A08F10078
:1008B8002908F0002708F7002608F6002508F500A3
:1008C8002408F4000A128A111A200A128A117308DD
:1008D80083120313A7007208A6007108A500700808
:1008E800A400822C280A0319AC2C0B302802031808
:1008F800AC2C4208353E8400831380010130A900E6
:100908002908C207172C4208FF3E353E84000A30EA
:10091800831300020318972C4208FF3E353E8400DB
:100928000008303E9D2C4208FF3E353E84000008FA
:10093800373EBF00003003180130C0003F080A12DC
:100948008A15D2260A128A11013083120313C202B1
:10095800420803190800872C831203132308A900EF
:100968002408AA002508AB0003102A0D2B0DAC00A3
:100978002C08AF002608A9002708AA002808AB0001
:1009880003102A0D2B0DAC002C08AE002F080319FC
:10099800D92C2E082F020318E02C2F03FF3A2E071C
:1009A800A90019302902031CE02C2608A3002708F7
:1009B800A4002808A50008002E08031908002F081D
:1009C8002E020318EF2C2E03FF3A2F07A900193027
:1009D8002902031808000630A9002908AD00A51B44
:1009E800AD17A81B2D17A417FF30A305FF30A405CA
:1009F8000030A505A717FF30A605FF30A705003072
:100A0800A8052E082F0203182F2D01300310A60D5C
:100A1800A70DA80DFF3E031D0A2D0130AE022E08BA
:100A28002F0603192A2D0130AD022D0807390319A5
:100A38002A2D092D01300310A50CA40CA30CFF3E90
:100A4800031D1F2D0130A9002908AF072F082E0606
:100A58000319582D1E2D2F082E020318582D01306A
:100A68000310A30DA40DA50DFF3E031D342D013069
:100A7800AF022E082F060319542D0130AD022D08A0
:100A880007390319542D332D01300310A80CA70C76
:100A9800A60CFF3E031D492D0130A9002908AE0709
:100AA8002F082E06031D482DAD1F6A2DFF30A30603
:100AB800FF30A406FF30A5060130A3070030031855
:100AC8000130A407003003180130A5072D1F7C2D25
:100AD800FF30A606FF30A706FF30A8060130A6079C
:100AE800003003180130A707003003180130A807A9
:100AF800AD012308A607240803110318240A031DBF
:100B0800A707250803110318250A031DA807A81F0E
:100B18009F2DFF30A606FF30A706FF30A80601303C
:100B2800A607003003180130A7070030031801306A
:100B3800A807AD01AD0A2608F0002708F10028082B
:100B4800F2002F08A9002908F3002D08AA002A0896
:100B5800F4000A128A11DA20700883120313A30022
:100B68007108A4007208A500080083120313D400BA
:100B78004B30CD004D08E4005408CD004D08E1008D
:100B8800610884000A128A1500200A128A11003AA4
:100B980003190800610884000A128A1500200A1245
:100BA8008A11CD004D08E20025306206031DE32FAF
:100BB8000130CD004D08E107610884000A128A154A
:100BC80000200A128A11CD004D08E200303062027E
:100BD800031C1B2E3A30620203181B2EE30130302F
:100BE8006202031CB12F3A3062020318B12F0A3097
:100BF800CD004D08A00063080A128A1501270A12C1
:100C08008A11831203136207D03ECE004E08E30018
:100C18000130CD004D08E107610884000A128A15E9
:100C280000200A128A11CD004D08E200F32DFF3092
:100C3800CD004D08E300B12F640884008313000839
:100C4800CD004D08E2000230CD004D08E407E32F47
:100C5800831203136408840083130008D900840AEC
:100C68000008DA000230CD004D08E407DA1F472EED
:100C7800D909DA09D90A0319DA0A2D300A128A15AC
:100C8800D2260A128A11831203135908A4005A089B
:100C9800A5000030A51BFF30A600A7006308CD0003
:100CA8004D08A8000A300A128A11BE230A128A11B6
:100CB800E92F831203136408840083130008D50006
:100CC800840A0008D600840A0008D700840A0008AD
:100CD800D8000430CD004D08E407D81F842ED5096C
:100CE800D609D709D809D50A0319D60A0319D70A84
:100CF8000319D80A2D300A128A15D2260A128A1127
:100D0800831203135808A7005708A6005608A50021
:100D18005508A4006308CD004D08A8000A300A123F
:100D28008A11BE230A128A11E92F83120313640859
:100D3800840083130008DF00840A0008E000023002
:100D4800CD004D08E4075F08A4006008A500A601CF
:100D5800A7016308CD004D08A8000A300A128A11BD
:100D6800BE230A128A11E92F831203136408840030
:100D780083130008DB00840A0008DC00840A0008EA
:100D8800DD00840A0008DE000430CD004D08E407C9
:100D98005E08A7005D08A6005C08A5005B08A40023
:100DA8006308CD004D08A8000A300A128A11BE2334
:100DB8000A128A11E92F831203136408840083132B
:100DC8000008DF00840A0008E0000230CD004D086A
:100DD800E4075F08A4006008A500A601A70163084E
:100DE800CD004D08A80010300A128A11BE230A123D
:100DF8008A11E92F831203136408840083130008FF
:100E0800DB00840A0008DC00840A0008DD00840A8C
:100E18000008DE000430CD004D08E4075E08A70096
:100E28005D08A6005C08A5005B08A4006308CD0067
:100E38004D08A80010300A128A11BE230A128A111E
:100E4800E92F831203136408840083130008DF006A
:100E5800840A0008E0000230CD004D08E407630A68
:100E6800031D3A2F1030CD004D08E3005F08A400A1
:100E78006008A500A601A7016308CD004D08A800D9
:100E880002300A128A11BE230A128A11E92F83122C
:100E980003136408840083130008DB00840A000835
:100EA800DC00840A0008DD00840A0008DE00043043
:100EB800CD004D08E407630A031D662F2030CD00DE
:100EC8004D08E3005E08A7005D08A6005C08A500C1
:100ED8005B08A4006308CD004D08A80002300A1280
:100EE8008A11BE230A128A11E92F83120313640898
:100EF800840083130008CF00840A0008D000840A05
:100F08000008D1000330CD004D08E4074F08C300A6
:100F18005008C4005108C5000A128A114E220A124C
:100F28008A11E92F831203136408840083130008CD
:100F3800D200840A00088403D3000230CD004D0893
:100F4800E4075208F1005308F2000A128A152C2708
:100F58000A128A11E92F2530E42F8312031362083D
:100F6800253A0319AF2F673A03194B2F013A031992
:100F7800202E073A03195D2E023A0319792F153AE4
:100F88000319962F063A0319B82E0D3A0319FE2EA7
:100F98003A3A0319252F013A0319202E073A031963
:100FA8002C2E023A0319792F153A0319962F063A6F
:100FB8000319992E0D3A0319DF2EE92FE92F62083C
:100FC8000A128A15D2260A128A11013083120313D3
:100FD800CD004D08E107C42D8317BF30FD000F3049
:100FE800FE00D130FF00903084000A128A15F426E2
:100FF80083010A128A11782808308A000408840AB2
:10100800820700340A340D34453465347034723440
:101018006F346D3420345734723469347434653421
:10102800203453347434723469346E3467343A3447
:1010380020342534733400340A340D34453465348F
:10104800703472346F346D34203452346534613402
:101058006434203453347434723469346E346734ED
:0A1068003A34203425347334003488
:101DA400F000831203130C1ED32E0C12700899003A
:101DB40008008312031322082104200403190800D5
:101DC4008030A2060800700871040319080001306D
:101DD400F0020030031CF103F102E52E7E088A00B4
:101DE4007F088200F0260A128A158000840A0408FB
:101DF4007D0603190034FF0A0319FE0AF42E831228
:101E04000313A300A201231C0B2F2008A100210807
:101E1400A2070310A00D0310A30C2308031D052F14
:101E240022080800831603170C18142F8C18142F7B
:101E34007208831203178D00831603170C143230B3
:101E4400F0000030F1000A128A15E5268312031708
:101E54000C080800710884008317721C831300089F
:101E640003190800710884008317721C8313000887
:101E74000A128A15D2260A128A150130F1070318AC
:101E8400F20A2C2F831603170C18442F8C18442F96
:101E94007208831203178D0074088C0083160317CD
:101EA4000C1555308D00AA308D008C140A30F000CA
:101EB4000030F1000A128A15E526831603170C1167
:101EC40008007508F3007408F2000A128A15142732
:101ED4000A128A15F7007708F8007808F7007608E0
:101EE40084007708831380000130F7007708F60731
:101EF4000130F4070318F50A0030F50778080319D0
:101F04000800632F7608F3007508F2007708840050
:101F140083170008F8007808F4000A128A15442789
:101F24000A128A150130F8007808F7070130F5071E
:101F34000318F60A0030F6077708FF3E840083177B
:101F4400000803190800842F8E30FC007C08FD0073
:101F5400FF307B050319BC2F01300310FB0CFA0C76
:101F6400F90CF80CFF3E031DAF2F0130FC007C0878
:101F7400FD07AA2F7808F0007908F1007A08F2002A
:101F84007D08FC007C08F300F4010A128A11DA20AF
:101F94007008F8007108F9007208FA000800573454
:101FA40065346C3463346F346D3465342034743484
:101FB4006F342034503469346334203470347234D0
:101FC4006F346734723461346D346D3469346E3413
:101FD40067342034623479342034453478347034AE
:101FE4006C346F3472346534203445346D34623467
:0C1FF400653464346434653464340034B3
:02400E00BA3FB7
:00000001FF
